:1000000032C1000061C100005FC100005DC100009D
:100010005BC1000059C1000057C1000055C100007C
:1000200053C100000C94AF140C94AF140C94AF1493
:100030004BC1000049C1000047C1000045C100009C
:1000400043C100000C943B183FC100003DC10000BB
:100050003BC1000039C1000037C100000C948E186C
:1000600033C100000C9486140C945D142DC1000063
:100070002BC1000029C1000027C1000025C10000DC
:100080000C940D1821C100001FC100001DC100000B
:100090000C9434140C940B1417C100000C94D51557
:1000A00013C1000011C100000C94DF170DC1000046
:1000B0000BC1000009C1000007C100000C94B1177A
:1000C00003C1000001C10000FFC000000C94E21356
:1000D0000C94B913F9C000000C9490130C9467139E
:1000E000F3C00000820A870A8C0A960AA00A190B3C
:1000F000AA0AB20ABA0AC40ACE0AD80AE70AF10A58
:10010000190BFB0A050B0F0B470D6A0D360D7B0D06
:10011000930DC50DBA0DC50DC50DC50DED0D550DD4
:100120003C0E3F0E2E0E320E380E760E430E470E4C
:100130004D0E510E550E5B0E5F0E630E760E690E60
:100140006D0E710E00002100240027002A002D00F2
:100150003000330001010000040107010A01000022
:100160002200250028002B002E003100340002015F
:100170000000050108010B010000200023002600FB
:1001800029002C002F0032000001000003010601AD
:10019000090105050505070508080808020202020D
:1001A0000A0A080804040404010101010101010113
:1001B0000303030303030303040707070C0C0C0CDE
:1001C0000C0C0C0C020202020606060606060606C7
:1001D0000B0B0B0B0B0B0B0B010210202008081054
:1001E00020401020408002010201080402010102A7
:1001F0000408102040808040201008040201800480
:1002000002018040201008040201080402010102DA
:1002100004081020408001020408102040800000E3
:100220000A0B02090C0D0E08070304010000000070
:1002300000000000000000000000000000000000BE
:10024000000000000000000000001211100000007B
:10025000000000000000000000000000000000009E
:1002600000000000A51F11241FBECFEFD1E2DEBFAA
:10027000CDBF00E00CBF13E0A0E0B2E0EEE7F6E493
:1002800000E00BBF02C007900D92AE31B107D9F765
:100290002AE0AEE1B3E001C01D92AD35B207E1F74F
:1002A00011E0C3E3D1E000E006C021970109802FEF
:1002B000FE010E94E021C233D10780E00807A9F7C0
:1002C0000E94D8180C943D239BCE2091E5033091D9
:1002D000E6038217930720F5880F991F880F991F4F
:1002E000E091E303F091E4032091E2038E0F9F1F5E
:1002F000FC01E20FF11D70832091E103FC01E20F8C
:10030000F11D60832091E003FC01E20FF11D508399
:100310002091DF03FC01E20FF11D408380E008958E
:1003200081E008950F931F93CF93DF9381E0809333
:10033000C5038091C103882329F01092C1038FEF78
:1003400080930002E7E3F3E0CEE2D3E0A8EBB3E072
:10035000119219921D9283E0E034F807C9F702E781
:1003600013E0C0E0DFEF8AEC8C0F803118F462E01C
:1003700070E006C08EEF8C0F843428F461E070E0EA
:100380008C2F0E94A60CF801D1938F01CF5FC63449
:1003900051F7109269031092680310927103109242
:1003A00070031092C503DF91CF911F910F910895B3
:1003B0000F931F93CF93DF93893008F07AC0282FD3
:1003C00030E0F901E95CFC4F6083672B09F471C0F0
:1003D000082FF901E25DFC4F1081D22FDD0FDD0FF8
:1003E000DD0F8EEF8D0F843408F053C010FF51C025
:1003F0008D2F0E942510892B09F44BC0C1E08FEF8F
:100400008D0F843448F411FF07C081E08D0F0E94E6
:100410002510892B09F03FC012FF06C082E08D0F26
:100420000E942510892BC9F513FF06C083E08D0FAC
:100430000E942510892B99F514FF06C084E08D0FCA
:100440000E942510892B69F515FF06C085E08D0FE8
:100450000E942510892B39F5D03491F016FF06C083
:1004600086E08D0F0E942510892BF9F4DF3341F0CF
:1004700017FF06C087E08D0F0E942510892BB9F465
:1004800041E06C2F802FDF91CF911F910F910C9441
:10049000460BC0E0B4CFC260BFCFC460C5CFC86058
:1004A000CBCFC061D1CFC062D7CFC064DFCFC0682F
:1004B000E7CFDF91CF911F910F910895CF938031B6
:1004C00080F5409168035091690321E030E0672B8B
:1004D00081F4B90102C0660F771F8A95E2F7CB015C
:1004E0008095909584239523909369038093680366
:1004F00018C0082E02C0220F331F0A94E2F7242BE3
:10050000352B30936903209368039091C5039111B3
:1005100008C0C82F0E94B710BC018C2FCF910C943B
:10052000770ECF910895CF92DF92EF92FF920F93C3
:100530001F93CF93DF936C018B017A01EC01C951BA
:10054000DC4F888187FF04C0FB011182108224C028
:100550002CE02C9DC0012D9D900D11242881AC0113
:10056000420F511D27FD5A952091540930E0421742
:10057000530794F42881AC01420F511D27FD5A9571
:100580009A01FA01EE0FFF1F2E0F3F1FF901EC53E6
:10059000F74F208126FD19C088818F5F88832CE06A
:1005A0002C9DC0012D9D900D11242881AC01420F7E
:1005B000511D27FD5A952091540930E042175307E9
:1005C000BCF428812C3044F113C02881820F911D86
:1005D00027FD9A95FC01EE0FFF1F8E0F9F1FFC0158
:1005E000EC53F74F808160E08F730E944D10D4CFA1
:1005F000F80180819181049680349C4918F480E44C
:100600009CE904C0F801808191810496F7019183EF
:1006100080838FEF888345C0F80140815181288114
:10062000BC01620F711D27FD7A959B01FB01EE0F46
:10063000FF1F2E0F3F1FF901EC53F74F218132812D
:10064000240F351FF701318320832881AC01420F2D
:10065000511D27FD5A959A01FA01EE0FFF1F2E0F2B
:100660003F1FF901EC53F74F208126FF1AC0288164
:10067000820F911D27FD9A95FC01EE0FFF1F8E0F33
:100680009F1FFC01EC53F74F808161E08F73DF9176
:10069000CF911F910F91FF90EF90DF90CF900C942E
:1006A0004D10DF91CF911F910F91FF90EF90DF9050
:1006B000CF9008951092DE031092E6031092E503A6
:1006C000EEECF3E0A6ECB3E0119211921D9283E000
:1006D000EE3DF807C9F708956F927F928F929F922F
:1006E000AF92BF92CF92DF92EF92FF920F931F9340
:1006F000CF93DF93EA018F3609F4C2C1162F8037FA
:1007000078F4893609F488C220F4813509F496C258
:100710006AC58B3609F4DEC18D3609F42CC263C577
:10072000863761F020F4803709F44AC15CC5883708
:1007300009F4F1C08A3709F48FC155C52981922F78
:10074000987125FF03C08EE892E061C0888131E096
:1007500026FB222720F92327983069F160F49111B4
:1007600042C5309382048093A404109283041092B3
:10077000A50402E007C0903109F443C0983109F4A0
:100780007DC031C5011778F4FE01E00FF11D6181D4
:100790006795662767958081680F80E798E00E94DB
:1007A0002D130E5FEFCF81E00E94680F83E191E08F
:1007B0000197F1F718C54B816A81163069F470E032
:1007C00030E8439F600D711D11244D8147954427EA
:1007D00047959C81490F06C0479544274795460F8A
:1007E0006FEF7FEFDF91CF911F910F91FF90EF900F
:1007F000DF90CF90BF90AF909F908F907F906F9041
:1008000088C7E0910002E73094F08EEA92E0DF9131
:10081000CF911F910F91FF90EF90DF90CF90BF90FD
:10082000AF909F908F907F906F900C94260F9B813C
:100830003A81663071F4632F70E040E8949F600D58
:10084000711D11249D819795992797954C81940F3F
:1008500006C0979599279795930F6FEF7FEFEF5FFE
:10086000E093000235E0E302F0011124E05CFC4F6C
:1008700080837283618393832483B5C420910002B3
:1008800012163CF490E0622F022E000C770B35E03C
:100890000FC08FEF80930002A6C4349FF001359FF4
:1008A000F00D1124E05CFC4F4081841739F09F5F0C
:1008B000492F50E06417750784F790E085E022C067
:1008C0009830F8F4FA0131968E9FD0018F9FB00DC9
:1008D0001124A05CBC4F3C91849FF001859FF00DDA
:1008E0001124E05CFC4F308311964D915C9112977E
:1008F0005283418313963C911397338314963C9112
:1009000034839F5F492F50E064177507CCF6215060
:100910002093000268C42981888190E040E8249FE8
:10092000800D911D1124009721F090936F03809307
:100930006E038091C103811156C4C0E08CEE8C0F10
:10094000823028F466E070E08C2F0E94A60CCF5F06
:10095000C634A1F781E08093C1031092060A109279
:10096000050A109283041092A504109281048093CA
:10097000800410925B0461E084E10E944D1061E00C
:1009800085E10E944D108091B9008E7F8093B9005F
:100990008091B9008D7F8093B90088E48093B8007E
:1009A00085E48093BC0083ED92E19093080A8093E4
:1009B000070A84ED92E190930A0A8093090A13C40E
:1009C000653008F410C418818EEF810F843408F06C
:1009D0000AC40981EA80FB80CC81E12FF0E0EE5867
:1009E000FC4F80818033B0F490E0FC01EE0FFF1FDC
:1009F0008E0F9F1FFC01EB5AF64F808190E0FC01A7
:100A0000EE0FFF1F8E0F9F1FFC01EC53F74F8081ED
:100A100086FDD0C34F2D50E080E8C89F400D511D8A
:100A20001124602F70E090E8E99E600D711D112483
:100A3000812F4FD764E070E0812FDF91CF911F911C
:100A40000F91FF90EF90DF90CF90BF90AF909F906D
:100A50008F907F906F907AC7623008F4C4C3298169
:100A6000888190E0E0E82E9F800D911D1124009771
:100A700011F481E090E09093020280930102B3C3ED
:100A8000623008F4B0C3898190E0623091F02A812D
:100A9000F0E82F9F90011124822B932B633049F0B3
:100AA0002B8130E030E4239F302D22271124822B2C
:100AB000932BBC018881DF91CF911F910F91FF9003
:100AC000EF90DF90CF90BF90AF909F908F907F90EE
:100AD0006F9045C480EF0E945B0F8CE60E945B0F15
:100AE000CEEF8CEC8C0F803138F482E00E945B0FEB
:100AF0008AE00E945B0F02C0CC3020F086ED8C0FA4
:100B0000833030F483E00E945B0F88E00E945B0F2B
:100B1000C43430F484E00E945B0F8EE00E945B0FCF
:100B20008EEE8C0F823030F486E00E945B0F81E005
:100B30000E945B0F8FE70E945B0FCF5FC43451F1BF
:100B4000C43478F680E00E945B0F81E00E945B0F66
:100B50008BE00E945B0F81E00E945B0F81E00E94AE
:100B60005B0F81E00E945B0F81E50E945B0F81E0DB
:100B70000E945B0FB6CF662309F435C3C88180EFAE
:100B80000E945B0F8EE60E945B0F8C2F0E945B0F12
:100B9000C63488F087EFDF91CF911F910F91FF90BE
:100BA000EF90DF90CF90BF90AF909F908F907F900D
:100BB0006F900C945B0FD0E0FE01E356F84F8081FC
:100BC0000E945B0FCC0FDD1F8E010D51184FF801F5
:100BD00080818F770E945B0FF801808191819C0159
:100BE0002078232B39F0880F892F881F990B8F7756
:100BF0000E945B0FCD51D84F888199819C0122279B
:100C0000307C232B39F2990F880B990F982F881F6E
:100C10008F770E945B0FBECF80EF0E945B0F8AE64A
:100C20000E945B0FCAECC03110F08FE701C08C2F1F
:100C30000E945B0FCF5FC031B1F7ACCF662309F4E0
:100C4000D2C29881892F8F70833009F4DEC030F4CE
:100C5000813009F43DC1823041F0C5C2843009F4CD
:100C600067C0853009F4FCC1BEC28091C403811104
:100C7000BAC28091C3038111B6C281E08093C403DC
:100C800090E019E08091DE03981708F04EC0292FFC
:100C900030E0A9014A535C4FFA018081882309F4AE
:100CA00040C0E090E303F090E403129FE001139F43
:100CB000D00D1124C458D74FEE81FF812081888543
:100CC000822B8083AC81BD81788528813981220F78
:100CD000331F220F331FEA81FB81EE0FFF1FEE0F40
:100CE000FF1FEE0DFF1D8C91672F60956823872BEA
:100CF0007FB7F8942E0F3F1F2E173F0781F0C19149
:100D0000D8E08C9300C0C7FF6C93CC0F00C000C02C
:100D100000C008F46C9300C0DA9599F7EDCF7FBF5F
:100D20007894FA0110829F5FADCF1092C4035BC22A
:100D30008091C303811157C28C8190E0A0E0B0E0A4
:100D4000AC01BD01B5E1440F551F661F771FBA9571
:100D5000D1F79D81892F90E0A0E0B0E01CE1880FE1
:100D6000991FAA1FBB1F1A95D1F7840F951FA61FA5
:100D7000B71F2981820F911DA11DB11DCB80D12CE0
:100D8000E12CF12C0EE0CC0CDD1CEE1CFF1C0A95B6
:100D9000D1F78C0D9D1DAE1DBF1D4A8150E060E056
:100DA00070E027E0440F551F661F771F2A95D1F783
:100DB0006C017D01C40ED51EE61EF71EC114D104C0
:100DC000E104F10419F0C0E0D0E011C04091E50366
:100DD0005091E603440F551F440F551F60E070E02B
:100DE0008091E3039091E4030E942723CCC180917A
:100DF000E5039091E603C817D90708F0C4C1B7010D
:100E0000A601CE0162DA2196F2CF8091C30381114F
:100E1000EAC18A81098110E0F0E88F9F000D111D61
:100E200011248E8190E0A0E0B0E0AC01BD0125E18D
:100E3000440F551F661F771F2A95D1F79F81892F71
:100E400090E0A0E0B0E03CE1880F991FAA1FBB1F13
:100E50003A95D1F7840F951FA61FB71F2B81820FDC
:100E6000911DA11DB11D4D8150E060E070E0EEE0EC
:100E7000440F551F661F771FEA95D1F7480F591F7A
:100E80006A1F7B1FCC80D12CE12CF12CF7E0CC0C1D
:100E9000DD1CEE1CFF1CFA95D1F74C0D5D1D6E1D7F
:100EA0007F1DC80112DA4091DE03AEECB3E080E0B2
:100EB00090E0841708F097C1FC012D913D910196B7
:100EC00002171307B0F7EA53FC4F81E080838BC110
:100ED000913009F088C1633008F485C19090C20355
:100EE000E9DB911015C06BEA169FB12C1124B69462
:100EF0001EECC12E13E0D12E0CE7E02E08E0F02E00
:100F0000A12C8824839482E0782E93E0692E56C029
:100F1000BCE7EB2EB8E0FB2E00E0602FC70169D6DE
:100F20000F5F39E0E30EF11C0830B9F7DCCF89819F
:100F300090E0A5E095958795AA95E1F78130910518
:100F400009F452C00CF041C0892B31F41092E10336
:100F50008092E2037092E0038B810A8110E040E806
:100F6000849F000D111D1124F70111830083AA2015
:100F700009F446C0F6013297808191819801280FCB
:100F8000391FF601219331936F01F7019383828317
:100F90008091E5039091E603080F191F1093E60373
:100FA0000093E5038091DE038F5F8093DE03A394BB
:100FB000F9E0EF0EF11C2396BA1429F19110B7CF86
:100FC00069816F71C70115D6B2CF8230910589F062
:100FD000039709F0C1CF1092E2038092E10370926F
:100FE000E0036092DF03B8CF1092E2038092E10346
:100FF000B1CF1092E0038092E2037092E103ACCF94
:1010000080E090E0BBCF8091E3039091E4030097F0
:1010100031F00E9480221092E6031092E503011540
:10102000110509F4E0C0E801CC0FDD1FCC0FDD1F76
:10103000CE010E94E8219093E4038093E30300979C
:1010400051F0AE0160E070E00E9427231093E603A8
:101050000093E503C8C01092E6031092E503C3C0F5
:101060008981082F0F7109F48EC0382F3072D32E6A
:10107000C02FCC0FCC0F91E09093C303D0E010E0D1
:10108000482F4074B42E86FF27C0CE010E94E8216D
:101090007C01009729F0AE0160E070E00E942723F8
:1010A000DD2039F06091E5037091E603601B710B60
:1010B00002C060E070E0660F771F660F771F8091B7
:1010C000E3039091E403680F791FAE01C7010E940A
:1010D0000D23D11072C018C03323B1F08091E30307
:1010E0009091E4034091E5035091E603401B510BBE
:1010F000440F551F440F551FBC018C0F9D1F0E94AC
:10110000162380E090E02EC0C090E503D090E60367
:10111000C01AD10A8091E3039091E403A601440F21
:10112000551F440F551FBC016C0F7D1F0E941623D5
:10113000BB2091F0CC0CDD1CCC0CDD1C8091E303BA
:101140009091E403AE01B7018C0D9D1D0E940D230B
:10115000C7010E94802215C08091E5039091E603AB
:10116000801B910B880F991F880F991F2091E30313
:101170003091E403AE0160E070E0820F931F0E94A3
:1011800027231092C3034091DE0350E061E070E03A
:1011900086EC93E0DF91CF911F910F91FF90EF903C
:1011A000DF90CF90BF90AF909F908F907F906F9087
:1011B0000C942723812F5AD32DCC8091E303909157
:1011C000E4034091E5035091E603401B510B440FAB
:1011D000551F440F551FBC018C0F9D1F0E941623E5
:1011E000C12CD12CA7CFDF91CF911F910F91FF90F0
:1011F000EF90DF90CF90BF90AF909F908F907F90B7
:101200006F9008958F929F92AF92BF92CF92DF928C
:10121000EF92FF920F931F93CF93DF93893008F0E3
:1012200091C0982F990F990F990F58E0C52EC90EAC
:1012300096E49C1510F446E4C42E8B01C82FCC0F05
:10124000CC0FCC0FDC2ED0E0992493945B01BB240F
:10125000DC1430F58EEF8D0D8434F8F44D2D50E014
:10126000FA01E356F84F20812230B8F4892D90E03E
:101270008A219B2188248394009709F4812C7A0188
:10128000EE0CFF1C213009F04EC0D929F701ED51B9
:10129000F84F882D90E091838083990CD394D8CF18
:1012A000D0FF04C0602F61708C2FF7D6D1FF05C02E
:1012B000602F627081E08C0FF0D6D2FF05C0602FE6
:1012C000647082E08C0FE9D6D3FF05C0602F687090
:1012D00083E08C0FE2D6D4FF05C0602F607184E0FC
:1012E0008C0FDBD6D5FF05C0602F607285E08C0FB8
:1012F000D4D6D6FF05C0602F607486E08C0FCDD6A3
:10130000D7FF20C0602F607887E08C0FDF91CF91EE
:101310001F910F91FF90EF90DF90CF90BF90AF9013
:101320009F908F90BAC6892B09F4B0CFF701ED5189
:10133000F84F80819181019709F4A8CF62E08D2D4B
:10134000DAD6A4CFDF91CF911F910F91FF90EF904C
:10135000DF90CF90BF90AF909F908F9008958F9225
:101360009F92AF92BF92CF92DF92EF92FF920F9334
:101370001F93CF93DF93EB01863408F066C1082FEB
:1013800010E0F801E356F84F9081933009F490C0D3
:10139000943009F05AC18250843408F04FC1F801EA
:1013A000EE58FC4FE080F12C6701CC0CDD1C603264
:1013B00082E078070CF042C077FD05C0653B7105FF
:1013C00024F4DB0104C0A0E001C0A4EBB0E0F6010E
:1013D000EE0DFF1DEB5AF64F818128E830E0490100
:1013E000881A910887FD9394880C991C880C991C85
:1013F000092C000CAA08BB08828128E532E0281BD2
:10140000310987FD3395220F331F220F331FA901A6
:10141000330F660B770B9A01AB01281939094A097A
:101420005B090E949D2124EB30E040E050E00E94E7
:101430007721820E931EA41EB51E01C04B01F6013A
:10144000EE0DFF1DEB5AF64F2081203308F0F6C059
:10145000318188E890E0831B910937FD9395880FCF
:10146000991F880F991F8816990684F0828148E594
:1014700052E0481B510987FD5395440F551F440FF7
:10148000551FC401481559050CF4CA010297880F6D
:10149000991F4FB7F89430E0F901EE0FFF1F2E0FA0
:1014A0003F1FF901EC53F74F928381834FBFC6C0B2
:1014B000F82E8EEF800F8C3028F084ED800F833073
:1014C00008F0BCC061E08F2D16D6209711F460E0C3
:1014D00004C0CF3FD10521F461E08F2DDED5AEC031
:1014E000F801E25EFD4FE4918E2F90E0FC01319710
:1014F000E231F10508F09DC08827EE58FF4F8F4F6D
:101500000C94E02184B5806884BDC7BD97C084B5C4
:10151000806284BDC8BD92C0809180008068809345
:101520008000D0938900C093880088C0809180009B
:10153000806280938000D0938B00C0938A007EC02D
:1015400080918000886080938000D0938D00C0934C
:101550008C0074C08091B00080688093B000C0930C
:10156000B3006CC08091B00080628093B000C093E3
:10157000B40064C080919000806880939000D09304
:101580009900C09398005AC0809190008062809327
:101590009000D0939B00C0939A0050C0809190001F
:1015A000886080939000D0939D00C0939C0046C0BB
:1015B0008091A00080688093A0008091A0008F7B24
:1015C0008093A000D093A900C093A80037C0809159
:1015D000A00080628093A000D093AB00C093AA00CB
:1015E0002DC08091A00088608093A000D093AD00B2
:1015F000C093AC0023C080912001806880932001BB
:10160000D0932901C093280119C0809120018062E4
:1016100080932001D0932B01C0932A010FC08091A9
:101620002001886080932001D0932D01C0932C016C
:1016300005C0C038D1050CF04FCF49CF000F111FA6
:10164000F801ED51F84FD183C083DF91CF911F9105
:101650000F91FF90EF90DF90CF90BF90AF909F9051
:101660008F9008959EEF980F943478F4E82FF0E06F
:10167000DF01A356B84F9C91913039F4EE0FFF1F54
:10168000ED51F84F6083718308C50895FF920F9361
:101690001F93CF93DF931F921F92CDB7DEB7082F12
:1016A00010E0F801E25DFC4F9081F62EF92208541B
:1016B0001C4F411104C0F8019081F91611F12F2D32
:1016C00030E03A832983A0915A07B0915B071097C5
:1016D000B1F0682F6F706069ED91FC9111970190E6
:1016E000F081E02DCD01199522E030E0AE014F5F91
:1016F0005F4F62E070E08AE597E00E94B914F8015C
:10170000F0820F900F90DF91CF911F910F91FF907A
:101710000895EF92FF920F931F93CF93DF93D82FEB
:101720008B01C42FF22E6F3F8FEF7807E9F081E035
:1017300080938204D093A404109283041092A50491
:1017400080E798E08AD78F2DC3D380916E03909164
:101750006F038230910550F0880F991F880F991FF1
:1017600005970197F1F702C000E010E08091810435
:101770008111FCCF9C2FC13208F090E281E0809370
:101780008104809380042FEF20937F0410927E04C5
:10179000290F20937D0480935C0480915C042D2F9D
:1017A000220F822B80935C0480915B04813061F472
:1017B00010925B0480915C048093BB008091BC001C
:1017C00083FDF8CF85EC01C085EE8093BC0080914D
:1017D00081048130E1F380917E04891710F49091A7
:1017E0007E04EDE5F4E0A5EEB9E080E0891721F094
:1017F00021912D938F5FFACF1092060A8093050AEC
:10180000EC2EF12C90E0E816F9061CF48FEB92E038
:1018100005C08E159F051CF48CED92E017D3D09374
:101820001B0400931C040BE114E0C8018B5194408D
:101830008E159F0574F40F5F1F4F9091050A8091DC
:10184000060A981731F080E798E0BFD6F801818347
:10185000ECCFCE5F6C2F70E04BE154E087E7DF9177
:10186000CF911F910F91FF90EF90A4C2A82FB0E0ED
:10187000AE58BC4F9C91292F30E0F901EE0FFF1FAD
:101880002E0F3F1FF901EB5AF64FE081F0E09F0168
:10189000220F331FE20FF31FEC53F74F80818F7B32
:1018A000808380917003981306C0992379F091503A
:1018B000909370030BC0882349F0E0917103EF5FB0
:1018C000E0937103F0E0E651FC4F90838FEF8C932F
:1018D0000895DB01909170039033A8F53091710366
:1018E000682F70E0332369F0E32FF0E0E651FC4FFE
:1018F0008081FB01EE58FC4F80833150309371039F
:1019000007C0FB01EE58FC4F90839F5F90937003DC
:10191000FB01EE58FC4F808190E09C01220F331FA9
:10192000820F931F1A161B0634F4141615061CF4A6
:101930009A01AD0104C020E639E040E252E08B5A42
:10194000964F0C94061788EF92E080C28F929F9278
:10195000BF92CF92DF92EF92FF920F931F93CF939C
:10196000DF93C82ED12CE601C65ED84FFE01ED579D
:10197000FF4F90819F3709F430C1963041F4909128
:10198000C103992321F06630710509F00CC17B0178
:10199000182F0EEF080F0434F8F464307105E1F0ED
:1019A000F601EE58FC4F80818033B0F490E0FC01EA
:1019B000EE0FFF1F8E0F9F1FFC01EB5AF64F808129
:1019C00090E0FC01EE0FFF1F8E0F9F1FFC01EC53F8
:1019D000F74F808186FDEDC05AECB52EB10E8FE039
:1019E0008B1558F061E070E082E0E816F10411F028
:1019F00060E070E08B2D0E945E02043418F5E12F48
:101A0000E695E695E695212F2770F0E0E25DFC4F24
:101A1000E114F10421F08BE0E816F10449F481E0CF
:101A200090E001C0880F2A95EAF79081892B09C0C0
:101A300081E090E001C0880F2A95EAF780959081B7
:101A4000892380834601880C991CF401ED51F84FDD
:101A5000118210828CE0E816F10408F096C0F701BC
:101A60008827EC57FF4F8F4F0C94E0218FE08B15A8
:101A700008F4B3C0043418F460E0812F3CD3CD5790
:101A8000DF4F88818F3709F4A8C082E07CC004341E
:101A900008F0A3C060E0812F2ED3CD57DF4F88819F
:101AA0008F3709F49AC0188298C0043408F095C0A2
:101AB00062E0812F20D3CD57DF4F88818F3711F01F
:101AC0008BE08883F401ED51F84F81E090E0918341
:101AD000808383C0043408F080C060E0812FDDD2B1
:101AE00061E0812F08D3CD57DF4F88818F3709F40C
:101AF00074C081E048C00C3028F084ED810F833041
:101B000008F06BC061E0812FF6D261E0812FF3D243
:101B100060E0812FC2D2CD57DF4F88818F3709F423
:101B20005CC083E030C0043408F057C0CD57DF4FAD
:101B300088818F3711F084E08883F601EE58FC4FDE
:101B400080818F3FC9F190E0FC01EE0FFF1F8E0FE7
:101B50009F1FFC01EB5AF64F808190E0FC01EE0FD5
:101B6000FF1F8E0F9F1FFC01EC53F74F808186FDF6
:101B700034C022C01451123080F5CD57DF4F888118
:101B80008F3759F186E0888328C08CE093E0DF919D
:101B9000CF911F910F91FF90EF90DF90CF90BF906A
:101BA0009F908F9053C11092C1039FEF90930002BA
:101BB000EECE812F5BDE10CF4FEF5FEF6FEF7FEF49
:101BC000812FDF91CF911F910F91FF90EF90DF90C8
:101BD000CF90BF909F908F907CCEDF91CF911F913F
:101BE0000F91FF90EF90DF90CF90BF909F908F90DC
:101BF0000895DC0170E0FB01E852FE4FE491189675
:101C0000EC9318976E567E4FFB018491E82FF0E01D
:101C1000EE0FFF1FE25AFE4F8591949115969C930B
:101C20008E931497FB016491E62FF0E0EE0FFF1FF7
:101C3000EC5BFE4F8591949117969C938E9316972B
:101C4000089590E0FC013197E231F10508F04EC0B3
:101C50008827E057FF4F8F4F0C94E0218091800040
:101C60008F7703C0809180008F7D809380000895DE
:101C700080918000877FF9CF84B58F7702C084B5CB
:101C80008F7D84BD08958091B0008F7703C08091CF
:101C9000B0008F7D8093B0000895809190008F7781
:101CA00007C0809190008F7D03C080919000877F56
:101CB0008093900008958091A0008F7707C0809155
:101CC000A0008F7D03C08091A000877F8093A0003B
:101CD0000895809120018F7707C0809120018F7D2A
:101CE00003C080912001877F8093200108951F9376
:101CF000CF93DF931F921F92CDB7DEB7182F7A8351
:101D0000698380915A0790915B07009709F44CC052
:101D1000DC01ED91FC911031A0F46115704488F460
:101D2000612F606E0190F081E02D199522E030E086
:101D3000AE014F5F5F4F62E070E08AE597E019D631
:101D400033C00190F081E02D60EF199580915A0722
:101D500090915B07DC01ED91FC910190F081E02D09
:101D60006FE6199580915A0790915B07DC01ED9120
:101D7000FC910190F081E02D612F199522E030E077
:101D8000AE014F5F5F4F62E070E08AE597E0F1D50A
:101D900080915A0790915B07DC01ED91FC910190D5
:101DA000F081E02D67EF19950F900F90DF91CF91A3
:101DB0001F910895EF92FF920F931F93CF93DF939C
:101DC000C82F80915A0790915B070097C1F17A0163
:101DD0008B01DC01ED91FC910190F081E02D60EF31
:101DE000199580915A0790915B07DC01ED91FC9168
:101DF0000190F081E02D6C2F1995E7010E0D1F1D4C
:101E0000C017D10751F020E030E0AE0161E070E092
:101E10008AE597E0AED52196F3CF80915A0790914D
:101E20005B07DC01ED91FC910190F081E02D67EF03
:101E3000DF91CF911F910F91FF90EF901994DF9157
:101E4000CF911F910F91FF90EF900895FC010190A9
:101E50000020E9F73197BF01681B790BAC0181E7DE
:101E6000A9CFCF93DF93FC01A081B181109701F13D
:101E7000EC01ED91FC9111970190F081E02D69EF5B
:101E8000CD01199588819981DC01ED91FC9101903A
:101E9000F081E02D62E0199588819981DC01ED9156
:101EA000FC910190F081E02D65E0DF91CF911994D4
:101EB000DF91CF910895A0919807B0919907ED9186
:101EC000FC9111970190F081E02D682FCD011994BC
:101ED000282F3091A504313208F04AC08091810446
:101EE0008111FCCF9091A40442E04093810420939F
:101EF00080042FEF20937F0410927E0430937D04A2
:101F0000E4E8F4E0ADE5B4E020E0321721F04191DF
:101F10004D932F5FFACF10925C0420915C04990FCF
:101F2000922B90935C0490915B04913061F4109239
:101F30005B0490915C049093BB009091BC0093FD76
:101F4000F8CF95EC01C095EE9093BC009091810480
:101F50009230E1F390917F049F3F79F080917F046C
:101F6000803241F080917F04803331F084E005C0FD
:101F700081E003C082E001C083E0109283041092EC
:101F8000A5041092820408951F93CF93DF93182F16
:101F9000EB0180915F079091600768177907A8F0BF
:101FA000E0918C07F0918D0781E03097C1F080932C
:101FB0005C078091780790917907199580915F0768
:101FC00090916007C817D90748F480915D079091F8
:101FD0005E07C80FD91F188380E001C081E0DF9140
:101FE000CF911F910895AC01FB0180E090E09C012E
:101FF000220F331F2417350770F4DB012C91208347
:1020000011963C91379533273795232B21930196D1
:102010006E5F7F4FECCF0895FC01A089B1898C9150
:10202000A689B78982FD0FC09C91818D8F5F8F73C8
:10203000228D821749F0218DDF01A20FB11D5D961F
:102040009C93818F08958C910895CF93DF93282FCF
:1020500030E0F901E25EFD4F8491F901E852FE4F54
:10206000D491F901EE56FE4FC491CC2389F0811131
:10207000E8DDEC2FF0E0EE0FFF1FE858FE4FA591D2
:10208000B491EC91ED2381E090E021F480E002C076
:1020900080E090E0DF91CF9108951F93CF93DF937D
:1020A000282F30E0F901E25EFD4F8491F901E852FA
:1020B000FE4FD491F901EE56FE4FC491CC23B9F0F6
:1020C000162F8111BEDDEC2FF0E0EE0FFF1FE25A5C
:1020D000FE4FA591B4919FB7F894111104C08C9153
:1020E000D095D82302C0EC91DE2BDC939FBFDF910B
:1020F000CF911F910895CF93DF9390E0FC01E852B8
:10210000FE4F2491FC01EE56FE4F8491882361F12D
:1021100090E0880F991FFC01EC5BFE4FC591D491B4
:10212000FC01E25AFE4FA591B491611109C09FB71D
:10213000F8948881209582238883EC912E230BC00C
:10214000623061F49FB7F8948881322F30958323F1
:102150008883EC912E2B2C939FBF06C08FB7F894E9
:10216000E8812E2B28838FBFDF91CF91089586338E
:1021700008F0865390917B00282F2870977F922B30
:1021800090937B008770806480937C0080917A00BC
:10219000806480937A0080917A0086FDFCCF8091E4
:1021A00078002091790090E0922B08958F929F9271
:1021B000AF92BF92CF92DF92EF92FF926B017C01C0
:1021C00088D74B015C01C114D104E104F104E9F0AA
:1021D00080D7DC01CB0188199909AA09BB09883E7F
:1021E0009340A105B10578F321E0C21AD108E108B6
:1021F000F10888EE880E83E0981EA11CB11CC11462
:10220000D104E104F10421F7DECFFF90EF90DF90DD
:10221000CF90BF90AF909F908F900895CF92DF9214
:10222000EF92FF920F931F93CF93DF936C017A018C
:102230008B01C0E0D0E0CE15DF0581F0D8016D91B3
:102240008D01D601ED91FC910190F081E02DC60148
:102250001995892B11F02196EECF7E01C701DF91F0
:10226000CF911F910F91FF90EF90DF90CF90089545
:10227000FC01538D448D252F30E0842F90E0821B8C
:10228000930B541710F0CF96089501970895FC0111
:10229000918D828D981761F0828DDF01A80FB11D9D
:1022A0005D968C91928D9F5F9F73928F90E00895C1
:1022B0008FEF9FEF0895FC01918D828D981731F07B
:1022C000828DE80FF11D858D90E008958FEF9FEFCF
:1022D0000895FC01918D228D892F90E0805C9F4FA5
:1022E000821B91098F739927089586EA94E0F1DFA4
:1022F00021E0892B09F420E0822F089583E495E002
:10230000E8DF21E0892B09F420E0822F089580EE98
:1023100095E0DFDF21E0892B09F420E0822F08958A
:102320008DE796E0D6DF21E0892B09F420E0822FAB
:102330000895FC01848DDF01A80FB11DA35ABF4F82
:102340002C91848D90E001968F739927848FA689B4
:10235000B7892C93A089B1898C91837080648C9308
:10236000938D848D981306C00288F389E02D8081B7
:102370008F7D80830895EF92FF920F931F93CF93E9
:10238000DF93EC0181E0888F9B8D8C8D981305C0C5
:10239000E889F989808185FD25C0F62E0B8D10E036
:1023A0000F5F1F4F0F731127E02E8C8DE8120BC0AB
:1023B0000FB607FCFACFE889F989808185FFF5CF50
:1023C000CE01B7DFF2CF8B8DFE01E80FF11DE35A8E
:1023D000FF4FF0829FB7F8940B8FEA89FB898081C9
:1023E00080620AC09FB7F894EE89FF896083E8890C
:1023F000F98980818370806480839FBF81E090E051
:10240000DF91CF911F910F91FF90EF900895CF939F
:10241000DF93EC01888D8823C1F0EA89FB898081F4
:1024200085FD05C0A889B9898C9186FD0EC00FB6BF
:1024300007FCF5CF808185FFF2CFA889B9898C91FF
:1024400085FFEDCFCE0175DFE8CFDF91CF91089505
:1024500080E090E0892B19F063DF811116C080E0E5
:1024600090E0892B19F053DF811112C080E090E0D9
:10247000892B19F043DF81110EC080E090E0892B99
:1024800079F033DF81110AC008950E940000E7CF80
:102490000E940000EBCF0E940000EFCF0C940000E0
:1024A0000895E0912C03F0912D03309709F01994D1
:1024B0000895862F642FE0912A03F0912B03309723
:1024C00011F0A901199408950895862FE09122032F
:1024D000F0912303309711F0BA0119940895862FD3
:1024E000E0912403F0912503309711F0BA0119947B
:1024F0000895862FE0911E03F0911F03309711F08D
:10250000BA0119940895862FE0912003F0912103D8
:10251000309711F0BA0119940895862FE09126039F
:10252000F0912703309711F0BA0119940895862F7E
:10253000E0912803F0912903309711F0BA01199422
:10254000089585ED8093BC008091BC0084FDFCCF94
:1025500010928104089540912B0A262F30E0240F19
:10256000311D21323105DCF4209181042430C9F47D
:10257000FC0180E090E0861758F430912B0A2191FD
:10258000DC01A55FB54FA30FB11D2C930196F3CFCE
:1025900080912B0A680F60932B0A80E0089581E0F8
:1025A000089582E00895089508950895E091060A37
:1025B0008091050AE81730F4F0E0EB51F64F808186
:1025C00090E008958FEF9FEF08959091060A809113
:1025D000050A981750F4E92FF0E0EB51F64F2081EF
:1025E00030E09F5F9093060A02C02FEF3FEFC901D2
:1025F00008958091050A90E02091060A821B9109B6
:102600000895CF92DF92EF92FF920F931F93CF9393
:10261000DF937C01CB018A0120918204222389F07F
:10262000EB016B01C40ED51ECC15DD0561F069917F
:10263000D701ED91FC910190F081E02DC701199532
:10264000F3CF642F88DFC801DF91CF911F910F91E5
:10265000FF90EF90DF90CF900895CF93DF931F927C
:10266000CDB7DEB76983209182042223D1F0209177
:10267000A504203240F021E030E0FC0133832283C6
:1026800080E090E014C080918304E82FF0E0EC57E4
:10269000FB4F998190838F5F809383048093A5047F
:1026A00004C061E0CE01019656DF81E090E00F901A
:1026B000DF91CF910895089580E090E008950E9401
:1026C0000923009719F0805C9F4FCBCB08951F9290
:1026D0000F920FB60F9211240BB60F922F933F93C8
:1026E0004F935F936F937F938F939F93AF93BF931A
:1026F000EF93FF9386EA94E01CDEFF91EF91BF9188
:10270000AF919F918F917F916F915F914F913F9189
:102710002F910F900BBE0F900FBE0F901F9018952A
:102720001F920F920FB60F9211240BB60F922F9398
:102730003F934F935F936F937F938F939F93AF9349
:10274000BF93EF93FF9386EA94E066DCFF91EF91ED
:10275000BF91AF919F918F917F916F915F914F91B9
:102760003F912F910F900BBE0F900FBE0F901F90B7
:1027700018951F920F920FB60F9211240BB60F925D
:102780002F933F934F935F936F937F938F939F9379
:10279000AF93BF93EF93FF9383E495E0CADDFF917E
:1027A000EF91BF91AF919F918F917F916F915F91C9
:1027B0004F913F912F910F900BBE0F900FBE0F9036
:1027C0001F9018951F920F920FB60F9211240BB6FF
:1027D0000F922F933F934F935F936F937F938F93BA
:1027E0009F93AF93BF93EF93FF9383E495E014DC43
:1027F000FF91EF91BF91AF919F918F917F916F91D9
:102800005F914F913F912F910F900BBE0F900FBE94
:102810000F901F9018951F920F920FB60F921124D0
:102820000BB60F922F933F934F935F936F937F93CA
:102830008F939F93AF93BF93EF93FF9380EE95E0B9
:1028400078DDFF91EF91BF91AF919F918F917F9133
:102850006F915F914F913F912F910F900BBE0F9011
:102860000FBE0F901F9018951F920F920FB60F92E8
:1028700011240BB60F922F933F934F935F936F9357
:102880007F938F939F93AF93BF93EF93FF9380EECC
:1028900095E0C2DBFF91EF91BF91AF919F918F9136
:1028A0007F916F915F914F913F912F910F900BBE50
:1028B0000F900FBE0F901F9018951F920F920FB69A
:1028C0000F9211240BB60F922F933F934F935F9368
:1028D0006F937F938F939F93AF93BF93EF93FF93E8
:1028E0008DE796E026DDFF91EF91BF91AF919F912B
:1028F0008F917F916F915F914F913F912F910F90A9
:102900000BBE0F900FBE0F901F9018951F920F9245
:102910000FB60F9211240BB60F922F933F934F9344
:102920005F936F937F938F939F93AF93BF93EF9337
:10293000FF938DE796E070DBFF91EF91BF91AF9130
:102940009F918F917F916F915F914F913F912F91C7
:102950000F900BBE0F900FBE0F901F9018951F92F7
:102960000F920FB60F9211240F900FBE0F901F9071
:1029700018953F924F925F926F927F928F929F92A3
:10298000AF92BF92CF92DF92EF92FF920F931F937D
:10299000CF93DF935C016901DA013C90232B19F49A
:1029A000CC24CA94DC2C7A012A01460E571EC0E0C2
:1029B000D0E000E010E087E0682E712CE414F5040C
:1029C00009F443C00C151D0508F067C04701F50167
:1029D00080819181D7016D917D010C2E01C0660F20
:1029E0000A94EAF763296F77DC01ED91FC9101907D
:1029F000F081E02D19950F5F1F4FF401608170E0A9
:102A0000C3018C1B9D0B02C0759567958A95E2F7F3
:102A1000362E2196C730D10588F2C016D10699F01E
:102A2000D5018D919C91632D6F77DC01ED91FC9127
:102A30000190F081E02D19950F5F1F4F331C332457
:102A4000331C2797E7CF8601B9CF209731F10C15BA
:102A50001D0518F5F5018081918161E070E001C0EC
:102A6000660FCA95EAF761506321DC01ED91FC9194
:102A70000190F081E02DDF91CF911F910F91FF9098
:102A8000EF90DF90CF90BF90AF909F908F907F900E
:102A90006F905F904F903F901994DF91CF911F916D
:102AA0000F91FF90EF90DF90CF90BF90AF909F90ED
:102AB0008F907F906F905F904F903F900895DF923E
:102AC000EF92FF920F931F93CF93DF93FC01E05897
:102AD000FF4FD080DD2009F45CC0EC01C05CDF4F0B
:102AE000A881B981109709F454C0FC01EF57FF4F3A
:102AF00000811181F801F180E080ED91FC91119746
:102B00000190F081E02D60EFCD01199588819981C8
:102B1000DC01ED91FC910190F081E02D69E71995C0
:102B200088819981DC01ED91FC910190F081E02D8B
:102B30006E2D199588819981DC01ED91FC910190B0
:102B4000F081E02D6F2D19957801B2E0EB0EF11CAC
:102B50000D0D111DE016F10659F020E030E0A7013F
:102B600061E070E0CE0105DFEFEFEE1AFE0AF2CF72
:102B700088819981DC01ED91FC910190F081E02D3B
:102B800067EFDF91CF911F910F91FF90EF90DF9052
:102B90001994DF91CF911F910F91FF90EF90DF90EB
:102BA0000895009709F08BCF08951F920F920FB6EA
:102BB0000F9211240BB60F922F933F934F935F9375
:102BC0006F937F938F939F93AF93BF93EF93FF93F5
:102BD0008091B900887F803609F49CC068F58832FE
:102BE00009F45BC090F4803109F454C038F48823B0
:102BF00009F4F6C0883009F44DC0F5C0883109F4F5
:102C00004CC0803209F45DC0EEC0803409F468C065
:102C100048F4803309F455C0883309F0E4C0809348
:102C20007F04D8C0803509F44FC0883509F45DC0F1
:102C3000883409F0D8C0D6C0883909F4C7C0A8F4D0
:102C4000883709F467C038F4883609F463C08037E0
:102C500009F460C0C8C0883809F4B8C0803909F4E4
:102C60005FC0803809F0BFC05BC0803B09F486C0FC
:102C700038F4803A09F466C0883A09F47FC0B3C0DA
:102C8000803C09F4A7C0883C09F4A4C0883B09F43F
:102C90008AC0A9C080915C0410C090917E0480918C
:102CA0007D04981770F5E0917E0481E08E0F80938B
:102CB0007E04F0E0E35AFB4F80818093BB0085ECFB
:102CC00086C080937F048EC0E0917E0481E08E0FE9
:102CD00080937E048091BB00F0E0E35AFB4F808339
:102CE00090917E0480917D046EC0E0917E0481E02D
:102CF0008E0F80937E048091BB00F0E0E35AFB4F7F
:102D000080838091800481116DC081E080935B0499
:102D100084EA61C083E08093810410924D0ACFCF92
:102D200080914D0A803208F051C0E0914D0A81E057
:102D30008E0F80934D0A8091BB00F0E0E35DF54F6C
:102D40008083BDCF85EC8093BC001092810480917C
:102D50004D0A803230F4E0914D0AF0E0E35DF54F2A
:102D6000108260914D0A70E0E091090AF0910A0A20
:102D70008DE29AE0199510924D0A35C084E0809357
:102D8000810410922C0A10922B0AE091070AF0910C
:102D9000080A199580912B0A811105C081E0809362
:102DA0002B0A10920B0AE0912C0A81E08E0F80937F
:102DB0002C0AF0E0E55FF54F80818093BB00909195
:102DC0002C0A80912B0A981708F479CF85E8809314
:102DD000BC0009C085EC8093BC001092810403C044
:102DE00010927F04AEDBFF91EF91BF91AF919F9165
:102DF0008F917F916F915F914F913F912F910F90A4
:102E00000BBE0F900FBE0F901F901895DF92EF92A0
:102E1000FF920F931F93CF93DF93EC01D62E7A018D
:102E200089018881803308F067C061E08D2D63D906
:102E30008881E82FF0E09F01220F331FE20FF31F7C
:102E4000EC53F74F9D2D9F732081207CD22ED92AE1
:102E5000D08220E232E02E193F0937FF02C02D5FF9
:102E60003F4F3595279535952795298320E639E0FD
:102E7000201B310B37FF02C02D5F3F4F3595279543
:102E8000359527952A836CE00E94D4219CE0899F88
:102E9000B001112440E050E09B01240F351FF901DF
:102EA000EE0FFF1F2E0F3F1FF901EC53F74F9081DC
:102EB00096FD16C04F5F5F4F4C30510569F781306A
:102EC00021F51092800082E08093810010928500AD
:102ED00010928400B19A80916F00826080936F009D
:102EE000E881F0E0CF01880F991FE80FF91FEC533C
:102EF000F74F8081806480838881DF91CF911F911B
:102F00000F91FF90EF90DF900895823061F410925E
:102F1000900080939100109295001092940088BBCD
:102F200080937100DDCF833069F41092A00082E0BD
:102F30008093A1001092A5001092A40089BB8093F9
:102F40007200CECF8111CCCF1092200182E080930D
:102F5000210110922501109224018ABB80937300F5
:102F6000BFCF1F920F920FB60F9211240BB60F9284
:102F70002F933F934F935F936F937F938F939F9381
:102F8000AF93BF93EF93FF9348E251E064E271E0A7
:102F900080E090E00E949302FF91EF91BF91AF918A
:102FA0009F918F917F916F915F914F913F912F9161
:102FB0000F900BBE0F900FBE0F901F9018951F9291
:102FC0000F920FB60F9211240BB60F922F933F93CF
:102FD0004F935F936F937F938F939F93AF93BF9321
:102FE000EF93FF9348EA50E064EA70E083E090E0FA
:102FF0000E949302FF91EF91BF91AF919F918F91AA
:103000007F916F915F914F913F912F910F900BBEE8
:103010000F900FBE0F901F9018951F920F920FB632
:103020000F9211240BB60F922F933F934F935F9300
:103030006F937F938F939F93AF93BF93EF93FF9380
:1030400048E950E064E970E082E090E00E94930279
:10305000FF91EF91BF91AF919F918F917F916F9170
:103060005F914F913F912F910F900BBE0F900FBE2C
:103070000F901F9018951F920F920FB60F92112468
:103080000BB60F922F933F934F935F936F937F9362
:103090008F939F93AF93BF93EF93FF9348E850E0D4
:1030A00064E870E081E090E00E949302FF91EF916C
:1030B000BF91AF919F918F917F916F915F914F9150
:1030C0003F912F910F900BBE0F900FBE0F901F904E
:1030D00018953FB7F8948091550A9091560AA0919F
:1030E000570AB091580A26B5A89B05C02F3F19F082
:1030F0000196A11DB11D3FBFBA2FA92F982F882778
:10310000820F911DA11DB11DBC01CD0142E0660FD2
:10311000771F881F991F4A95D1F708951F920F9224
:103120000FB60F9211242F933F938F939F93AF93DA
:10313000BF938091500A9091510AA091520AB09188
:10314000530A3091540A23E0230F2D3720F40196BF
:10315000A11DB11D05C026E8230F0296A11DB11DBA
:103160002093540A8093500A9093510AA093520AD4
:10317000B093530A8091550A9091560AA091570A2C
:10318000B091580A0196A11DB11D8093550A9093E4
:10319000560AA093570AB093580ABF91AF919F91D6
:1031A0008F913F912F910F900FBE0F901F90189508
:1031B000789484B5826084BD84B5816084BD85B512
:1031C000826085BD85B5816085BD80916E0081601E
:1031D00080936E00109281008091810082608093C4
:1031E00081008091810081608093810080918000C6
:1031F0008160809380008091B10084608093B100F1
:103200008091B00081608093B000809191008260D5
:1032100080939100809191008160809391008091D2
:1032200090008160809390008091A10082608093E3
:10323000A1008091A10081608093A1008091A000F5
:1032400081608093A00080912101826080932101A0
:103250008091210181608093210180912001816012
:103260008093200180917A00846080937A0080911D
:103270007A00826080937A0080917A0081608093E6
:103280007A0080917A00806880937A001092C10061
:1032900088E180939A0780919B0790919C070E94F8
:1032A0008022C0919A07D0E0CE0101960E94E821C9
:1032B00090939C0780939B07FC01EC0FFD1F1082ED
:1032C00012E0DC011C9325E011962C93AE014250D4
:1032D000510967E772E002960E942E238FEA99E077
:1032E000909329038093280382E099E09093270329
:1032F000809326038EE592E0909325038093240328
:1033000088ED91E0909323038093220386EA9CE06A
:10331000909321038093200382E39BE090931F030B
:1033200080931E038CE693E090932B0380932A03F3
:1033300082E991E090932D0380932C03E0918D0618
:10334000F0918E061083E0918D06F0918E0610822A
:10335000E0918906F0918A061082E0918B06F09147
:103360008C0680E1808310929506E0919106F091A1
:10337000920686E08083E0918F06F091900680812E
:1033800080618083E0918F06F09190068081886053
:103390008083E0918F06F091900680818068808321
:1033A000E0918F06F091900680818F7D80838091DF
:1033B0006F08811140C061E08DE00E947B10C0E089
:1033C00062ED70E080E090E00E94D61061E08DE058
:1033D0000E944D1068E270E080E090E00E94D610FC
:1033E00060E08DE00E944D10CF5FC23049F76AEF78
:1033F00070E080E090E00E94D610C0E062ED70E0E6
:1034000080E090E00E94D61061E08DE00E944D10B7
:1034100068E270E080E090E00E94D61060E08DE00D
:103420000E944D10CF5FC53049F76DE770E080E036
:1034300090E00E94D6108DE796E0909399078093D4
:10344000980790935B0780935A078AE597E00E945C
:10345000310F8AE197E033DB0E9492010E945A0308
:10346000D5E0DD24D39402E010E0EE24E394F12CC7
:10347000809137038823C1F1C0902E03C2FEDDC4C2
:1034800082E00E942510892B09F4D7C4C4E0C3FE52
:1034900006C083E00E942510892B09F0D0C4C4FE29
:1034A00006C084E00E942510892B09F0CAC4C5FE1D
:1034B00006C085E00E942510892B09F0C4C4C6FE11
:1034C00006C086E00E942510892B09F0BEC4C7FE05
:1034D00006C087E00E942510892B09F0B8C440E09F
:1034E0006C2F80E00E94460B80913803882309F4FA
:1034F00048C0C0902F03C0FEACC488E00E942510D5
:10350000892B09F4A6C4C1E0C1FE06C089E00E946F
:103510002510892B09F09FC4C2FE06C08AE00E94D4
:103520002510892B09F099C4C3FE06C08BE00E94C8
:103530002510892B09F093C4C4FE06C08CE00E94BC
:103540002510892B09F08DC4C5FE06C08DE00E94B0
:103550002510892B09F087C4C6FE06C08EE00E94A4
:103560002510892B09F081C4C7FE06C08FE00E9498
:103570002510892B09F07BC440E06C2F81E00E946C
:10358000460B80913903882309F448C0C09030036A
:10359000C0FE6FC480E10E942510892B09F469C424
:1035A000C1E0C1FE06C081E10E942510892B09F00F
:1035B00062C4C2FE06C082E10E942510892B09F078
:1035C0005CC4C3FE06C083E10E942510892B09F06C
:1035D00056C4C4FE06C084E10E942510892B09F060
:1035E00050C4C5FE06C085E10E942510892B09F054
:1035F0004AC4C6FE06C086E10E942510892B09F048
:1036000044C4C7FE06C087E10E942510892B09F03B
:103610003EC440E06C2F82E00E94460B80913A034A
:10362000882309F448C0C0903103C0FE32C488E149
:103630000E942510892B09F42CC4C1E0C1FE06C0EC
:1036400089E10E942510892B09F025C4C2FE06C01D
:103650008AE10E942510892B09F01FC4C3FE06C011
:103660008BE10E942510892B09F019C4C4FE06C005
:103670008CE10E942510892B09F013C4C5FE06C0F9
:103680008DE10E942510892B09F00DC4C6FE06C0ED
:103690008EE10E942510892B09F007C4C7FE06C0E1
:1036A0008FE10E942510892B09F001C440E06C2FA6
:1036B00083E00E94460B80913B03882309F448C0B5
:1036C000C0903203C0FEF5C380E20E942510892B12
:1036D00009F4EFC3C1E0C1FE06C081E20E942510DB
:1036E000892B09F0E8C3C2FE06C082E20E942510C1
:1036F000892B09F0E2C3C3FE06C083E20E942510B5
:10370000892B09F0DCC3C4FE06C084E20E942510A8
:10371000892B09F0D6C3C5FE06C085E20E9425109C
:10372000892B09F0D0C3C6FE06C086E20E94251090
:10373000892B09F0CAC3C7FE06C087E20E94251084
:10374000892B09F0C4C340E06C2F84E00E94460B33
:1037500080913C03882309F448C0C0903303C0FE25
:10376000B8C388E20E942510892B09F4B2C3C1E0D6
:10377000C1FE06C089E20E942510892B09F0ABC367
:10378000C2FE06C08AE20E942510892B09F0A5C35B
:10379000C3FE06C08BE20E942510892B09F09FC34F
:1037A000C4FE06C08CE20E942510892B09F099C343
:1037B000C5FE06C08DE20E942510892B09F093C337
:1037C000C6FE06C08EE20E942510892B09F08DC32B
:1037D000C7FE06C08FE20E942510892B09F087C31F
:1037E00040E06C2F85E00E94460B80913D038823CA
:1037F00009F448C0C0903403C0FE7BC380E30E943C
:103800002510892B09F475C3C1E0C1FE06C081E310
:103810000E942510892B09F06EC3C2FE06C082E308
:103820000E942510892B09F068C3C3FE06C083E3FC
:103830000E942510892B09F062C3C4FE06C084E3F0
:103840000E942510892B09F05CC3C5FE06C085E3E4
:103850000E942510892B09F056C3C6FE06C086E3D8
:103860000E942510892B09F050C3C7FE06C087E3CC
:103870000E942510892B09F04AC340E06C2F86E096
:103880000E94460B80913E03882309F448C0C090F3
:103890003503C0FE3EC388E30E942510892B09F43E
:1038A00038C3C1E0C1FE06C089E30E942510892B00
:1038B00009F031C3C2FE06C08AE30E942510892B9D
:1038C00009F02BC3C3FE06C08BE30E942510892B91
:1038D00009F025C3C4FE06C08CE30E942510892B85
:1038E00009F01FC3C5FE06C08DE30E942510892B79
:1038F00009F019C3C6FE06C08EE30E942510892B6D
:1039000009F013C3C7FE06C08FE30E942510892B60
:1039100009F00DC340E06C2F87E00E94460B8091B8
:103920003F038823C1F1C0903603C0FE02C380E488
:103930000E942510892B09F4FCC2C1E0C1FE06C01B
:1039400081E40E942510892B09F0F5C2C2FE06C051
:1039500082E40E942510892B09F0EFC2C3FE06C045
:1039600083E40E942510892B09F0E9C2C4FE06C039
:1039700084E40E942510892B09F0E3C2C5FE06C02D
:1039800085E40E942510892B09F0DDC240E06C2FF0
:1039900088E00E94460B8091980790919907DC017E
:1039A000ED91FC910084F185E02D1995892B09F4A6
:1039B000CEC18091980790919907DC01ED91FC911F
:1039C0000284F385E02D19959C018F3FBFEF9B0783
:1039D00011F3982F80916507882309F492C0973FCF
:1039E00009F07EC010926507A0915D07B0915E0757
:1039F0006C916137C1F1693709F05CC0E0919207C1
:103A0000F0919307309739F280916607909167079C
:103A10008330910538F420E030E040E050E060E091
:103A200070E01BC0BD016D5F7F4F03970E94F30FD5
:103A3000BC016D5F7F4F80E00E94C40FE0915D0785
:103A4000F0915E079F012D5F3F4F428150E0618101
:103A500070E0E0919207F091930780917407909144
:103A60007507199598CF80918E0790918F07892BB4
:103A700009F491CFBD016F5F7F4F809166079091F0
:103A8000670701970E94F30FBC016F5F7F4F80E0D3
:103A90000E94C40F60915D0770915E076F5F7F4F5A
:103AA000E0918E07F0918F0780917A0790917B07C4
:103AB000199571CFE0919007F0919107309709F433
:103AC0006ACF9D012F5F3F4F409166075091670776
:103AD0004150510980917C0790917D0719955BCFEA
:103AE0006091660770916707822F0E94C40F8091D2
:103AF0006607909167070196909367078093660722
:103B00004ACF60916307709164076115710509F4EC
:103B1000AFC027FDADC06150710970936407609319
:103B20006307822F0E94C40F8091630790916407FE
:103B3000892B09F030CF80916107882309F42BCFBE
:103B4000803D09F47FC030F4803939F1803C09F4BC
:103B500066C08BC0843FE1F1853F09F44DC0803ED3
:103B600009F083C0E0918007F0918107309709F454
:103B70007CC0A0915D07B0915E078C9111964C912D
:103B800050E090E8899F400D511D1124609162071B
:103B9000809168079091690767C0E0918207F09172
:103BA0008307309709F461C0A0915D07B0915E076B
:103BB0008C9111964C9150E0A0E88A9F400D511DC8
:103BC00011246091620780916A0790916B074CC045
:103BD000E0918807F0918907309709F446C0A091D9
:103BE0005D07B0915E074C9150E011966C91809109
:103BF00070079091710738C0E0918A07F0918B07A8
:103C0000309799F1A0915D07B0915E074C9150E01B
:103C100011966C91809172079091730725C0E09185
:103C20008407F0918507309701F1A0915D07B0916D
:103C30005E074C9150E06091620780916C07909113
:103C40006D0712C0E0918607F0918707309769F001
:103C5000A0915D07B0915E074C9150E060916207C2
:103C600080916E0790916F0719951092610793CE1E
:103C7000903F30F4822F8F7080936207922F907F55
:103C8000903F79F158F4903C29F118F49039E9F01B
:103C900082CE903DF9F0903EC1F07DCE993F09F47F
:103CA00049C028F48CE0890F823078F074CE9F3FB1
:103CB00009F071CE109264071092630710926107A9
:103CC0001092620780E090E013C0109364070093A5
:103CD000630704C0F0926407E09263079093610762
:103CE0005ACED0926507109267071092660753CE9E
:103CF00020915F07309160078217930748F4E091A5
:103D00005D07F0915E07E80FF91F10820196F0CF72
:103D1000109265071092670710926607E091960768
:103D2000F0919707309709F436CE80917E079091F5
:103D30007F070BC0E0919407F0919507309709F445
:103D40002ACE8091760790917707199524CE8FB768
:103D5000F8944091500A5091510A6091520A709122
:103D6000530A8FBF80906A0390906B03A0906C03FE
:103D7000B0906D032091010230910202C901A0E0D0
:103D8000B0E0481959096A097B0984179507A60705
:103D9000B70708F04FC0880D991DAA1DBB1D809361
:103DA0006A0390936B03A0936C03B0936D038DE94A
:103DB000A82E87E0B82ECAECC031B8F4F501808196
:103DC000823099F480916803909169030C2E02C0AF
:103DD000959587950A94E2F780FF07C08C2F0E9483
:103DE000B710BC018C2F0E94770ECF5FFFEFAF1A88
:103DF000BF0AC03109F78091000287FD1BC0C0E0F7
:103E00002C2F30E080910002082E000C990B8217B5
:103E1000930784F0D29FF001D39FF00D1124E05C52
:103E2000FC4F618172812481438180810E94890BD2
:103E3000CF5FE6CF0E9428121BCBC0E028CBC86022
:103E40002ECBC06134CBC0623ACBC06440CBC068DB
:103E500046CBC0E059CBC2605FCBC46065CBC860C5
:103E60006BCBC06171CBC06277CBC0647DCBC068C7
:103E700083CBC0E096CBC2609CCBC460A2CBC860B1
:103E8000A8CBC061AECBC062B4CBC064BACBC068B3
:103E9000C0CBC0E0D3CBC260D9CBC460DFCBC8609D
:103EA000E5CBC061EBCBC062F1CBC064F7CBC0689F
:103EB000FDCBC0E010CCC26016CCC4601CCCC86086
:103EC00022CCC06128CCC0622ECCC06434CCC06887
:103ED0003ACCC0E04DCCC26053CCC46059CCC86071
:103EE0005FCCC06165CCC0626BCCC06471CCC06873
:103EF00077CCC0E08ACCC26090CCC46096CCC8605D
:103F00009CCCC061A2CCC062A8CCC064AECCC0685E
:103F1000B4CCC0E0C7CCC260CDCCC460D3CCC86048
:103F2000D9CCC061DFCCC062E5CCC064EBCCC0684A
:103F3000F1CCC0E003CDC26009CDC4600FCDC86034
:103F400015CDC0611BCDC06221CD1092A904109285
:103F5000A80488EE93E0A0E0B0E08093AA049093D8
:103F6000AB04A093AC04B093AD042DE032E03093E9
:103F7000A7042093A60445E351E05093B304409373
:103F8000B20444E351E05093B5044093B40440E3D9
:103F900051E05093B7044093B60441E351E050938D
:103FA000B9044093B80442E351E05093BB044093FA
:103FB000BA0446E351E05093BD044093BC04109210
:103FC000BF041092C0041092C1041092C204109257
:103FD0004605109245058093470590934805A093A8
:103FE0004905B0934A05309344052093430545EDB8
:103FF00050E05093500540934F0544ED50E05093EE
:1040000052054093510540ED50E0509354054093C4
:10401000530541ED50E0509356054093550542ED50
:1040200050E0509358054093570546ED50E05093AB
:104030005A054093590510925C0510925D05109247
:104040005E0510925F051092E3051092E2058093E1
:10405000E4059093E505A093E605B093E70530935A
:10406000E1052093E0054DEC50E05093ED054093C1
:10407000EC054CEC50E05093EF054093EE0548EC16
:1040800050E05093F1054093F00549EC50E0509317
:10409000F3054093F2054AEC50E05093F505409348
:1040A000F4054EEC50E05093F7054093F60510925E
:1040B000F9051092FA051092FB051092FC0510927A
:1040C000800610927F068093810690938206A093CB
:1040D0008306B093840630937E0620937D0625ECFC
:1040E00030E030938A062093890624EC30E0309348
:1040F0008C0620938B0620EC30E030938E062093C4
:104100008D0621EC30E03093900620938F0622EC50
:1041100030E0309392062093910626EC30E0309305
:10412000940620939306109296061092970610928A
:104130009806109299062AE137E010925B071092D8
:104140005A0730935E0720935D0740E450E0509398
:10415000600740935F071092610710926207109208
:104160006407109263071092650710926707109218
:104170006607109269071092680710926B071092F9
:104180006A0710926D0710926C0710926F071092D9
:104190006E071092710710927007109273071092B9
:1041A0007207109279071092780710927B0710928D
:1041B0007A0710927D0710927C0710927F07109269
:1041C0007E0710928D0710928C0710925C07109258
:1041D0009A0710929C0710929B0710926F0847E96C
:1041E00052E150938107409380074DE852E150938C
:1041F0008307409382074FE652E15093850740932F
:10420000840745E652E1509387074093860743E8C9
:1042100052E1509389074093880749E752E1509350
:104220008B0740938A0744E652E150938F074093EF
:104230008E0749E552E1509391074093900741ED75
:1042400055E150939307409392073093750720935D
:10425000740741E653E150939507409394073093D8
:1042600077072093760721E532E130939707209373
:1042700096071092730810927208809374089093B6
:104280007508A0937608B09377088FE192E0909339
:10429000710880937008ECE7F8E0118210821382B5
:1042A0001282399628E0E43CF207B9F7809154096C
:1042B000A5E5B9E09FEF48EB5BE0803378F48C93A1
:1042C000282F30E0F901EE0FFF1F2E0F3F1FF901DD
:1042D000EC53F74F528341838F5F01C09C93139639
:1042E00029E0A53EB20749F7809354090895052EA9
:1042F00097FB16F400940FD057FD05D024D007FC8F
:1043000002D046F408C050954095309521953F4F16
:104310004F4F5F4F089590958095709561957F4FB1
:104320008F4F9F4F089531D0A59F900DB49F900D52
:10433000A49F800D911D11240895B7FFF4CFF3DFE2
:10434000821B930B0895A1E21A2EAA1BBB1BFD0131
:104350000DC0AA1FBB1FEE1FFF1FA217B307E40764
:10436000F50720F0A21BB30BE40BF50B661F771FBC
:10437000881F991F1A9469F760957095809590959C
:104380009B01AC01BD01CF010895A29FB001B39F75
:10439000C001A39F700D811D1124911DB29F700D4E
:1043A000811D1124911D0895991B79E004C0991F66
:1043B000961708F0961B881F7A95C9F7809508957F
:1043C000EE0FFF1F881F8BBF0790F691E02D199409
:1043D0000F931F93CF93DF938230910510F482E007
:1043E00090E0E0915B0AF0915C0A20E030E0A0E010
:1043F000B0E0309719F14081518102811381481753
:104400005907C8F08417950769F4109731F0129690
:104410000C93129713961C9327C000935B0A10937A
:104420005C0A22C02115310519F04217530718F410
:104430009A01BD01EF01DF01F801DBCF2115310544
:10444000F9F0281B390B2430310580F48A819B81D7
:104450006115710521F0FB019383828304C0909361
:104460005C0A80935B0AFE01329644C0FE01E20FB3
:10447000F31F8193919322503109398328833AC0E5
:104480002091590A30915A0A232B41F420910502B8
:104490003091060230935A0A2093590A2091030260
:1044A000309104022115310541F42DB73EB74091FA
:1044B000070250910802241B350BE091590AF09134
:1044C0005A0AE217F307A0F42E1B3F0B28173907EF
:1044D00078F0AC014E5F5F4F2417350748F04E0F60
:1044E0005F1F50935A0A4093590A8193919302C0D7
:1044F000E0E0F0E0CF01DF91CF911F910F9108959F
:10450000CF93DF93009709F481C0FC0132971382A7
:104510001282A0915B0AB0915C0A109781F420810D
:104520003181820F931F2091590A30915A0A28171E
:10453000390751F5F0935A0AE093590A67C0ED0123
:1045400020E030E0CE17DF0740F44A815B819E0116
:1045500041155105F1F0EA01F5CFD383C2834081C3
:104560005181840F951FC817D90759F48881998103
:10457000840F951F0296918380838A819B81938308
:1045800082832115310529F4F0935C0AE0935B0ADC
:104590003DC0E901FB83EA8349915991C40FD51FBE
:1045A000EC17FD0761F480819181840F951F0296BD
:1045B000E90199838883828193819B838A83E0E0E8
:1045C000F0E012968D919C911397009719F0FD01E0
:1045D000DC01F7CF8D919C9111979D012E5F3F4F8C
:1045E000820F931F2091590A30915A0A28173907D0
:1045F00069F4309729F410925C0A10925B0A02C0A9
:1046000013821282B0935A0AA093590ADF91CF9174
:10461000089581E090E0F89430C0FB01DC0102C015
:1046200001900D9241505040D8F7089568177907CE
:1046300068F4FB01DC01E40FF51FA40FB51F02C0F5
:1046400002900E9241505040D8F70895E6CFDC0119
:1046500001C06D9341505040E0F70895FB01DC012B
:104660004150504048F001900D920020C9F701C020
:0E4670001D9241505040E0F70895F894FFCF9E
:10467E00FF130000005D0A800000000000BB110E59
:10468E001138110712691147115B11000000002D3E
:10469E001301135C13D512F912E512D6122F5573AE
:1046AE006572732F6367727567613230302F4465A0
:1046BE0076656C6F706D656E742F6E6F64652D70A0
:1046CE006978656C2F6669726D776172652F627598
:1046DE00696C642F6E6F64655F706978656C5F6678
:1046EE0069726D6174612F6E6F64655F7069786554
:1046FE006C5F6669726D6174612E696E6F00313028
:10470E002D6269742061646472657373696E6720CB
:10471E006E6F7420737570706F7274656400746F51
:10472E006F206D616E7920717565726965730049D0
:10473E0032433A20546F6F206D616E792062797426
:10474E006573207265636569766564004932433A24
:10475E0020546F6F206665772062797465732072BE
:10476E0065636569766564004D6178207365727660
:10477E006F7320617474616368656400556E6B6E4F
:0E478E006F776E2070696E206D6F646500009D
:00000001FF
