:1000000032C1000061C100005FC100005DC100009D
:100010005BC1000059C1000057C1000055C100007C
:1000200053C100000C94DF140C94DF140C94DF1403
:100030004BC1000049C1000047C1000045C100009C
:1000400043C100000C946B183FC100003DC100008B
:100050003BC1000039C1000037C100000C94BE183C
:1000600033C100000C94B6140C948D142DC1000003
:100070002BC1000029C1000027C1000025C10000DC
:100080000C943D1821C100001FC100001DC10000DB
:100090000C9464140C943B1417C100000C940516C6
:1000A00013C1000011C100000C940F180DC1000015
:1000B0000BC1000009C1000007C100000C94E1174A
:1000C00003C1000001C10000FFC000000C94121425
:1000D0000C94E913F9C000000C94C0130C9497130E
:1000E000F3C0000025032A032F0339034303BC0395
:1000F0004D0355035D03670371037B038A03940378
:10010000BC039E03A803B203F1051606DF0529060A
:10011000440676066B067606760676069F06000689
:100120006C0E6F0E5E0E620E680EA60E730E770ECC
:100130007D0E810E850E8B0E8F0E930EA60E990EE0
:100140009D0EA10E00002100240027002A002D0092
:100150003000330001010000040107010A01000022
:100160002200250028002B002E003100340002015F
:100170000000050108010B010000200023002600FB
:1001800029002C002F0032000001000003010601AD
:10019000090105050505070508080808020202020D
:1001A0000A0A080804040404010101010101010113
:1001B0000303030303030303040707070C0C0C0CDE
:1001C0000C0C0C0C020202020606060606060606C7
:1001D0000B0B0B0B0B0B0B0B010210202008081054
:1001E00020401020408002010201080402010102A7
:1001F0000408102040808040201008040201800480
:1002000002018040201008040201080402010102DA
:1002100004081020408001020408102040800000E3
:100220000A0B02090C0D0E08070304010000000070
:1002300000000000000000000000000000000000BE
:10024000000000000000000000001211100000007B
:10025000000000000000000000000000000000009E
:1002600000000000D51F11241FBECFEFD1E2DEBF7A
:10027000CDBF00E00CBF13E0A0E0B2E0EEEDF6E48D
:1002800000E00BBF02C007900D92AE31B107D9F765
:100290002AE0AEE1B3E001C01D92AE35B207E1F74E
:1002A00011E0C3E3D1E000E006C021970109802FEF
:1002B000FE010E941022C233D10780E00807A9F78F
:1002C0000E9408190C946D239BCECF93803180F54A
:1002D000409168035091690321E030E0672B81F47D
:1002E000B90102C0660F771F8A95E2F7CB018095AE
:1002F000909584239523909369038093680318C095
:10030000082E02C0220F331F0A94E2F7242B352B4C
:10031000309369032093680390913204911108C0CF
:10032000C82F0E94E710BC018C2FCF910C94A70E10
:10033000CF9108958F929F92AF92BF92CF92DF920A
:10034000EF92FF920F931F93CF93DF93893008F0C2
:100350009AC0982F990F990F990F58E0C52EC90E82
:1003600096E49C1510F446E4C42E8B01C82FCC0FE4
:10037000CC0FCC0FDC2ED0E0992493945B01BB24EE
:10038000DC1430F58EEF8D0D8434F8F44D2D50E0F3
:10039000FA01E256F84F20812230B8F4892D90E01E
:1003A0008A219B2188248394009709F4812C7A0167
:1003B000EE0CFF1C213009F056C0D929F701EC5191
:1003C000F84F882D90E091838083990CD394D8CFF7
:1003D000D0FF05C0602F61708C2F0E947D10D1FF6F
:1003E00006C0602F627081E08C0F0E947D10D2FFEA
:1003F00006C0602F647082E08C0F0E947D10D3FFD6
:1004000006C0602F687083E08C0F0E947D10D4FFBF
:1004100006C0602F607184E08C0F0E947D10D5FFB4
:1004200006C0602F607285E08C0F0E947D10D6FFA1
:1004300006C0602F607486E08C0F0E947D10D7FF8D
:1004400022C0602F607887E08C0FDF91CF911F91E1
:100450000F91FF90EF90DF90CF90BF90AF909F9063
:100460008F900C947D10892B09F4A8CFF701EC51E3
:10047000F84F80819181019709F4A0CF62E08D2D22
:100480000E94AB109BCFDF91CF911F910F91FF90F6
:10049000EF90DF90CF90BF90AF909F908F90089596
:1004A0008F929F92AF92BF92CF92DF92EF92FF9284
:1004B0000F931F93CF93DF93EB01863408F068C14D
:1004C000082F10E0F801E256F84F9081933009F4BC
:1004D00090C0943009F05CC18250843408F051C15E
:1004E000F801EE51FC4FE080F12C6701CC0CDD1CD3
:1004F000603282E078070CF042C077FD05C0653BB2
:10050000710524F4DB0104C0A0E001C0A4EBB0E05D
:10051000F601EE0DFF1DEA5AF64F818128E830E022
:100520004901881A910887FD9394880C991C880CBE
:10053000991C092C000CAA08BB08828128E532E02E
:10054000281B310987FD3395220F331F220F331FDC
:10055000A901330F660B770B9A01AB0128193909F2
:100560004A095B090E94CD2124EB30E040E050E0D5
:100570000E94A721820E931EA41EB51E01C04B012E
:10058000F601EE0DFF1DEA5AF64F2081203308F0E8
:10059000F8C0318188E890E0831B910937FD93957D
:1005A000880F991F880F991F8816990684F08281F9
:1005B00048E552E0481B510987FD5395440F551FEC
:1005C000440F551FC401481559050CF4CA01029780
:1005D000880F991F4FB7F89430E0F901EE0FFF1F15
:1005E0002E0F3F1FF901EB53F74F928381834FBFCB
:1005F000C8C0F82E8EEF800F8C3028F084ED800F6D
:10060000833008F0BEC061E08F2D0E94AB102097B0
:1006100011F460E004C0CF3FD10529F461E08F2DD3
:100620000E947D10AEC0F801E25EFD4FE4918E2F76
:1006300090E0FC013197E231F10508F09DC0882778
:10064000EE58FF4F8F4F0C94102284B5806884BD04
:10065000C7BD97C084B5806284BDC8BD92C080917B
:100660008000806880938000D0938900C0938800C8
:1006700088C080918000806280938000D0938B003E
:10068000C0938A007EC08091800088608093800043
:10069000D0938D00C0938C0074C08091B0008068AE
:1006A0008093B000C093B3006CC08091B0008062B2
:1006B0008093B000C093B40064C0809190008068C3
:1006C00080939000D0939900C09398005AC0809175
:1006D0009000806280939000D0939B00C0939A001A
:1006E00050C080919000886080939000D0939D00CE
:1006F000C0939C0046C08091A00080688093A000B9
:100700008091A0008F7B8093A000D093A900C0931C
:10071000A80037C08091A00080628093A000D09391
:10072000AB00C093AA002DC08091A0008860809388
:10073000A000D093AD00C093AC0023C080912001F5
:10074000806880932001D0932901C093280119C0AB
:1007500080912001806280932001D0932B01C0936F
:100760002A010FC080912001886080932001D093DE
:100770002D01C0932C0105C0C038D1050CF04ECF1F
:1007800048CF000F111FF801EC51F84FD183C083FF
:10079000DF91CF911F910F91FF90EF90DF90CF905D
:1007A000BF90AF909F908F9008959EEF980F9434D4
:1007B00080F4E82FF0E0DF01A256B84F9C91913011
:1007C00041F4EE0FFF1FEC51F84F608371830C94DE
:1007D0007D100895FF920F931F93CF93DF931F9285
:1007E0001F92CDB7DEB7082F10E0F801E25DFC4F95
:1007F0009081F62EF922085D1B4F411104C0F801CB
:100800009081F91611F12F2D30E03A832983A091C0
:100810005B07B0915C071097B1F0682F6F7060694B
:10082000ED91FC9111970190F081E02DCD0119958A
:1008300022E030E0AE014F5F5F4F62E070E08BE599
:1008400097E00E94E914F801F0820F900F90DF9179
:10085000CF911F910F91FF900895EF92FF920F9308
:100860001F93CF93DF93D82F8B01C42FF22E6F3FAE
:100870008FEF7807F9F081E080938304D093A5048B
:10088000109284041092A60481E798E00E945D1300
:100890008F2D0E94980F8091DE039091DF038230AC
:1008A000910550F0880F991F880F991F05970197A0
:1008B000F1F702C000E010E0809182048111FCCFCA
:1008C0009C2FC13208F090E281E0809382048093F3
:1008D00081042FEF2093800410927F04290F20932E
:1008E0007E0480935D0480915D042D2F220F822B66
:1008F00080935D0480915C04813061F410925C040B
:1009000080915D048093BB008091BC0083FDF8CF93
:1009100085EC01C085EE8093BC008091820481301B
:10092000E1F380917F04891710F490917F04EEE544
:10093000F4E0A6EEB9E080E0891721F021912D9333
:100940008F5FFACF1092070A8093060AEC2EF12CE3
:1009500090E0E816F9061CF48FE892E005C08E15C9
:100960009F0524F48CEA92E00E94560FD0939E03D8
:1009700000939F030EE913E0C8018E5993408E1532
:100980009F057CF40F5F1F4F9091060A8091070A24
:10099000981739F081E798E00E941513F8018183D8
:1009A000EBCFCE5F6C2F70E04EE953E087E7DF912D
:1009B000CF911F910F91FF90EF900C940A0FA82FE9
:1009C000B0E0AE51BC4F9C91292F30E0F901EE0F01
:1009D000FF1F2E0F3F1FF901EA5AF64FE081F0E0AA
:1009E0009F01220F331FE20FF31FEB53F74F80815C
:1009F0008F7B80838091E003981306C0992379F060
:100A000091509093E0030BC0882349F0E091E103FB
:100A1000EF5FE093E103F0E0E359FC4F90838FEF49
:100A20008C930895DB019091E0039033A8F5309109
:100A3000E103682F70E0332369F0E32FF0E0E3591E
:100A4000FC4F8081FB01EE51FC4F8083315030938D
:100A5000E10307C0FB01EE51FC4F90839F5F909331
:100A6000E003FB01EE51FC4F808190E09C01220FDE
:100A7000331F820F931F1A161B0634F41416150623
:100A80001CF49A01AD0104C020E639E040E252E0D6
:100A90008A5A964F0C94361788EC92E00C94560FB5
:100AA0008F929F92BF92CF92DF92EF92FF920F931D
:100AB0001F93CF93DF93C82ED12CE601C55ED84F8C
:100AC000FE01ED57FF4F90819F3709F438C19630F2
:100AD00041F490913104992321F06630710509F0B9
:100AE00014C17B01182F0EEF080F0434F8F46430A2
:100AF0007105E1F0F601EE51FC4F80818033B0F4D6
:100B000090E0FC01EE0FFF1F8E0F9F1FFC01EA5AC1
:100B1000F64F808190E0FC01EE0FFF1F8E0F9F1FAC
:100B2000FC01EB53F74F808186FDF5C05AECB52EE2
:100B3000B10E8FE08B1550F061E070E082E0E816B6
:100B4000F10411F060E070E08B2DBFDB043418F588
:100B5000E12FE695E695E695212F2770F0E0E25D1E
:100B6000FC4FE114F10421F08BE0E816F10449F4A4
:100B700081E090E001C0880F2A95EAF79081892BE7
:100B800009C081E090E001C0880F2A95EAF78095BE
:100B90009081892380834601880C991CF401EC51D3
:100BA000F84F118210828CE0E816F10408F09EC024
:100BB000F7018827EC57FF4F8F4F0C9410228FE0DE
:100BC0008B1508F4BCC0043420F460E0812F0E942F
:100BD000AB10CD57DF4F88818F3709F4B0C082E06A
:100BE00083C0043408F0ABC060E0812F0E94AB10DA
:100BF000CD57DF4F88818F3709F4A1C018829FC07D
:100C0000043408F09CC062E0812F0E94AB10CD57E5
:100C1000DF4F88818F3711F08BE08883F401EC512E
:100C2000F84F81E090E09183808389C0043408F01C
:100C300086C060E0812F0E947D1061E0812F0E94BC
:100C4000AB10CD57DF4F88818F3709F478C081E032
:100C50004BC00C3028F084ED810F833008F06FC05A
:100C600061E0812F0E94AB1061E0812F0E94AB10E8
:100C700060E0812F0E947D10CD57DF4F88818F3734
:100C800009F45DC083E030C0043408F058C0CD578B
:100C9000DF4F88818F3711F084E08883F601EE51B1
:100CA000FC4F80818F3FD1F190E0FC01EE0FFF1FE0
:100CB0008E0F9F1FFC01EA5AF64F808190E0FC01E5
:100CC000EE0FFF1F8E0F9F1FFC01EB53F74F80812C
:100CD00086FD35C023C01451123088F5CD57DF4F43
:100CE00088818F3761F186E0888329C08CED92E09E
:100CF000DF91CF911F910F91FF90EF90DF90CF90F8
:100D0000BF909F908F900C94560F109231049FEFDC
:100D100090930002E6CE812F52DE08CF4FEF5FEFB7
:100D20006FEF7FEF812FDF91CF911F910F91FF9098
:100D3000EF90DF90CF90BF909F908F9073CEDF9118
:100D4000CF911F910F91FF90EF90DF90CF90BF90C8
:100D50009F908F900895DC0170E0FB01E852FE4FF8
:100D6000E4911896EC9318976E567E4FFB01849190
:100D7000E82FF0E0EE0FFF1FE25AFE4F85919491AD
:100D800015969C938E931497FB016491E62FF0E0E7
:100D9000EE0FFF1FEC5BFE4F8591949117969C938D
:100DA0008E93169708958F929F92AF92BF92CF9293
:100DB000DF92EF92FF9220910302FC012E9FC0016F
:100DC0002F9F900D1124F0915704209155043091DC
:100DD0005604E0915404B09153044B01AA24BB245F
:100DE000A0915204C52ED62EE72EFF24820F931F0A
:100DF0009C012E0F311DFF2381F0F9017083FC014E
:100E0000EB0FF11D8082FC01EA0FF11DC0822091E1
:100E10005104FC01E20FF11D09C0F9018082FC01BF
:100E2000EB0FF11DC082FC01EA0FF11D408380E051
:100E3000FF90EF90DF90CF90BF90AF909F908F90FA
:100E400008950F931F93CF93DF9381E08093320433
:100E500080913104882329F0109231048FEF809320
:100E60000002E7E3F3E0CEE2D3E0A8E2B4E01192BF
:100E700019921D9283E0E034F807C9F702EE13E0FF
:100E8000C0E0DFEF8AEC8C0F803118F462E070E094
:100E900006C08EEF8C0F843420F461E070E08C2F5C
:100EA000FFDDF801D1938F01CF5FC63459F710925F
:100EB0006903109268031092E1031092E00310920C
:100EC0003204DF91CF911F910F9108950F931F93DB
:100ED000CF93DF93893008F079C0282F30E0F901F3
:100EE000E95CFC4F6083672B09F470C0082FF9019F
:100EF000E25DFC4F1081D22FDD0FDD0FDD0F8EEF95
:100F00008D0F843408F052C010FF50C08D2F0E9406
:100F10005510892B09F44AC0C1E08FEF8D0F84343E
:100F200048F411FF07C081E08D0F0E945510892BF6
:100F300009F03EC012FF06C082E08D0F0E945510DE
:100F4000892BC1F513FF06C083E08D0F0E94551059
:100F5000892B91F514FF06C084E08D0F0E94551077
:100F6000892B61F515FF06C085E08D0F0E94551095
:100F7000892B31F5D03491F016FF06C086E08D0F35
:100F80000E945510892BF1F4DF3341F017FF06C0A2
:100F900087E08D0F0E945510892BB1F441E06C2F32
:100FA000802FDF91CF911F910F9114CCC0E0B5CF6E
:100FB000C260C0CFC460C6CFC860CCCFC061D2CF42
:100FC000C062D8CFC064E0CFC068E8CFDF91CF91D6
:100FD0001F910F910895CF92DF92EF92FF920F939E
:100FE0001F93CF93DF936C018B017A01EC01C85AF8
:100FF000DB4F888187FF04C0FB011182108224C06F
:101000002CE02C9DC0012D9D900D11242881AC0158
:10101000420F511D27FD5A952091550930E0421786
:10102000530794F42881AC01420F511D27FD5A95B6
:101030009A01FA01EE0FFF1F2E0F3F1FF901EB532C
:10104000F74F208126FD19C088818F5F88832CE0AF
:101050002C9DC0012D9D900D11242881AC01420FC3
:10106000511D27FD5A952091550930E0421753072D
:10107000BCF428812C3044F113C02881820F911DCB
:1010800027FD9A95FC01EE0FFF1F8E0F9F1FFC019D
:10109000EB53F74F808160E08F730E947D10D4CFB7
:1010A000F80180819181049680349C4918F480E491
:1010B0009CE904C0F801808191810496F701918335
:1010C00080838FEF888344C0F8014081518128815B
:1010D000BC01620F711D27FD7A959B01FB01EE0F8C
:1010E000FF1F2E0F3F1FF901EB53F74F2181328174
:1010F000240F351FF701318320832881AC01420F73
:10110000511D27FD5A959A01FA01EE0FFF1F2E0F70
:101110003F1FF901EB53F74F208126FF19C02881AB
:10112000820F911D27FD9A95FC01EE0FFF1F8E0F78
:101130009F1FFC01EB53F74F808161E08F73DF91BC
:10114000CF911F910F91FF90EF90DF90CF90D5C777
:10115000DF91CF911F910F91FF90EF90DF90CF9093
:1011600008951092500410924F0410924E04EEE332
:10117000F4E0A6E3B4E0119211921D9284E0EE3403
:10118000F807C9F708955F926F927F928F929F92AE
:10119000AF92BF92CF92DF92EF92FF920F931F9385
:1011A000CF93DF93EA018F3609F4C0C1162F803741
:1011B00078F4893609F46EC220F4813509F479C2D5
:1011C00060C58B3609F4DEC18D3609F419C259C5E4
:1011D000863761F020F4803709F447C152C588375B
:1011E00009F4F1C08A3709F48DC14BC52981922FCA
:1011F000987125FF03C08DEE92E061C0888131E0D7
:1012000026FB222720F92327983061F160F4911101
:1012100038C5309383048093A504109284041092FF
:10122000A60402E007C0903109F443C0983109F4E4
:101230007DC027C5011778F4FE01E00FF11D618123
:101240006795662767958081680F81E798E00E941F
:101250005D130E5FEFCF81E06BD683E191E00197E4
:10126000F1F70FC54B816A81163069F470E030E800
:10127000439F600D711D11244D814795442747956B
:101280009C81490F06C0479544274795460F6FEF4D
:101290007FEFDF91CF911F910F91FF90EF90DF9043
:1012A000CF90BF90AF909F908F907F906F905F9006
:1012B000D4CAE0910002E73094F08DE093E0DF9132
:1012C000CF911F910F91FF90EF90DF90CF90BF9043
:1012D000AF909F908F907F906F905F90E7C59B81BC
:1012E0003A81663071F4632F70E040E8949F600D9E
:1012F000711D11249D819795992797954C81940F85
:1013000006C0979599279795930F6FEF7FEFEF5F43
:10131000E093000235E0E302F0011124E05CFC4FB1
:1013200080837283618393832483ABC42091000202
:1013300012163CF490E0622F022E000C770B35E081
:101340000FC08FEF809300029CC4349FF001359F43
:10135000F00D1124E05CFC4F4081841739F09F5F51
:10136000492F50E06417750784F790E085E022C0AC
:101370009830F8F4FA0131968E9FD0018F9FB00D0E
:101380001124A05CBC4F3C91849FF001859FF00D1F
:101390001124E05CFC4F308311964D915C911297C3
:1013A0005283418313963C911397338314963C9157
:1013B00034839F5F492F50E064177507CCF62150A6
:1013C000209300025EC42981888190E040E8249F38
:1013D000800D911D1124009721F09093DF038093DD
:1013E000DE038091310481114CC4C0E08CEE8C0F7F
:1013F000823020F466E070E08C2F52DBCF5FC63481
:10140000A9F781E0809331041092070A1092060A2E
:10141000109284041092A604109282048093810496
:1014200010925C0461E084E168D661E085E165D6F4
:101430008091B9008E7F8093B9008091B9008D7F33
:101440008093B90088E48093B80085E48093BC0061
:1014500083E093E19093090A8093080A84E093E182
:1014600090930B0A80930A0A0CC4653008F409C4EF
:1014700018818EEF810F843408F003C40981EA805B
:10148000FB80CC81E12FF0E0EE51FC4F8081803376
:10149000B0F490E0FC01EE0FFF1F8E0F9F1FFC01C8
:1014A000EA5AF64F808190E0FC01EE0FFF1F8E0F8D
:1014B0009F1FFC01EB53F74F808186FDC5C34F2D65
:1014C00050E080E8C89F400D511D1124602F70E04E
:1014D00090E8E99E600D711D1124812FA3DA64E06C
:1014E00070E0812FDF91CF911F910F91FF90EF90CE
:1014F000DF90CF90BF90AF909F908F907F906F9034
:101500005F90CECA623008F4BCC32981888190E024
:10151000E0E82E9F800D911D1124009711F481E0C9
:1015200090E09093020280930102ABC3623008F412
:10153000A8C3898190E0623091F02A81F0E82F9F62
:1015400090011124822B932B633049F02B8130E0E2
:1015500030E4239F302D22271124822B932BBC01B2
:101560008881DF91CF911F910F91FF90EF90DF90D5
:10157000CF90BF90AF909F908F907F906F905F9033
:101580000C94500280EFC7D48CE6C5D4CEEF8CEC1F
:101590008C0F803128F482E0BED48AE0BCD402C033
:1015A000CC3020F086ED8C0F833020F483E0B3D470
:1015B00088E0B1D4C43420F484E0ADD48EE0ABD460
:1015C0008EEE8C0F823020F486E0A5D481E0A3D487
:1015D0008FE7A1D4CF5FC434F9F0C434C0F680E003
:1015E0009AD481E098D48BE096D481E094D481E0C1
:1015F00092D481E090D481E58ED481E08CD4C7CFA1
:10160000662309F43EC3C88180EF85D48EE683D477
:101610008C2F81D4C63488F087EFDF91CF911F9152
:101620000F91FF90EF90DF90CF90BF90AF909F9081
:101630008F907F906F905F906EC4D0E0FE01E25675
:10164000F84F808168D4CC0FDD1F8E010C51184FEC
:10165000F80180818F775FD4F801808191819C01AE
:101660002078232B31F0880F892F881F990B8F77D3
:1016700052D4CC51D84F888199819C012227307C4B
:10168000232B51F2990F880B990F982F881F8F7772
:1016900042D4C2CF80EF3FD48AE63DD4CAECC031F9
:1016A00010F08FE701C08C2F36D4CF5FC031B9F76F
:1016B000B3CF662309F4E5C29881892F8F708330F8
:1016C00009F4DBC030F4813009F432C1823041F0DA
:1016D000D8C2843009F472C0853009F4F9C1D1C28E
:1016E000809135048111CDC2809134048111C9C229
:1016F00081E08093350440E0D9E0FD2E80915004D4
:10170000481708F058C0842F90E08C010A5C1B4FEA
:10171000F8012081222309F44AC020910302E091BC
:101720005504F0915604F89EE001F99ED00D112465
:10173000C358D74FAE81BF819C918885892B8C93EC
:10174000AC81BD81588530E088819981289FB001A6
:10175000299F700D389F700D11240A80DB81C02DE8
:101760002C9FC0012D9F900D3C9F900D1124E80FE0
:10177000F91F8C91952F90959823852B2FB7F8946E
:101780006E0F7F1F6E177F0781F0319158E08C93A9
:1017900000C037FF9C93330F00C000C000C008F4A6
:1017A0009C9300C05A9599F7EDCF2FBF7894F8011C
:1017B00010824F5FA3CF1092350463C2809134042E
:1017C00081115FC28B8190E0A0E0B0E0AC01BD016F
:1017D000EEE0440F551F661F771FEA95D1F79C81F5
:1017E000892F90E0A0E0B0E0F5E1880F991FAA1FD3
:1017F000BB1FFA95D1F7840F951FA61FB71F29812C
:10180000820F911DA11DB11DCA80D12CE12CF12C9C
:10181000C7E0CC0CDD1CEE1CFF1CCA95D1F7C80E2E
:10182000D91EEA1EFB1EC114D104E104F10419F013
:10183000C0E0D0E014C02091030280914E0490914A
:101840004F04289FA001299F500D112460E070E0F3
:1018500080915504909156040E945723DDC18091D8
:101860004E0490914F04C817D90708F0D5C1B701AD
:10187000A601CE0198DA2196F2CF8091340481112D
:1018800000C28A81098110E0F0E88F9F000D111DD0
:10189000112480914E0490914F040817190798F570
:1018A0008D8190E0A0E0B0E0AC01BD01FEE0440F0E
:1018B000551F661F771FFA95D1F79E81892F90E0FB
:1018C000A0E0B0E025E1880F991FAA1FBB1F2A9551
:1018D000D1F7840F951FA61FB71F2B81820F911D73
:1018E000A11DB11D4C8150E060E070E037E0440F75
:1018F000551F661F771F3A95D1F7480F591F6A1F6A
:101900007B1FC80150DA40915004AEE3B4E080E0A0
:1019100090E0841708F0B5C1FC012D913D9101962E
:1019200002171307B0F7EA5CFB4F81E08083A9C17F
:10193000913009F0A6C1633008F4A3C1709033045C
:1019400010DC711017C06BEA169FB12C1124B694ED
:101950004EE3C42E44E0D42E5DE7E52E58E0F52E8C
:10196000912CAA24A39462E0862E74E0672EE3E013
:101970005E2E56C03DE7E32E38E0F32E00E0602FE8
:10198000C701E9D90F5F39E0E30EF11C0830B9F760
:10199000DACF898190E025E0959587952A95E1F742
:1019A0008130910509F456C00CF041C0892B31F407
:1019B00010925304A0925404809252048B810A81A5
:1019C00010E040E8849F000D111D1124F7011183E0
:1019D0000083992009F44AC0F601329780819181F1
:1019E0009801280F391FF601219331936F01F701F8
:1019F0009383828380914E0490914F04080F191FA6
:101A000010934F0400934E04809150048F5F809395
:101A100050049394F9E0EF0EF11C2396B91449F1A8
:101A20007110B7CF69816F71C70195D9B2CF82307C
:101A30009105A9F0039709F0C1CFA09257046092D5
:101A4000030210925404A0925304809252045092C4
:101A50005104B4CF10925404A0925304ADCF10920D
:101A60005204A092540480925304A8CF80E090E0E6
:101A7000B7CF8091550490915604009731F00E94A1
:101A8000B02210924F0410924E040115110509F472
:101A9000F8C080910302809FE001819FD00D112446
:101AA000CE010E941822909356048093550400970B
:101AB00051F0AE0160E070E00E94572310934F0494
:101AC00000934E04DEC010924F0410924E04D9C011
:101AD0008981082F0F7109F49FC0382F3072B32EFF
:101AE000C09003020C9DC02D112491E0909334040A
:101AF000D0E010E0D12C482F4074A42E86FF2AC0DD
:101B0000CE010E9418227C01009729F0AE0160E00E
:101B100070E00E945723BB2039F080914E049091D1
:101B20004F04801B910B02C080E090E0C89E9001A2
:101B3000C99E300DD89E300D1124609155047091CE
:101B40005604620F731FAE01C7010E943D23B110FE
:101B50007FC01BC03323C9F0809155049091560477
:101B600020914E0430914F04201B310B2C9DA0017D
:101B70002D9D500D3C9D500D1124BC018C0F9D1FBF
:101B80000E94462320E030E033C080904E049090C5
:101B90004F04801A910A8091550490915604C89C74
:101BA000A001C99C500DD89C500D1124BC016C0F94
:101BB0007D1F0E944623AA20A9F0C89CC001C99C91
:101BC000900DD89C900D112420915504309156040D
:101BD000AE01B701820F931F0E943D23C7010E94EF
:101BE000B02218C020914E0430914F04201B310BBD
:101BF000C29EC001C39E900DD29E900D11242091D3
:101C0000550430915604AE0160E070E0820F931FDE
:101C10000E945723109234044091500450E061E038
:101C200070E086E394E0DF91CF911F910F91FF90D8
:101C3000EF90DF90CF90BF90AF909F908F907F906C
:101C40006F905F900C945723812F0E94DF0437CC54
:101C5000809155049091560420914E0430914F0488
:101C6000201B310B2C9DA0012D9D500D3C9D500D36
:101C70001124BC018C0F9D1F0E944623812C912CA6
:101C80009CCFDF91CF911F910F91FF90EF90DF904C
:101C9000CF90BF90AF909F908F907F906F905F900C
:101CA000089590E0FC013197E231F10508F04EC053
:101CB0008827E057FF4F8F4F0C94102280918000AF
:101CC0008F7703C0809180008F7D8093800008957E
:101CD00080918000877FF9CF84B58F7702C084B56B
:101CE0008F7D84BD08958091B0008F7703C080916F
:101CF000B0008F7D8093B0000895809190008F7721
:101D000007C0809190008F7D03C080919000877FF5
:101D10008093900008958091A0008F7707C08091F4
:101D2000A0008F7D03C08091A000877F8093A000DA
:101D30000895809120018F7707C0809120018F7DC9
:101D400003C080912001877F8093200108951F9315
:101D5000CF93DF931F921F92CDB7DEB7182F7A83F0
:101D6000698380915B0790915C07009709F44CC0F0
:101D7000DC01ED91FC911031A0F46115704488F400
:101D8000612F606E0190F081E02D199522E030E026
:101D9000AE014F5F5F4F62E070E08BE597E019D6D0
:101DA00033C00190F081E02D60EF199580915B07C1
:101DB00090915C07DC01ED91FC910190F081E02DA8
:101DC0006FE6199580915B0790915C07DC01ED91BE
:101DD000FC910190F081E02D612F199522E030E017
:101DE000AE014F5F5F4F62E070E08BE597E0F1D5A9
:101DF00080915B0790915C07DC01ED91FC91019073
:101E0000F081E02D67EF19950F900F90DF91CF9142
:101E10001F910895EF92FF920F931F93CF93DF933B
:101E2000C82F80915B0790915C070097C1F17A0100
:101E30008B01DC01ED91FC910190F081E02D60EFD0
:101E4000199580915B0790915C07DC01ED91FC9105
:101E50000190F081E02D6C2F1995E7010E0D1F1DEB
:101E6000C017D10751F020E030E0AE0161E070E032
:101E70008BE597E0AED52196F3CF80915B079091EB
:101E80005C07DC01ED91FC910190F081E02D67EFA2
:101E9000DF91CF911F910F91FF90EF901994DF91F7
:101EA000CF911F910F91FF90EF900895FC01019049
:101EB0000020E9F73197BF01681B790BAC0181E77E
:101EC000A9CFCF93DF93FC01A081B181109701F1DD
:101ED000EC01ED91FC9111970190F081E02D69EFFB
:101EE000CD01199588819981DC01ED91FC910190DA
:101EF000F081E02D62E0199588819981DC01ED91F6
:101F0000FC910190F081E02D65E0DF91CF91199473
:101F1000DF91CF910895A0919907B0919A07ED9123
:101F2000FC9111970190F081E02D682FCD0119945B
:101F3000282F3091A604313208F04AC080918204E3
:101F40008111FCCF9091A50442E04093820420933C
:101F500081042FEF2093800410927F0430937E043D
:101F6000E5E8F4E0AEE5B4E020E0321721F041917D
:101F70004D932F5FFACF10925D0420915D04990F6D
:101F8000922B90935D0490915C04913061F41092D7
:101F90005C0490915D049093BB009091BC0093FD14
:101FA000F8CF95EC01C095EE9093BC00909182041F
:101FB0009230E1F3909180049F3F79F0809180040A
:101FC000803241F080918004803331F084E005C09C
:101FD00081E003C082E001C083E01092840410928B
:101FE000A6041092830408951F93CF93DF93182FB4
:101FF000EB01809160079091610768177907A8F05D
:10200000E0918D07F0918E0781E03097C1F08093C9
:102010005D078091790790917A0719958091600703
:1020200090916107C817D90748F480915E07909195
:102030005F07C80FD91F188380E001C081E0DF91DE
:10204000CF911F910895AC01FB0180E090E09C01CD
:10205000220F331F2417350770F4DB012C912083E6
:1020600011963C91379533273795232B2193019671
:102070006E5F7F4FECCF0895FC01A089B1898C91F0
:10208000A689B78982FD0FC09C91818D8F5F8F7368
:10209000228D821749F0218DDF01A20FB11D5D96BF
:1020A0009C93818F08958C910895CF93DF93282F6F
:1020B00030E0F901E25EFD4F8491F901E852FE4FF4
:1020C000D491F901EE56FE4FC491CC2389F08111D1
:1020D000E8DDEC2FF0E0EE0FFF1FE858FE4FA59172
:1020E000B491EC91ED2381E090E021F480E002C016
:1020F00080E090E0DF91CF9108951F93CF93DF931D
:10210000282F30E0F901E25EFD4F8491F901E85299
:10211000FE4FD491F901EE56FE4FC491CC23B9F095
:10212000162F8111BEDDEC2FF0E0EE0FFF1FE25AFB
:10213000FE4FA591B4919FB7F894111104C08C91F2
:10214000D095D82302C0EC91DE2BDC939FBFDF91AA
:10215000CF911F910895CF93DF9390E0FC01E85257
:10216000FE4F2491FC01EE56FE4F8491882361F1CD
:1021700090E0880F991FFC01EC5BFE4FC591D49154
:10218000FC01E25AFE4FA591B491611109C09FB7BD
:10219000F8948881209582238883EC912E230BC0AC
:1021A000623061F49FB7F8948881322F3095832391
:1021B0008883EC912E2B2C939FBF06C08FB7F89489
:1021C000E8812E2B28838FBFDF91CF91089586332E
:1021D00008F0865390917B00282F2870977F922BD0
:1021E00090937B008770806480937C0080917A005C
:1021F000806480937A0080917A0086FDFCCF809184
:1022000078002091790090E0922B08958F929F9210
:10221000AF92BF92CF92DF92EF92FF926B017C015F
:1022200088D74B015C01C114D104E104F104E9F049
:1022300080D7DC01CB0188199909AA09BB09883E1E
:102240009340A105B10578F321E0C21AD108E10855
:10225000F10888EE880E83E0981EA11CB11CC11401
:10226000D104E104F10421F7DECFFF90EF90DF907D
:10227000CF90BF90AF909F908F900895CF92DF92B4
:10228000EF92FF920F931F93CF93DF936C017A012C
:102290008B01C0E0D0E0CE15DF0581F0D8016D9153
:1022A0008D01D601ED91FC910190F081E02DC601E8
:1022B0001995892B11F02196EECF7E01C701DF9190
:1022C000CF911F910F91FF90EF90DF90CF900895E5
:1022D000FC01538D448D252F30E0842F90E0821B2C
:1022E000930B541710F0CF96089501970895FC01B1
:1022F000918D828D981761F0828DDF01A80FB11D3D
:102300005D968C91928D9F5F9F73928F90E0089560
:102310008FEF9FEF0895FC01918D828D981731F01A
:10232000828DE80FF11D858D90E008958FEF9FEF6E
:102330000895FC01918D228D892F90E0805C9F4F44
:10234000821B91098F739927089587EA94E0F1DF42
:1023500021E0892B09F420E0822F089584E495E0A0
:10236000E8DF21E0892B09F420E0822F089581EE37
:1023700095E0DFDF21E0892B09F420E0822F08952A
:102380008EE796E0D6DF21E0892B09F420E0822F4A
:102390000895FC01848DDF01A80FB11DA35ABF4F22
:1023A0002C91848D90E001968F739927848FA68954
:1023B000B7892C93A089B1898C91837080648C93A8
:1023C000938D848D981306C00288F389E02D808157
:1023D0008F7D80830895EF92FF920F931F93CF9389
:1023E000DF93EC0181E0888F9B8D8C8D981305C065
:1023F000E889F989808185FD25C0F62E0B8D10E0D6
:102400000F5F1F4F0F731127E02E8C8DE8120BC04A
:102410000FB607FCFACFE889F989808185FFF5CFEF
:10242000CE01B7DFF2CF8B8DFE01E80FF11DE35A2D
:10243000FF4FF0829FB7F8940B8FEA89FB89808168
:1024400080620AC09FB7F894EE89FF896083E889AB
:10245000F98980818370806480839FBF81E090E0F0
:10246000DF91CF911F910F91FF90EF900895CF933F
:10247000DF93EC01888D8823C1F0EA89FB89808194
:1024800085FD05C0A889B9898C9186FD0EC00FB65F
:1024900007FCF5CF808185FFF2CFA889B9898C919F
:1024A00085FFEDCFCE0175DFE8CFDF91CF910895A5
:1024B00080E090E0892B19F063DF811116C080E085
:1024C00090E0892B19F053DF811112C080E090E079
:1024D000892B19F043DF81110EC080E090E0892B39
:1024E00079F033DF81110AC008950E940000E7CF20
:1024F0000E940000EBCF0E940000EFCF0C94000080
:102500000895E0912C03F0912D03309709F0199470
:102510000895862F642FE0912A03F0912B033097C2
:1025200011F0A901199408950895862FE0912203CE
:10253000F0912303309711F0BA0119940895862F72
:10254000E0912403F0912503309711F0BA0119941A
:102550000895862FE0911E03F0911F03309711F02C
:10256000BA0119940895862FE0912003F091210378
:10257000309711F0BA0119940895862FE09126033F
:10258000F0912703309711F0BA0119940895862F1E
:10259000E0912803F0912903309711F0BA011994C2
:1025A000089585ED8093BC008091BC0084FDFCCF34
:1025B00010928204089540912C0A262F30E0240FB7
:1025C000311D21323105DCF4209182042430C9F41C
:1025D000FC0180E090E0861758F430912C0A21919C
:1025E000DC01A45FB54FA30FB11D2C930196F3CF6F
:1025F00080912C0A680F60932C0A80E0089581E096
:10260000089582E00895089508950895E091070AD5
:102610008091060AE81730F4F0E0EA51F64F808125
:1026200090E008958FEF9FEF08959091070A8091B1
:10263000060A981750F4E92FF0E0EA51F64F20818E
:1026400030E09F5F9093070A02C02FEF3FEFC90170
:1026500008958091060A90E02091070A821B910953
:102660000895CF92DF92EF92FF920F931F93CF9333
:10267000DF937C01CB018A0120918304222389F01E
:10268000EB016B01C40ED51ECC15DD0561F069911F
:10269000D701ED91FC910190F081E02DC7011995D2
:1026A000F3CF642F88DFC801DF91CF911F910F9185
:1026B000FF90EF90DF90CF900895CF93DF931F921C
:1026C000CDB7DEB76983209183042223D1F0209116
:1026D000A604203240F021E030E0FC013383228365
:1026E00080E090E014C080918404E82FF0E0EB5784
:1026F000FB4F998190838F5F809384048093A6041D
:1027000004C061E0CE01019656DF81E090E00F90B9
:10271000DF91CF910895089580E090E008950E94A0
:102720003923009719F0805C9F4FCBCB08951F92FF
:102730000F920FB60F9211240BB60F922F933F9367
:102740004F935F936F937F938F939F93AF93BF93B9
:10275000EF93FF9387EA94E01CDEFF91EF91BF9126
:10276000AF919F918F917F916F915F914F913F9129
:102770002F910F900BBE0F900FBE0F901F901895CA
:102780001F920F920FB60F9211240BB60F922F9338
:102790003F934F935F936F937F938F939F93AF93E9
:1027A000BF93EF93FF9387EA94E066DCFF91EF918C
:1027B000BF91AF919F918F917F916F915F914F9159
:1027C0003F912F910F900BBE0F900FBE0F901F9057
:1027D00018951F920F920FB60F9211240BB60F92FD
:1027E0002F933F934F935F936F937F938F939F9319
:1027F000AF93BF93EF93FF9384E495E0CADDFF911D
:10280000EF91BF91AF919F918F917F916F915F9168
:102810004F913F912F910F900BBE0F900FBE0F90D5
:102820001F9018951F920F920FB60F9211240BB69E
:102830000F922F933F934F935F936F937F938F9359
:102840009F93AF93BF93EF93FF9384E495E014DCE1
:10285000FF91EF91BF91AF919F918F917F916F9178
:102860005F914F913F912F910F900BBE0F900FBE34
:102870000F901F9018951F920F920FB60F92112470
:102880000BB60F922F933F934F935F936F937F936A
:102890008F939F93AF93BF93EF93FF9381EE95E058
:1028A00078DDFF91EF91BF91AF919F918F917F91D3
:1028B0006F915F914F913F912F910F900BBE0F90B1
:1028C0000FBE0F901F9018951F920F920FB60F9288
:1028D00011240BB60F922F933F934F935F936F93F7
:1028E0007F938F939F93AF93BF93EF93FF9381EE6B
:1028F00095E0C2DBFF91EF91BF91AF919F918F91D6
:102900007F916F915F914F913F912F910F900BBEEF
:102910000F900FBE0F901F9018951F920F920FB639
:102920000F9211240BB60F922F933F934F935F9307
:102930006F937F938F939F93AF93BF93EF93FF9387
:102940008EE796E026DDFF91EF91BF91AF919F91C9
:102950008F917F916F915F914F913F912F910F9048
:102960000BBE0F900FBE0F901F9018951F920F92E5
:102970000FB60F9211240BB60F922F933F934F93E4
:102980005F936F937F938F939F93AF93BF93EF93D7
:10299000FF938EE796E070DBFF91EF91BF91AF91CF
:1029A0009F918F917F916F915F914F913F912F9167
:1029B0000F900BBE0F900FBE0F901F9018951F9297
:1029C0000F920FB60F9211240F900FBE0F901F9011
:1029D00018953F924F925F926F927F928F929F9243
:1029E000AF92BF92CF92DF92EF92FF920F931F931D
:1029F000CF93DF935C016901DA013C90232B19F43A
:102A0000CC24CA94DC2C7A012A01460E571EC0E061
:102A1000D0E000E010E087E0682E712CE414F504AB
:102A200009F443C00C151D0508F067C04701F50106
:102A300080819181D7016D917D010C2E01C0660FBF
:102A40000A94EAF763296F77DC01ED91FC9101901C
:102A5000F081E02D19950F5F1F4FF401608170E048
:102A6000C3018C1B9D0B02C0759567958A95E2F793
:102A7000362E2196C730D10588F2C016D10699F0BE
:102A8000D5018D919C91632D6F77DC01ED91FC91C7
:102A90000190F081E02D19950F5F1F4F331C3324F7
:102AA000331C2797E7CF8601B9CF209731F10C155A
:102AB0001D0518F5F5018081918161E070E001C08C
:102AC000660FCA95EAF761506321DC01ED91FC9134
:102AD0000190F081E02DDF91CF911F910F91FF9038
:102AE000EF90DF90CF90BF90AF909F908F907F90AE
:102AF0006F905F904F903F901994DF91CF911F910D
:102B00000F91FF90EF90DF90CF90BF90AF909F908C
:102B10008F907F906F905F904F903F900895DF92DD
:102B2000EF92FF920F931F93CF93DF93FC01E05836
:102B3000FF4FD080DD2009F45CC0EC01C05CDF4FAA
:102B4000A881B981109709F454C0FC01EF57FF4FD9
:102B500000811181F801F180E080ED91FC911197E5
:102B60000190F081E02D60EFCD0119958881998168
:102B7000DC01ED91FC910190F081E02D69E7199560
:102B800088819981DC01ED91FC910190F081E02D2B
:102B90006E2D199588819981DC01ED91FC91019050
:102BA000F081E02D6F2D19957801B2E0EB0EF11C4C
:102BB0000D0D111DE016F10659F020E030E0A701DF
:102BC00061E070E0CE0105DFEFEFEE1AFE0AF2CF12
:102BD00088819981DC01ED91FC910190F081E02DDB
:102BE00067EFDF91CF911F910F91FF90EF90DF90F2
:102BF0001994DF91CF911F910F91FF90EF90DF908B
:102C00000895009709F08BCF08951F920F920FB689
:102C10000F9211240BB60F922F933F934F935F9314
:102C20006F937F938F939F93AF93BF93EF93FF9394
:102C30008091B900887F803609F49CC068F588329D
:102C400009F45BC090F4803109F454C038F488234F
:102C500009F4F6C0883009F44DC0F5C0883109F494
:102C60004CC0803209F45DC0EEC0803409F468C005
:102C700048F4803309F455C0883309F0E4C08093E8
:102C80008004D8C0803509F44FC0883509F45DC090
:102C9000883409F0D8C0D6C0883909F4C7C0A8F470
:102CA000883709F467C038F4883609F463C0803780
:102CB00009F460C0C8C0883809F4B8C0803909F484
:102CC0005FC0803809F0BFC05BC0803B09F486C09C
:102CD00038F4803A09F466C0883A09F47FC0B3C07A
:102CE000803C09F4A7C0883C09F4A4C0883B09F4DF
:102CF0008AC0A9C080915D0410C090917F0480912A
:102D00007E04981770F5E0917F0481E08E0F809328
:102D10007F04F0E0E25AFB4F80818093BB0085EC9A
:102D200086C0809380048EC0E0917F0481E08E0F86
:102D300080937F048091BB00F0E0E25AFB4F8083D8
:102D400090917F0480917E046EC0E0917F0481E0C9
:102D50008E0F80937F048091BB00F0E0E25AFB4F1E
:102D600080838091810481116DC081E080935C0437
:102D700084EA61C083E08093820410924E0ACFCF30
:102D800080914E0A803208F051C0E0914E0A81E0F5
:102D90008E0F80934E0A8091BB00F0E0E25DF54F0C
:102DA0008083BDCF85EC8093BC001092820480911B
:102DB0004E0A803230F4E0914E0AF0E0E25DF54FC9
:102DC000108260914E0A70E0E0910A0AF0910B0ABD
:102DD0008EE29AE0199510924E0A35C084E08093F5
:102DE000820410922D0A10922C0AE091080AF091A8
:102DF000090A199580912C0A811105C081E0809300
:102E00002C0A10920C0AE0912D0A81E08E0F80931B
:102E10002D0AF0E0E45FF54F80818093BB00909134
:102E20002D0A80912C0A981708F479CF85E88093B1
:102E3000BC0009C085EC8093BC001092820403C0E2
:102E400010928004AEDBFF91EF91BF91AF919F9103
:102E50008F917F916F915F914F913F912F910F9043
:102E60000BBE0F900FBE0F901F901895DF92EF9240
:102E7000FF920F931F93CF93DF93EC01D62E7A012D
:102E800089018881803308F067C061E08D2D63D9A6
:102E90008881E82FF0E09F01220F331FE20FF31F1C
:102EA000EB53F74F9D2D9F732081207CD22ED92A82
:102EB000D08220E232E02E193F0937FF02C02D5F99
:102EC0003F4F3595279535952795298320E639E09D
:102ED000201B310B37FF02C02D5F3F4F35952795E3
:102EE000359527952A836CE00E9404229CE0899FF7
:102EF000B001112440E050E09B01240F351FF9017F
:102F0000EE0FFF1F2E0F3F1FF901EB53F74F90817C
:102F100096FD16C04F5F5F4F4C30510569F7813009
:102F200021F51092800082E080938100109285004C
:102F300010928400B19A80916F00826080936F003C
:102F4000E881F0E0CF01880F991FE80FF91FEB53DC
:102F5000F74F8081806480838881DF91CF911F91BA
:102F60000F91FF90EF90DF900895823061F41092FE
:102F7000900080939100109295001092940088BB6D
:102F800080937100DDCF833069F41092A00082E05D
:102F90008093A1001092A5001092A40089BB809399
:102FA0007200CECF8111CCCF1092200182E08093AD
:102FB000210110922501109224018ABB8093730095
:102FC000BFCF1F920F920FB60F9211240BB60F9224
:102FD0002F933F934F935F936F937F938F939F9321
:102FE000AF93BF93EF93FF9348E251E064E271E047
:102FF00080E090E00E94EB07FF91EF91BF91AF91CD
:103000009F918F917F916F915F914F913F912F9100
:103010000F900BBE0F900FBE0F901F9018951F9230
:103020000F920FB60F9211240BB60F922F933F936E
:103030004F935F936F937F938F939F93AF93BF93C0
:10304000EF93FF9348EA50E064EA70E083E090E099
:103050000E94EB07FF91EF91BF91AF919F918F91EC
:103060007F916F915F914F913F912F910F900BBE88
:103070000F900FBE0F901F9018951F920F920FB6D2
:103080000F9211240BB60F922F933F934F935F93A0
:103090006F937F938F939F93AF93BF93EF93FF9320
:1030A00048E950E064E970E082E090E00E94EB07BC
:1030B000FF91EF91BF91AF919F918F917F916F9110
:1030C0005F914F913F912F910F900BBE0F900FBECC
:1030D0000F901F9018951F920F920FB60F92112408
:1030E0000BB60F922F933F934F935F936F937F9302
:1030F0008F939F93AF93BF93EF93FF9348E850E074
:1031000064E870E081E090E00E94EB07FF91EF91AE
:10311000BF91AF919F918F917F916F915F914F91EF
:103120003F912F910F900BBE0F900FBE0F901F90ED
:1031300018953FB7F8948091560A9091570AA0913C
:10314000580AB091590A26B5A89B05C02F3F19F01F
:103150000196A11DB11D3FBFBA2FA92F982F882717
:10316000820F911DA11DB11DBC01CD0142E0660F72
:10317000771F881F991F4A95D1F708951F920F92C4
:103180000FB60F9211242F933F938F939F93AF937A
:10319000BF938091510A9091520AA091530AB09125
:1031A000540A3091550A23E0230F2D3720F401965D
:1031B000A11DB11D05C026E8230F0296A11DB11D5A
:1031C0002093550A8093510A9093520AA093530A70
:1031D000B093540A8091560A9091570AA091580AC8
:1031E000B091590A0196A11DB11D8093560A909382
:1031F000570AA093580AB093590ABF91AF919F9173
:103200008F913F912F910F900FBE0F901F901895A7
:10321000789484B5826084BD84B5816084BD85B5B1
:10322000826085BD85B5816085BD80916E008160BD
:1032300080936E0010928100809181008260809363
:103240008100809181008160809381008091800065
:103250008160809380008091B10084608093B10090
:103260008091B00081608093B00080919100826075
:103270008093910080919100816080939100809172
:1032800090008160809390008091A1008260809383
:10329000A1008091A10081608093A1008091A00095
:1032A00081608093A0008091210182608093210140
:1032B00080912101816080932101809120018160B2
:1032C0008093200180917A00846080937A008091BD
:1032D0007A00826080937A0080917A008160809386
:1032E0007A0080917A00806880937A001092C10001
:1032F00088E180939B0780919C0790919D070E9495
:10330000B022C0919B07D0E0CE0101960E94182206
:1033100090939D0780939C07FC01EC0FFD1F10828A
:1033200012E0DC011C9325E011962C93AE01425073
:10333000510968E772E002960E945E2380E592E000
:1033400090932903809328038AE991E090932703BF
:103350008093260385E691E09093250380932403D0
:1033600086E697E0909323038093220380E595E01F
:10337000909321038093200385ED93E090931F03A6
:1033800080931E0383EC98E090932B0380932A0391
:1033900081E297E090932D0380932C03E0918E06B9
:1033A000F0918F061083E0918E06F0918F061082C7
:1033B000E0918A06F0918B061082E0918C06F091E4
:1033C0008D0680E1808310929606E0919206F0913E
:1033D000930686E08083E0919006F09191068081CB
:1033E00080618083E0919006F091910680818860F1
:1033F0008083E0919006F0919106808180688083BF
:10340000E0919006F091910680818F7D808380917C
:103410007008811140C061E08DE00E94AB10C0E0F7
:1034200062ED70E080E090E00E94061161E08DE0C6
:103430000E947D1068E270E080E090E00E9406113A
:1034400060E08DE00E947D10CF5FC23049F76AEFE7
:1034500070E080E090E00E940611C0E062ED70E054
:1034600080E090E00E94061161E08DE00E947D10F6
:1034700068E270E080E090E00E94061160E08DE07C
:103480000E947D10CF5FC53049F76DE770E080E0A6
:1034900090E00E9406118EE796E090939A07809341
:1034A000990790935C0780935B078BE597E00E94F8
:1034B000610F8BE197E033DB0E9421070E94B10886
:1034C000D5E0DD24D39402E010E0EE24E394F12C67
:1034D000809137038823C1F1C0902E03C2FEDDC462
:1034E00082E00E945510892B09F4D7C4C4E0C3FEC2
:1034F00006C083E00E945510892B09F0D0C4C4FE99
:1035000006C084E00E945510892B09F0CAC4C5FE8C
:1035100006C085E00E945510892B09F0C4C4C6FE80
:1035200006C086E00E945510892B09F0BEC4C7FE74
:1035300006C087E00E945510892B09F0B8C440E00E
:103540006C2F80E00E94EA0380913803882309F4FD
:1035500048C0C0902F03C0FEACC488E00E94551044
:10356000892B09F4A6C4C1E0C1FE06C089E00E940F
:103570005510892B09F09FC4C2FE06C08AE00E9444
:103580005510892B09F099C4C3FE06C08BE00E9438
:103590005510892B09F093C4C4FE06C08CE00E942C
:1035A0005510892B09F08DC4C5FE06C08DE00E9420
:1035B0005510892B09F087C4C6FE06C08EE00E9414
:1035C0005510892B09F081C4C7FE06C08FE00E9408
:1035D0005510892B09F07BC440E06C2F81E00E94DC
:1035E000EA0380913903882309F448C0C09030036E
:1035F000C0FE6FC480E10E945510892B09F469C494
:10360000C1E0C1FE06C081E10E945510892B09F07E
:1036100062C4C2FE06C082E10E945510892B09F0E7
:103620005CC4C3FE06C083E10E945510892B09F0DB
:1036300056C4C4FE06C084E10E945510892B09F0CF
:1036400050C4C5FE06C085E10E945510892B09F0C3
:103650004AC4C6FE06C086E10E945510892B09F0B7
:1036600044C4C7FE06C087E10E945510892B09F0AB
:103670003EC440E06C2F82E00E94EA0380913A034E
:10368000882309F448C0C0903103C0FE32C488E1E9
:103690000E945510892B09F42CC4C1E0C1FE06C05C
:1036A00089E10E945510892B09F025C4C2FE06C08D
:1036B0008AE10E945510892B09F01FC4C3FE06C081
:1036C0008BE10E945510892B09F019C4C4FE06C075
:1036D0008CE10E945510892B09F013C4C5FE06C069
:1036E0008DE10E945510892B09F00DC4C6FE06C05D
:1036F0008EE10E945510892B09F007C4C7FE06C051
:103700008FE10E945510892B09F001C440E06C2F15
:1037100083E00E94EA0380913B03882309F448C0B8
:10372000C0903203C0FEF5C380E20E945510892B81
:1037300009F4EFC3C1E0C1FE06C081E20E9455104A
:10374000892B09F0E8C3C2FE06C082E20E94551030
:10375000892B09F0E2C3C3FE06C083E20E94551024
:10376000892B09F0DCC3C4FE06C084E20E94551018
:10377000892B09F0D6C3C5FE06C085E20E9455100C
:10378000892B09F0D0C3C6FE06C086E20E94551000
:10379000892B09F0CAC3C7FE06C087E20E945510F4
:1037A000892B09F0C4C340E06C2F84E00E94EA0337
:1037B00080913C03882309F448C0C0903303C0FEC5
:1037C000B8C388E20E945510892B09F4B2C3C1E046
:1037D000C1FE06C089E20E945510892B09F0ABC3D7
:1037E000C2FE06C08AE20E945510892B09F0A5C3CB
:1037F000C3FE06C08BE20E945510892B09F09FC3BF
:10380000C4FE06C08CE20E945510892B09F099C3B2
:10381000C5FE06C08DE20E945510892B09F093C3A6
:10382000C6FE06C08EE20E945510892B09F08DC39A
:10383000C7FE06C08FE20E945510892B09F087C38E
:1038400040E06C2F85E00E94EA0380913D038823CD
:1038500009F448C0C0903403C0FE7BC380E30E94DB
:103860005510892B09F475C3C1E0C1FE06C081E380
:103870000E945510892B09F06EC3C2FE06C082E378
:103880000E945510892B09F068C3C3FE06C083E36C
:103890000E945510892B09F062C3C4FE06C084E360
:1038A0000E945510892B09F05CC3C5FE06C085E354
:1038B0000E945510892B09F056C3C6FE06C086E348
:1038C0000E945510892B09F050C3C7FE06C087E33C
:1038D0000E945510892B09F04AC340E06C2F86E006
:1038E0000E94EA0380913E03882309F448C0C090F7
:1038F0003503C0FE3EC388E30E945510892B09F4AE
:1039000038C3C1E0C1FE06C089E30E945510892B6F
:1039100009F031C3C2FE06C08AE30E945510892B0C
:1039200009F02BC3C3FE06C08BE30E945510892B00
:1039300009F025C3C4FE06C08CE30E945510892BF4
:1039400009F01FC3C5FE06C08DE30E945510892BE8
:1039500009F019C3C6FE06C08EE30E945510892BDC
:1039600009F013C3C7FE06C08FE30E945510892BD0
:1039700009F00DC340E06C2F87E00E94EA038091BC
:103980003F038823C1F1C0903603C0FE02C380E428
:103990000E945510892B09F4FCC2C1E0C1FE06C08B
:1039A00081E40E945510892B09F0F5C2C2FE06C0C1
:1039B00082E40E945510892B09F0EFC2C3FE06C0B5
:1039C00083E40E945510892B09F0E9C2C4FE06C0A9
:1039D00084E40E945510892B09F0E3C2C5FE06C09D
:1039E00085E40E945510892B09F0DDC240E06C2F60
:1039F00088E00E94EA038091990790919A07DC0180
:103A0000ED91FC910084F185E02D1995892B09F445
:103A1000CEC18091990790919A07DC01ED91FC91BC
:103A20000284F385E02D19959C018F3FBFEF9B0722
:103A300011F3982F80916607882309F492C0973F6D
:103A400009F07EC010926607A0915E07B0915F07F3
:103A50006C916137C1F1693709F05CC0E09193075F
:103A6000F0919407309739F2809167079091680739
:103A70008330910538F420E030E040E050E060E031
:103A800070E01BC0BD016D5F7F4F03970E94231044
:103A9000BC016D5F7F4F80E00E94F40FE0915E07F4
:103AA000F0915F079F012D5F3F4F428150E06181A0
:103AB00070E0E0919307F0919407809175079091E1
:103AC0007607199598CF80918F0790919007892B51
:103AD00009F491CFBD016F5F7F4F8091670790918F
:103AE000680701970E942310BC016F5F7F4F80E041
:103AF0000E94F40F60915E0770915F076F5F7F4FC8
:103B0000E0918F07F091900780917B0790917C075F
:103B1000199571CFE0919107F0919207309709F4D0
:103B20006ACF9D012F5F3F4F409167075091680713
:103B30004150510980917D0790917E0719955BCF87
:103B40006091670770916807822F0E94F40F80913F
:103B500067079091680701969093680780936707BD
:103B60004ACF60916407709165076115710509F48A
:103B7000AFC027FDADC061507109709365076093B8
:103B80006407822F0E94F40F80916407909165076B
:103B9000892B09F030CF80916207882309F42BCF5D
:103BA000803D09F47FC030F4803939F1803C09F45C
:103BB00066C08BC0843FE1F1853F09F44DC0803E73
:103BC00009F083C0E0918107F0918207309709F4F2
:103BD0007CC0A0915E07B0915F078C9111964C91CB
:103BE00050E090E8899F400D511D112460916307BA
:103BF0008091690790916A0767C0E0918307F0910F
:103C00008407309709F461C0A0915E07B0915F0707
:103C10008C9111964C9150E0A0E88A9F400D511D67
:103C200011246091630780916B0790916C074CC0E1
:103C3000E0918907F0918A07309709F446C0A09176
:103C40005E07B0915F074C9150E011966C918091A6
:103C500071079091720738C0E0918B07F0918C0743
:103C6000309799F1A0915E07B0915F074C9150E0B9
:103C700011966C91809173079091740725C0E09123
:103C80008507F0918607309701F1A0915E07B0910A
:103C90005F074C9150E06091630780916D079091B0
:103CA0006E0712C0E0918707F0918807309769F09E
:103CB000A0915E07B0915F074C9150E0609163075F
:103CC00080916F079091700719951092620793CEBB
:103CD000903F30F4822F8F7080936307922F907FF4
:103CE000903F79F158F4903C29F118F49039E9F0BB
:103CF00082CE903DF9F0903EC1F07DCE993F09F41F
:103D000049C028F48CE0890F823078F074CE9F3F50
:103D100009F071CE10926507109264071092620745
:103D20001092630780E090E013C010936507009342
:103D3000640704C0F0926507E092640790936207FD
:103D40005ACED0926607109268071092670753CE3A
:103D500020916007309161078217930748F4E09142
:103D60005E07F0915F07E80FF91F10820196F0CF10
:103D7000109266071092680710926707E091970704
:103D8000F0919807309709F436CE80917F07909193
:103D900080070BC0E0919507F0919607309709F4E2
:103DA0002ACE8091770790917807199524CE8FB706
:103DB000F8944091510A5091520A6091530A7091BF
:103DC000540A8FBF80906A0390906B03A0906C039D
:103DD000B0906D032091010230910202C901A0E070
:103DE000B0E0481959096A097B0984179507A607A5
:103DF000B70708F04FC0880D991DAA1DBB1D809301
:103E00006A0390936B03A0936C03B0936D038EE9E8
:103E1000A82E87E0B82ECAECC031B8F4F501808135
:103E2000823099F480916803909169030C2E02C04E
:103E3000959587950A94E2F780FF07C08C2F0E9422
:103E4000E710BC018C2F0E94A70ECF5FFFEFAF1AC7
:103E5000BF0AC03109F78091000287FD1BC0C0E096
:103E60002C2F30E080910002082E000C990B821755
:103E7000930784F0D29FF001D39FF00D1124E05CF2
:103E8000FC4F618172812481438180810E942D04D5
:103E9000CF5FE6CF0E9458121BCBC0E028CBC86092
:103EA0002ECBC06134CBC0623ACBC06440CBC0687B
:103EB00046CBC0E059CBC2605FCBC46065CBC86065
:103EC0006BCBC06171CBC06277CBC0647DCBC06867
:103ED00083CBC0E096CBC2609CCBC460A2CBC86051
:103EE000A8CBC061AECBC062B4CBC064BACBC06853
:103EF000C0CBC0E0D3CBC260D9CBC460DFCBC8603D
:103F0000E5CBC061EBCBC062F1CBC064F7CBC0683E
:103F1000FDCBC0E010CCC26016CCC4601CCCC86025
:103F200022CCC06128CCC0622ECCC06434CCC06826
:103F30003ACCC0E04DCCC26053CCC46059CCC86010
:103F40005FCCC06165CCC0626BCCC06471CCC06812
:103F500077CCC0E08ACCC26090CCC46096CCC860FC
:103F60009CCCC061A2CCC062A8CCC064AECCC068FE
:103F7000B4CCC0E0C7CCC260CDCCC460D3CCC860E8
:103F8000D9CCC061DFCCC062E5CCC064EBCCC068EA
:103F9000F1CCC0E003CDC26009CDC4600FCDC860D4
:103FA00015CDC0611BCDC06221CD1092AA04109224
:103FB000A90488EE93E0A0E0B0E08093AB04909376
:103FC000AC04A093AD04B093AE042EE032E0309385
:103FD000A8042093A70445E351E05093B404409310
:103FE000B30444E351E05093B6044093B50440E376
:103FF00051E05093B8044093B70441E351E050932B
:10400000BA044093B90442E351E05093BC04409396
:10401000BB0446E351E05093BE044093BD041092AC
:10402000C0041092C1041092C2041092C3041092F2
:104030004705109246058093480590934905A09343
:104040004A05B0934B05309345052093440545ED53
:1040500050E0509351054093500544ED50E050938B
:1040600053054093520540ED50E050935505409361
:10407000540541ED50E0509357054093560542EDED
:1040800050E0509359054093580546ED50E0509349
:104090005B0540935A0510925D0510925E051092E3
:1040A0005F05109260051092E4051092E30580937D
:1040B000E5059093E605A093E705B093E8053093F6
:1040C000E2052093E1054DEC50E05093EE0540935E
:1040D000ED054CEC50E05093F0054093EF0548ECB3
:1040E00050E05093F2054093F10549EC50E05093B5
:1040F000F4054093F3054AEC50E05093F6054093E5
:10410000F5054EEC50E05093F8054093F7051092FA
:10411000FA051092FB051092FC051092FD05109215
:104120008106109280068093820690938306A09366
:104130008406B093850630937F0620937E0625EC97
:1041400030E030938B0620938A0624EC30E03093E5
:104150008D0620938C0620EC30E030938F06209360
:104160008E0621EC30E0309391062093900622ECED
:1041700030E0309393062093920626EC30E03093A3
:104180009506209394061092970610929806109226
:10419000990610929A062BE137E010925C07109274
:1041A0005B0730935F0720935E0740E450E0509335
:1041B00061074093600710926207109263071092A4
:1041C00065071092640710926607109268071092B4
:1041D000670710926A071092690710926C07109295
:1041E0006B0710926E0710926D0710927007109275
:1041F0006F07109272071092710710927407109255
:10420000730710927A071092790710927C07109228
:104210007B0710927E0710927D0710928007109204
:104220007F0710928E0710928D0710925D071092F3
:104230009B0710929D0710929C071092700847EC04
:1042400052E150938207409381074DEB52E1509326
:104250008407409383074FE952E1509386074093C8
:10426000850745E952E1509388074093870743EB60
:1042700052E150938A074093890749EA52E15093EB
:104280008C0740938B0744E952E150939007409389
:104290008F0749E852E1509392074093910741E01C
:1042A00056E15093940740939307309376072093F9
:1042B000750741E953E15093960740939507309372
:1042C00078072093770721E832E13093980720930D
:1042D0009707109274081092730880937508909352
:1042E0007608A0937708B093780880E292E09093E4
:1042F000720880937108EDE7F8E011821082138252
:104300001282399628E0E53CF207B9F78091550909
:10431000A6E5B9E09FEF48EB5BE0803378F48C933F
:10432000282F30E0F901EE0FFF1F2E0F3F1FF9017C
:10433000EB53F74F528341838F5F01C09C931396D9
:1043400029E0A63EB20749F7809355090895052E46
:1043500097FB16F400940FD057FD05D024D007FC2E
:1043600002D046F408C050954095309521953F4FB6
:104370004F4F5F4F089590958095709561957F4F51
:104380008F4F9F4F089531D0A59F900DB49F900DF2
:10439000A49F800D911D11240895B7FFF4CFF3DF82
:1043A000821B930B0895A1E21A2EAA1BBB1BFD01D1
:1043B0000DC0AA1FBB1FEE1FFF1FA217B307E40704
:1043C000F50720F0A21BB30BE40BF50B661F771F5C
:1043D000881F991F1A9469F760957095809590953C
:1043E0009B01AC01BD01CF010895A29FB001B39F15
:1043F000C001A39F700D811D1124911DB29F700DEE
:10440000811D1124911D0895991B79E004C0991F05
:10441000961708F0961B881F7A95C9F7809508951E
:10442000EE0FFF1F881F8BBF0790F691E02D1994A8
:104430000F931F93CF93DF938230910510F482E0A6
:1044400090E0E0915C0AF0915D0A20E030E0A0E0AD
:10445000B0E0309719F140815181028113814817F2
:104460005907C8F08417950769F4109731F0129630
:104470000C93129713961C9327C000935C0A109319
:104480005D0A22C02115310519F04217530718F4AF
:104490009A01BD01EF01DF01F801DBCF21153105E4
:1044A000F9F0281B390B2430310580F48A819B8177
:1044B0006115710521F0FB019383828304C0909301
:1044C0005D0A80935C0AFE01329644C0FE01E20F51
:1044D000F31F8193919322503109398328833AC085
:1044E00020915A0A30915B0A232B41F42091060255
:1044F0003091070230935B0A20935A0A20910402FC
:10450000309105022115310541F42DB73EB7409198
:10451000080250910902241B350BE0915A0AF091D0
:104520005B0AE217F307A0F42E1B3F0B281739078D
:1045300078F0AC014E5F5F4F2417350748F04E0FFF
:104540005F1F50935B0A40935A0A8193919302C074
:10455000E0E0F0E0CF01DF91CF911F910F9108953E
:10456000CF93DF93009709F481C0FC013297138247
:104570001282A0915C0AB0915D0A109781F42081AB
:104580003181820F931F20915A0A30915B0A2817BC
:10459000390751F5F0935B0AE0935A0A67C0ED01C1
:1045A00020E030E0CE17DF0740F44A815B819E01B6
:1045B00041155105F1F0EA01F5CFD383C283408163
:1045C0005181840F951FC817D90759F488819981A3
:1045D000840F951F0296918380838A819B819383A8
:1045E00082832115310529F4F0935D0AE0935C0A7A
:1045F0003DC0E901FB83EA8349915991C40FD51F5E
:10460000EC17FD0761F480819181840F951F02965C
:10461000E90199838883828193819B838A83E0E087
:10462000F0E012968D919C911397009719F0FD017F
:10463000DC01F7CF8D919C9111979D012E5F3F4F2B
:10464000820F931F20915A0A30915B0A281739076D
:1046500069F4309729F410925D0A10925C0A02C046
:1046600013821282B0935B0AA0935A0ADF91CF9112
:10467000089581E090E0F89430C0FB01DC0102C0B5
:1046800001900D9241505040D8F70895681779076E
:1046900068F4FB01DC01E40FF51FA40FB51F02C095
:1046A00002900E9241505040D8F70895E6CFDC01B9
:1046B00001C06D9341505040E0F70895FB01DC01CB
:1046C0004150504048F001900D920020C9F701C0C0
:0E46D0001D9241505040E0F70895F894FFCF3E
:1046DE00FF13000300005E0A800000000000EB11D3
:1046EE003E1168113712991177118B1100000000DD
:1046FE005D1331138C1305132913151306132F5540
:10470E00736572732F6367727567613230302F4431
:10471E006576656C6F706D656E742F6E6F64652D4A
:10472E00706978656C2F6669726D776172652F623C
:10473E0075696C642F6E6F64655F706978656C5F08
:10474E006669726D6174612F6E6F64655F706978F2
:10475E00656C5F6669726D6174612E696E6F00497A
:10476E0032433A20546F6F206D616E7920627974F6
:10477E006573207265636569766564004932433AF4
:10478E0020546F6F2066657720627974657320728E
:10479E0065636569766564004D6178207365727630
:1047AE006F7320617474616368656400556E6B6E1F
:1047BE006F776E2070696E206D6F64650031302DDD
:1047CE006269742061646472657373696E67206ECA
:1047DE006F7420737570706F7274656400746F6F90
:0E47EE00206D616E79207175657269657300CA
:00000001FF
