:100000000C9469000C9491000C9491000C941F11B5
:100010000C941F110C941F110C9491000C949100DE
:100020000C9491000C9491000C9491000C94F51395
:100030000C9491000C9491000C9491000C949100FC
:100040000C9448080C9491000C94B8080C949208F5
:100050000C9491000C9491000C9491000C949100DC
:100060000C9447120C9491002B0C500C190C630C3F
:10007000820CB40CA90CB40CB40CB40CDF0C3A0C0C
:1000800000000000240027002A00000000002500D6
:1000900028002B00040404040404040402020202E5
:1000A000020203030303030301020408102040803B
:1000B00001020408102001020408102000000008BA
:1000C000000201000003040700000000000000001F
:1000D000E51811241FBECFEFD8E0DEBFCDBF12E080
:1000E000A0E0B1E0E2EAF7E302C005900D92AE3184
:1000F000B107D9F725E0AEE1B2E001C01D92AE3AFA
:10010000B207E1F710E0C9E6D0E004C02197FE0194
:100110000E94721AC836D107C9F70E942C150C9498
:10012000CF1B0C9400005F926F927F928F929F92F0
:10013000AF92BF92CF92DF92EF92FF920F931F93F5
:10014000CF93DF93EA018F3609F4C8C1162F8037A9
:1001500078F4893609F496C220F4813509F4A4C2F2
:1001600090C58B3609F4E6C18D3609F439C289C5CC
:10017000863761F020F4803709F44DC182C5883795
:1001800009F4F4C08A3709F495C17BC52981922FFF
:10019000987125FF03C08EE291E063C0888131E051
:1001A00026FB222720F92327983069F160F491116A
:1001B00068C53093E302809305031092E402109225
:1001C000060302E007C0903109F445C0983109F4F4
:1001D00080C057C5011778F4FE01E00FF11D618161
:1001E0006795662767958081680F84E694E00E9492
:1001F00078100E5FEFCF81E00E94070E83E191E05F
:100200000197F1F73EC54B816A81163069F470E0C1
:1002100030E8439F600D711D11244D81479544279F
:1002200047959C81490F06C0479544274795460F3F
:100230006FEF7FEFDF91CF911F910F91FF90EF90C4
:10024000DF90CF90BF90AF909F908F907F906F90F6
:100250005F900C94680AE0910001E7309CF08EE416
:1002600091E0DF91CF911F910F91FF90EF90DF9080
:10027000CF90BF90AF909F908F907F906F905F9046
:100280000C94C40D9B813A81663071F4632F70E049
:1002900040E8949F600D711D11249D8197959927C9
:1002A00097954C81940F06C0979599279795930F32
:1002B0006FEF7FEFEF5FE093000135E0E302F001C5
:1002C0001124E75CFD4F80837283618393832483D1
:1002D000D8C42091000112163CF490E0622F022E47
:1002E000000C770B35E00FC08FEF80930001C9C47D
:1002F000349FF001359FF00D1124E75CFD4F4081E4
:10030000841739F09F5F492F50E06417750784F711
:1003100090E085E022C09830F8F4FA0131968E9F83
:10032000D0018F9FB00D1124A75CBD4F3C91849FDD
:10033000F001859FF00D1124E75CFD4F308311968D
:100340004D915C9112975283418313963C91139780
:10035000338314963C9134839F5F492F50E0641798
:100360007507CCF62150209300018BC42981888128
:1003700090E040E8249F800D911D1124009721F00A
:1003800090931F0280931E0280911A05811179C4F7
:10039000C0E08EEE8C0F823028F466E070E08C2F87
:1003A0000E948B0BCF5FC431A1F781E080931A05C7
:1003B00010925F0510925E051092E40210920603FF
:1003C0001092E2028093E1021092BC0261E082E1AD
:1003D0000E94AB0E61E083E10E94AB0E8091B900F8
:1003E0008E7F8093B9008091B9008D7F8093B90092
:1003F00088E48093B80085E48093BC008DE190E1AF
:1004000090936105809360058EE190E19093630580
:100410008093620536C4653008F433C418818EEFCA
:10042000810F823108F02DC40981EA80FB80CC81E4
:10043000E12FF0E0ED5FFA4F80818C30B0F490E076
:10044000FC01EE0FFF1F8E0F9F1FFC01E352FB4FBD
:10045000808190E0FC01EE0FFF1F8E0F9F1FFC01BB
:10046000E854FB4F808186FDEFC34F2D50E080E8BC
:10047000C89F400D511D1124602F70E090E8E99E47
:10048000600D711D1124812F0E944D0B64E070E0FE
:10049000812FDF91CF911F910F91FF90EF90DF900F
:1004A000CF90BF90AF909F908F907F906F905F9014
:1004B0000C948B0B623008F4E4C32981888190E0AE
:1004C000E0E82E9F800D911D1124009711F481E02A
:1004D00090E09093020180930101D3C3623008F44D
:1004E000D0C3898190E0623091F02A81F0E82F9F9B
:1004F00090011124822B932B633049F02B8130E043
:1005000030E4239F302D22271124822B932BBC0112
:100510008881DF91CF911F910F91FF90EF90DF9035
:10052000CF90BF90AF909F908F907F906F905F9093
:100530000C94FF0880EF0E94FA0D8CE60E94FA0DE1
:10054000CEEF84EF8C0F863038F482E00E94FA0DF3
:100550008AE00E94FA0D09C0C13039F483E00E949C
:10056000FA0D88E00E94FA0D08C08DEF8C0F8230E2
:10057000A8F389EF8C0F833088F3C23130F484E024
:100580000E94FA0D8EE00E94FA0D80EF8C0F8230EF
:1005900030F486E00E94FA0D81E00E94FA0D8FE7A8
:1005A0000E94FA0DCF5FC23151F1C23150F680E0A6
:1005B0000E94FA0D81E00E94FA0D8BE00E94FA0D74
:1005C00081E00E94FA0D81E00E94FA0D81E00E9414
:1005D000FA0D81E50E94FA0D81E00E94FA0DB1CF7B
:1005E000662309F44EC3C88180EF0E94FA0D8EE69F
:1005F0000E94FA0D8C2F0E94FA0DC43190F087EF03
:10060000DF91CF911F910F91FF90EF90DF90CF90EE
:10061000BF90AF909F908F907F906F905F900C9461
:10062000FA0DD0E0FE01E95DFB4F80810E94FA0DDA
:10063000CC0FDD1F8E01055C1B4FF80180818F7789
:100640000E94FA0DF801808191819C012078232B72
:1006500039F0880F892F881F990B8F770E94FA0D28
:10066000C55CDB4F888199819C012227307C232B3C
:1006700031F2990F880B990F982F881F8F770E945E
:10068000FA0DBDCF80EF0E94FA0D8AE60E94FA0DA6
:10069000C2EFC63010F08FE701C08C2F0E94FA0D18
:1006A000CF5FC630B1F7ABCF662309F4EAC29881B9
:1006B000892F8F70833009F4DCC030F4813009F465
:1006C00034C1823041F0DDC2843009F472C085301B
:1006D00009F4FEC1D6C2809122028111D2C280915A
:1006E00021028111CEC281E08093220240E0D9E054
:1006F000FD2E80913605481708F058C0842F90E0F1
:100700008C01045E1A4FF8012081222309F44AC0AB
:1007100020910301E0913B05F0913C05F89EE0013A
:10072000F99ED00D1124C059DB4FAE81BF819C9141
:100730008885892B8C93AC81BD81588530E0888178
:100740009981289FB001299F700D389F700D112449
:100750000A80DB81C02D2C9FC0012D9F900D3C9FF6
:10076000900D1124E80FF91F8C91952F90959823E7
:10077000852B2FB7F8946E0F7F1F6E177F0781F0C0
:10078000319158E08C9300C037FF9C93330F00C029
:1007900000C000C008F49C9300C05A9599F7EDCFB3
:1007A0002FBF7894F80110824F5FA3CF10922202DE
:1007B00068C280912102811164C28B8190E0A0E027
:1007C000B0E0AC01BD01EEE0440F551F661F771F7E
:1007D000EA95D1F79C81892F90E0A0E0B0E0F5E1A7
:1007E000880F991FAA1FBB1FFA95D1F7840F951F79
:1007F000A61FB71F2981820F911DA11DB11DCA809F
:10080000D12CE12CF12CC7E0CC0CDD1CEE1CFF1C24
:10081000CA95D1F7C80ED91EEA1EFB1EC114D10419
:10082000E104F10419F0C0E0D0E014C0209103010C
:100830008091340590913505289FA001299F500D86
:10084000112460E070E080913B0590913C050E948E
:10085000B91BE2C18091340590913505C817D907BD
:1008600008F0DAC1B701A601CE010E94B6142196A4
:10087000F1CF80912102811104C28A81098110E0A7
:10088000F0E88F9F000D111D112480913405909187
:10089000350508171907A0F58D8190E0A0E0B0E0BC
:1008A000AC01BD01FEE0440F551F661F771FFA958E
:1008B000D1F79E81892F90E0A0E0B0E025E1880F7C
:1008C000991FAA1FBB1F2A95D1F7840F951FA61F3A
:1008D000B71F2B81820F911DA11DB11D4C8150E0CE
:1008E00060E070E037E0440F551F661F771F3A95B0
:1008F000D1F7480F591F6A1F7B1FC8010E94B61409
:1009000040913605A4E2B5E080E090E0841708F05D
:10091000B8C1FC012D913D91019602171307B0F764
:10092000E45EFA4F81E08083ACC1913009F0A9C147
:10093000633008F4A6C1709020020E941A1571104D
:1009400017C06BEA169FB12C1124B69444E2C42E52
:1009500045E0D42E50E7E52E54E0F52E912CAA2444
:10096000A39462E0862E74E0672EE3E05E2E57C00B
:1009700030E7E32E34E0F32E00E0602FC7010E9441
:10098000EB0C0F5F39E0E30EF11C0830B1F7D9CF63
:10099000898190E025E0959587952A95E1F781304A
:1009A000910509F457C00CF042C0892B31F4109224
:1009B0003905A0923A05809238058B810A8110E0B2
:1009C00040E8849F000D111D1124F701118300835D
:1009D000992009F44BC0F6013297808191819801EA
:1009E000280F391FF601219331936F01F70193838B
:1009F00082838091340590913505080F191F10935B
:100A0000350500933405809136058F5F8093360558
:100A10009394F9E0EF0EF11C2396B91451F1711083
:100A2000B7CF69816F71C7010E94EB0CB1CF8230E3
:100A30009105A9F0039709F0C0CFA0923D056092FF
:100A4000030110923A05A092390580923805509220
:100A50003705B3CF10923A05A0923905ACCF10926A
:100A60003805A0923A0580923905A7CF80E090E042
:100A7000B6CF80913B0590913C05009731F00E94E4
:100A8000101B10923505109234050115110509F45B
:100A9000F8C080910301809FE001819FD00D112457
:100AA000CE010E94781A90933C0580933B050097F5
:100AB00051F0AE0160E070E00E94B91B1093350563
:100AC00000933405DEC01092350510923405D9C06C
:100AD0008981C82FCF7109F49FC0382F3072A32E9F
:100AE000C0900301CC9D002D112491E09093210230
:100AF00010E0D0E0D12C482F4074B42E86FF2AC0DD
:100B0000C8010E94781A7C01009729F0A80160E0D2
:100B100070E00E94B91BAA2039F0809134059091B1
:100B200035058C1B9D0B02C080E090E0C89E9001B3
:100B3000C99E300DD89E300D112460913B057091F7
:100B40003C05620F731FA801C7010E949E1BA110E4
:100B50007FC01BC03323C9F080913B0590913C05B9
:100B600020913405309135052C1B3D0B2C9DA001A7
:100B70002D9D500D3C9D500D1124BC01800F911FE7
:100B80000E94A71B20E030E033C080913B0590918C
:100B90003C0520913405309135052C1B3D0B2C9DD7
:100BA000A0012D9D500D3C9D500D1124BC01600FE6
:100BB000711F0E94A71B20913405309135052C1B15
:100BC0003D0BBB20A9F040910301429FC001439F10
:100BD000900D112420913B0530913C05A801B701EF
:100BE000820F931F0E949E1BC7010E94101B12C000
:100BF00040910301429FC001439F900D1124209119
:100C00003B0530913C05A80160E070E0820F931F26
:100C10000E94B91B109221024091360550E061E01C
:100C200070E08CE195E0DF91CF911F910F91FF90E3
:100C3000EF90DF90CF90BF90AF909F908F907F907C
:100C40006F905F900C94B91B812F0E941A0B0DCCF2
:100C500080913B0590913C052091340530913505FC
:100C60002C1B3D0B2C9DA0012D9D500D3C9D500D2E
:100C70001124BC01800F911F0E94A71B20E030E0CF
:100C8000A2CFDF91CF911F910F91FF90EF90DF9056
:100C9000CF90BF90AF909F908F907F906F905F901C
:100CA0000895833020F5282F30E0F901EA5CFD4FEC
:100CB0006083672BE1F0F901ED5CFD4F90818111BC
:100CC00003C069B16C7F0FC0813049F463B136B1A4
:100CD0006F7340E4349F90011124622B04C066B10D
:100CE0006C7366956695692341E00C94260A089515
:100CF000CF93863080F5409161025091620221E0ED
:100D000030E0672B81F4B90102C0660F771F8A9526
:100D1000E2F7CB018095909584239523909362020E
:100D20008093610218C0082E02C0220F331F0A945C
:100D3000E2F7242B352B30936202209361029091CD
:100D40001B05911108C0C82F0E94340FBC018C2FC5
:100D5000CF910C94130DCF9108958F929F92AF92E3
:100D6000BF92CF92DF92EF92FF920F931F93CF9398
:100D7000DF93833008F084C0982F990F990F990F53
:100D800058E0952E990E94E1991510F444E1942EB3
:100D90008B01D82FC82ECC0CCC0CCC0CC0E08824F6
:100DA00083945B01BB24C91430F58EEF8C0D823126
:100DB000F8F44C2D50E0FA01E95DFB4F2081223020
:100DC000B8F4882D90E08A219B21DD24D3940097EC
:100DD00009F4D12C7A01EE0CFF1C213009F040C03F
:100DE000C829F701E55CFB4F8D2D90E0918380834E
:100DF000880CC394D8CFD11108C0F8946BB10627E2
:100E00000C7FC023C627CBB929C0D130D1F40C2325
:100E1000F89495B18C2F8F7380958923902F9F73B1
:100E2000892B85B998B1C295C695C695C370C095F2
:100E30008C2F89230295069506950370C02FC82B29
:100E40000CC0CF70F89488B16C2F660F660F609558
:100E50006823C023CC0FCC0FC62BC8B9789410C020
:100E6000892B09F4BECFF701E55CFB4F80819181AE
:100E7000019709F4B6CF62E08C2D0E94F80EB1CF35
:100E8000DF91CF911F910F91FF90EF90DF90CF9066
:100E9000BF90AF909F908F900895CF92DF92EF9286
:100EA000FF920F931F93CF93DF936C017A018B0115
:100EB000C0E0D0E0CE15DF0581F0D8016D918D0145
:100EC000D601ED91FC910190F081E02DC6010995CC
:100ED000892B11F02196EECF7E01C701DF91CF91D2
:100EE0001F910F91FF90EF90DF90CF900895FC013C
:100EF000538D448D252F30E0842F90E0821B930B7F
:100F0000541710F0CF96089501970895FC01918D24
:100F1000828D981761F0828DDF01A80FB11D5D965B
:100F20008C91928D9F5F9F73928F90E008958FEFC9
:100F30009FEF0895FC01918D828D981731F0828D7D
:100F4000E80FF11D858D90E008958FEF9FEF0895D4
:100F50000E94991B87E093E00E94850F21E0892B76
:100F600009F420E0822F0895EF92FF920F931F93D0
:100F7000CF93DF93EC0181E0888F9B8D8C8D98134C
:100F800005C0E889F989808185FD26C0F62E0B8D84
:100F900010E00F5F1F4F0F731127E02E8C8DE812AA
:100FA0000CC00FB607FCFACFE889F989808185FF6C
:100FB000F5CFCE010E94FD10F1CF8B8DFE01E80F21
:100FC000F11DE35AFF4FF0829FB7F8940B8FEA8927
:100FD000FB89808180620AC09FB7F894EE89FF89FF
:100FE0006083E889F98980818370806480839FBFF2
:100FF00081E090E0DF91CF911F910F91FF90EF90F2
:101000000895CF93DF93EC01888D8823C9F0EA8996
:10101000FB89808185FD05C0A889B9898C9186FDF1
:101020000FC00FB607FCF5CF808185FFF2CFA889EE
:10103000B9898C9185FFEDCFCE010E94FD10E7CFDD
:10104000DF91CF9108953FB7F89480916C02909111
:101050006D02A0916E02B0916F0226B5A89B05C0EB
:101060002F3F19F00196A11DB11D3FBFBA2FA92F27
:10107000982F8827820F911DA11DB11DBC01CD01A4
:1010800042E0660F771F881F991F4A95D1F7089590
:101090001F920F920FB60F9211242F933F938F93AD
:1010A0009F93AF93BF938091680290916902A09142
:1010B0006A02B0916B023091670223E0230F2D3753
:1010C00020F40196A11DB11D05C026E8230F02964C
:1010D000A11DB11D2093670280936802909369025D
:1010E000A0936A02B0936B0280916C0290916D02A2
:1010F000A0916E02B0916F020196A11DB11D809367
:101100006C0290936D02A0936E02B0936F02BF9138
:10111000AF919F918F913F912F910F900FBE0F90A4
:101120001F9018951F920F920FB60F9211242F93B4
:101130003F934F935F936F937F938F939F93AF935F
:10114000BF93EF93FF9387E093E00E94FD10FF9120
:10115000EF91BF91AF919F918F917F916F915F912F
:101160004F913F912F910F900FBE0F901F901895A8
:101170001F920F920FB60F9211242F938F939F936C
:10118000EF93FF93E0911703F09118038081E091B2
:101190001D03F0911E0382FD12C0908180912003F7
:1011A0008F5F8F7320912103821751F0E09120030C
:1011B000F0E0E95FFC4F958F8093200301C08081B0
:1011C000FF91EF919F918F912F910F900FBE0F90F4
:1011D0001F9018959EEF980F923180F4E82FF0E061
:1011E000DF01A95DBB4F9C91913041F4EE0FFF1FD1
:1011F000E55CFB4F608371830C94AB0E08958F9276
:101200009F92AF92BF92CF92DF92EF92FF920F9395
:101210001F93CF93DF93EB01843108F00AC1082FAD
:1012200010E0F801E95DFB4F9081933009F496C01E
:10123000943009F0FEC08250823108F087C0F80176
:10124000ED5FFA4FE080F12C6701CC0CDD1C6032C1
:1012500082E078070CF042C077FD05C0653B710560
:1012600024F4DB0104C0A0E001C0A4EBB0E0F6016F
:10127000EE0DFF1DE352FB4F818128E830E049016C
:10128000881A910887FD9394880C991C880C991CE6
:10129000092C000CAA08BB08828128E532E0281B33
:1012A000310987FD3395220F331F220F331FA90108
:1012B000330F660B770B9A01AB01281939094A09DC
:1012C0005B090E942D1A24EB30E040E050E00E94C0
:1012D000031A820E931EA41EB51E01C04B01F60117
:1012E000EE0DFF1DE352FB4F20812C3078F531814C
:1012F00088E890E0831B910937FD9395880F991F2B
:10130000880F991F8816990684F0828148E552E07B
:10131000481B510987FD5395440F551F440F551F16
:10132000C401481559050CF4CA010297880F991F8A
:101330004FB7F89430E0F901EE0FFF1F2E0F3F1F5B
:10134000F901E854FB4F928381834FBF000F111FB7
:10135000F801E55CFB4FD183C0836BC07B01D82FC4
:10136000833049F08BEF800F823028F087EF800FB9
:10137000833008F057C061E08D2F0E94F80EE11411
:10138000F10411F460E005C08FEFE816F10429F4D0
:1013900061E08D2F0E94AB0E45C0F801E454FF4F71
:1013A000E491E330F9F048F4E130B9F0E230A1F52E
:1013B00084B5806284BDE8BC35C0E730E9F0E83030
:1013C00019F1E43049F580918000806280938000BB
:1013D000F0928B00E0928A0025C084B5806884BDBD
:1013E000E7BC20C080918000806880938000F092EC
:1013F0008900E092880016C08091B00080688093D8
:10140000B000E092B3000EC08091B0008062809383
:10141000B000E092B40006C080E8E816F1040CF0D9
:10142000B7CFB0CF000F111FF801E55CFB4FF18281
:10143000E082DF91CF911F910F91FF90EF90DF90AD
:10144000CF90BF90AF909F908F900895FF920F9391
:101450001F93CF93DF9300D0CDB7DEB7082F10E0F6
:10146000F801ED5CFD4F9081F62EF922095E1A4FCE
:10147000411104C0F8019081F91611F12F2D30E0CF
:101480003A832983A091E403B091E5031097B1F06A
:10149000682F6F706069ED91FC9111970190F08158
:1014A000E02DCD01099522E030E0AE014F5F5F4FA6
:1014B00062E070E084EE93E00E942911F801F0826E
:1014C0000F900F90DF91CF911F910F91FF90089592
:1014D000EF92FF920F931F93CF93DF93D82F8B013F
:1014E000C42FF22E6F3F8FEF7807F9F081E08093E1
:1014F000E302D09305031092E4021092060384E6FF
:1015000094E00E9478108F2D0E94070E80911E0299
:1015100090911F028230910550F0880F991F880F1B
:10152000991F05970197F1F702C000E010E0809144
:10153000E2028111FCCF9C2FC13208F090E281E0E1
:101540008093E2028093E1022FEF2093E002109259
:10155000DF02290F2093DE028093BD028091BD023D
:101560002D2F220F822B8093BD028091BC028130EF
:1015700061F41092BC028091BD028093BB00809107
:10158000BC0083FDF8CF85EC01C085EE8093BC00E4
:101590008091E2028130E1F38091DF02891710F43B
:1015A0009091DF02EEEBF2E0AEE3B5E080E0891768
:1015B00021F021912D938F5FFACF10925F058093D8
:1015C0005E05EC2EF12C90E0E816F9061CF480EC98
:1015D00091E005C08E159F0524F48DED91E00E94E9
:1015E000C40DD0937C0200937D020CE712E0C80189
:1015F0008C5792408E159F057CF40F5F1F4F909182
:101600005E0580915F05981739F084E694E00E94AA
:101610002F10F8018183EBCFCE5F6C2F70E04CE789
:1016200052E087E7DF91CF911F910F91FF90EF90EC
:101630000C94770DA82FB0E0AD5FBA4F9C91292F85
:1016400030E0F901EE0FFF1F2E0F3F1FF901E352AB
:10165000FB4FE081F0E09F01220F331FE20FF31FE9
:10166000E854FB4F80818F7B808380910105981324
:1016700006C0992379F09150909301050BC08823FF
:1016800049F0E0910205EF5FE0930205F0E0E159D7
:10169000FD4F90838FEF8C930895DB0190910105AE
:1016A0009C30A8F530910205682F70E0332369F073
:1016B000E32FF0E0E159FD4F8081FB01ED5FFA4F30
:1016C000808331503093020507C0FB01ED5FFA4F74
:1016D00090839F5F90930105FB01ED5FFA4F80813E
:1016E00090E09C01220F331F820F931F1A161B06D6
:1016F00034F4141615061CF49A01AD0104C020E65A
:1017000039E040E252E083529B4F0C94751389EF0D
:1017100091E00C94C40D8F929F92BF92CF92DF9272
:10172000EF92FF920F931F93CF93DF93C82ED12C8C
:10173000E601CC55DC4FFE01ED57FF4F90819F37FE
:1017400009F43DC1963041F490911A05992321F096
:101750006630710509F017C17B01182F0EEF080FD5
:101760000231F8F464307105E1F0F601ED5FFA4FF3
:1017700080818C30B0F490E0FC01EE0FFF1F8E0FE3
:101780009F1FFC01E352FB4F808190E0FC01EE0FB4
:10179000FF1F8E0F9F1FFC01E854FB4F808186FDC9
:1017A000F8C052EFB52EB10E85E08B1558F061E010
:1017B00070E082E0E816F10411F060E070E08B2D3B
:1017C0000E947806023118F5E12FE695E695E69538
:1017D000212F2770F0E0ED5CFD4FE114F10421F0C2
:1017E0008BE0E816F10449F481E090E001C0880F35
:1017F0002A95EAF79081892B09C081E090E001C029
:10180000880F2A95EAF78095908189238083460185
:10181000880C991CF401E55CFB4F118210828CE06E
:10182000E816F10408F0A0C0F701EC5CFF4F0C943F
:10183000721A85E08B1508F4C2C0023120F460E012
:10184000812F0E94F80ECD57DF4F88818F3709F422
:10185000B6C082E087C0023108F0B1C060E0812FDD
:101860000E94F80ECD57DF4F88818F3709F4A7C04B
:101870001882A5C0023108F0A2C062E0812F0E9448
:10188000F80ECD57DF4F88818F3711F08BE08883BA
:10189000F401E55CFB4F81E090E0918380838FC091
:1018A000023108F08CC060E0812F0E94AB0E61E035
:1018B000812F0E94F80ECD57DF4F88818F3709F4B2
:1018C0007EC081E04FC0133049F08BEF810F823032
:1018D00028F087EF810F833008F071C061E0812F1D
:1018E0000E94F80E61E0812F0E94F80E60E0812FC7
:1018F0000E94AB0ECD57DF4F88818F3709F45FC050
:1019000083E030C0023108F05AC0CD57DF4F8881E4
:101910008F3711F084E08883F601ED5FFA4F808104
:101920008F3FD9F190E0FC01EE0FFF1F8E0F9F1F3C
:10193000FC01E352FB4F808190E0FC01EE0FFF1FA2
:101940008E0F9F1FFC01E854FB4F808186FD37C03E
:1019500024C01251123098F5CD57DF4F88818F3750
:1019600071F186E088832BC08DE092E0DF91CF910A
:101970001F910F91FF90EF90DF90CF90BF909F90BD
:101980008F900C94C40D10921A059FEF9093000154
:10199000E3CE812F0E941A0B04CF4FEF5FEF6FEF62
:1019A0007FEF812FDF91CF911F910F91FF90EF90EB
:1019B000DF90CF90BF909F908F900C944D0BDF9154
:1019C000CF911F910F91FF90EF90DF90CF90BF903C
:1019D0009F908F900895DC0170E0FB01E855FF4F68
:1019E000E4911896EC9318976C567F4FFB01849105
:1019F000E82FF0E0EE0FFF1FE657FF4F859194911F
:101A000015969C938E931497FB016491E62FF0E05A
:101A1000EE0FFF1FE058FF4F8591949117969C930E
:101A20008E93169708951F93CF93DF9300D0CDB771
:101A3000DEB7182F7A8369838091E4039091E503E0
:101A4000009709F44EC0DC01ED91FC911031A8F42F
:101A50006115704490F4612F606E0190F081E02D6B
:101A6000099522E030E0AE014F5F5F4F62E070E029
:101A700084EE93E00E94291134C00190F081E02DA2
:101A800060EF09958091E4039091E503DC01ED910D
:101A9000FC910190F081E02D6FE609958091E403BF
:101AA0009091E503DC01ED91FC910190F081E02D36
:101AB000612F099522E030E0AE014F5F5F4F62E099
:101AC00070E084EE93E00E9429118091E4039091EC
:101AD000E503DC01ED91FC910190F081E02D67EFD1
:101AE00009950F900F90DF91CF911F910895EF927C
:101AF000FF920F931F93CF93DF93C82F8091E4033E
:101B00009091E5030097C9F17A018B01DC01ED9119
:101B1000FC910190F081E02D60EF09958091E40344
:101B20009091E503DC01ED91FC910190F081E02DB5
:101B30006C2F0995E7010E0D1F1DC017D10759F035
:101B400020E030E0AE0161E070E084EE93E00E94BE
:101B500029112196F2CF8091E4039091E503DC01F5
:101B6000ED91FC910190F081E02D67EFDF91CF9135
:101B70001F910F91FF90EF900994DF91CF911F91EA
:101B80000F91FF90EF900895FC0101900020E9F77C
:101B90003197BF01681B790BAC0181E70C94770D7D
:101BA000CF93DF93FC01A081B181109701F1EC018B
:101BB000ED91FC9111970190F081E02D69EFCD013D
:101BC000099588819981DC01ED91FC910190F0816A
:101BD000E02D62E0099588819981DC01ED91FC910D
:101BE0000190F081E02D65E0DF91CF910994DF91C4
:101BF000CF910895A0912204B0912304ED91FC911E
:101C000011970190F081E02D682FCD010994282FC4
:101C100030910603313208F04AC08091E20281110E
:101C2000FCCF9091050342E04093E2022093E10251
:101C30002FEF2093E0021092DF023093DE02E5EEF8
:101C4000F2E0AEEBB2E020E0321721F041914D938B
:101C50002F5FFACF1092BD022091BD02990F922BF7
:101C60009093BD029091BC02913061F41092BC023D
:101C70009091BD029093BB009091BC0093FDF8CF72
:101C800095EC01C095EE9093BC009091E2029230E9
:101C9000E1F39091E0029F3F79F08091E002803281
:101CA00041F08091E002803331F084E005C081E0B2
:101CB00003C082E001C083E01092E40210920603A8
:101CC0001092E30208951F93CF93DF93182FEB0137
:101CD0008091E9039091EA0368177907A8F0E091F1
:101CE0001604F091170481E03097C1F08093E60369
:101CF000809102049091030409958091E9039091E9
:101D0000EA03C817D90748F48091E7039091E803E4
:101D1000C80FD91F188380E001C081E0DF91CF9107
:101D20001F910895AC01FB0180E090E09C01220F1F
:101D3000331F2417350770F4DB012C912083119693
:101D40003C91379533273795232B219301966E5F6E
:101D50007F4FECCF089590E0FC01E454FF4F2491B5
:101D6000FC01E855FF4F3491FC01EC56FF4FE49124
:101D7000EE2309F43CC0222339F1233091F038F4EA
:101D80002130A9F0223001F584B58F7D12C02730B3
:101D900091F02830A1F02430B9F4809180008F7D3B
:101DA00003C0809180008F77809380000DC084B540
:101DB0008F7784BD09C08091B0008F7703C0809178
:101DC000B0008F7D8093B000F0E0EE0FFF1FE6576C
:101DD000FF4FA591B4919FB7F894611104C08C9105
:101DE0003095382302C0EC913E2B3C939FBF089561
:101DF000CF93DF9390E0FC01E855FF4F2491FC0165
:101E0000EC56FF4F8491882361F190E0880F991F71
:101E1000FC01E058FF4FC591D491FC01E657FF4FFC
:101E2000A591B491611109C09FB7F894888120955C
:101E300082238883EC912E230BC0623061F49FB71C
:101E4000F8948881322F309583238883EC912E2B50
:101E50002C939FBF06C08FB7F894E8812E2B288360
:101E60008FBFDF91CF9108958E3008F08E5087702C
:101E7000806480937C0080917A00806480937A00F3
:101E800080917A0086FDFCCF8091780020917900C6
:101E900090E0922B08958F929F92AF92BF92CF9233
:101EA000DF92EF92FF926B017C010E9423084B01AD
:101EB0005C01C114D104E104F104F1F00E94230893
:101EC000DC01CB0188199909AA09BB09883E934016
:101ED000A105B10570F321E0C21AD108E108F108AB
:101EE00088EE880E83E0981EA11CB11CC114D10499
:101EF000E104F10419F7DDCFFF90EF90DF90CF9070
:101F0000BF90AF909F908F900895FC01918D228D8E
:101F1000892F90E0805C9F4F821B91098F739927D6
:101F2000089580E090E0892B29F00E94AA07811192
:101F30000C9400000895E0913102F0913202309744
:101F400009F009940895862F642FE0912F02F091F3
:101F50003002309711F0A901099408950895862F51
:101F6000E0912702F0912802309711F0BA0109940C
:101F70000895862FE0912902F0912A02309711F0FE
:101F8000BA0109940895862FE0912302F09124026A
:101F9000309711F0BA0109940895862FE091250237
:101FA000F0912602309711F0BA0109940895862F16
:101FB000E0912B02F0912C02309711F0BA010994B4
:101FC0000895862FE0912D02F0912E02309711F0A6
:101FD000BA010994089585ED8093BC008091BC00FE
:101FE00084FDFCCF1092E202089540918505262FD2
:101FF00030E0240F311D21323105DCF42091E20262
:102000002430C9F4FC0180E090E0861758F4309148
:1020100085052191DC01AB59BA4FA30FB11D2C935B
:102020000196F3CF80918505680F6093850580E068
:10203000089581E0089582E008950895089508952F
:10204000E0915F0580915E05E81730F4F0E0E25C16
:10205000FA4F808190E008958FEF9FEF089590915F
:102060005F0580915E05981750F4E92FF0E0E25C7F
:10207000FA4F208130E09F5F90935F0502C02FEF01
:102080003FEFC901089580915E0590E020915F05C2
:10209000821B91090895CF92DF92EF92FF920F93E6
:1020A0001F93CF93DF937C01CB018A012091E30240
:1020B000222389F0EB016B01C40ED51ECC15DD0582
:1020C00069F06991D701ED91FC910190F081E02DCB
:1020D000C7010995F3CF642F0E94F50FC801DF9166
:1020E000CF911F910F91FF90EF90DF90CF900895C7
:1020F000CF93DF931F92CDB7DEB769832091E302C0
:102100002223D1F020910603203240F021E030E07C
:10211000FC013383228380E090E015C08091E402CB
:10212000E82FF0E0EB51FD4F998190838F5F809312
:10213000E4028093060305C061E0CE0101960E948F
:10214000F50F81E090E00F90DF91CF910895089511
:1021500080E090E00895009721F0805C9F4F0C9400
:10216000D00D08950F931F93CF93DF9381E0809359
:102170001B0580911A05882329F010921A058FEF0C
:1021800080930001109236021092330210921705CC
:1021900010923702109234021092180510923802F1
:1021A000109235021092190503E015E0C0E0DFEF50
:1021B00082EF8C0F863018F462E070E006C08EEF7C
:1021C0008C0F823128F461E070E08C2F0E948B0B21
:1021D000F801D1938F01CF5FC43151F710926202A1
:1021E00010926102109202051092010510921B05D7
:1021F000DF91CF911F910F910895FC01848DDF0134
:10220000A80FB11DA35ABF4F2C91848D90E0019669
:102210008F739927848FA689B7892C93A089B18958
:102220008C91837080648C93938D848D981306C0F9
:102230000288F389E02D80818F7D808308951F922D
:102240000F920FB60F9211240F900FBE0F901F9098
:1022500018953F924F925F926F927F928F929F92CA
:10226000AF92BF92CF92DF92EF92FF920F931F93A4
:10227000CF93DF935C016901DA013C90232B19F4C1
:10228000CC24CA94DC2C7A012A01460E571EC0E0E9
:10229000D0E000E010E087E0682E712CE414F50433
:1022A00009F443C00C151D0508F067C04701F5018E
:1022B00080819181D7016D917D010C2E01C0660F47
:1022C0000A94EAF763296F77DC01ED91FC910190A4
:1022D000F081E02D09950F5F1F4FF401608170E0E0
:1022E000C3018C1B9D0B02C0759567958A95E2F71B
:1022F000362E2196C730D10588F2C016D10699F046
:10230000D5018D919C91632D6F77DC01ED91FC914E
:102310000190F081E02D09950F5F1F4F331C33248E
:10232000331C2797E7CF8601B9CF209731F10C15E1
:102330001D0518F5F5018081918161E070E001C013
:10234000660FCA95EAF761506321DC01ED91FC91BB
:102350000190F081E02DDF91CF911F910F91FF90BF
:10236000EF90DF90CF90BF90AF909F908F907F9035
:102370006F905F904F903F900994DF91CF911F91A4
:102380000F91FF90EF90DF90CF90BF90AF909F9014
:102390008F907F906F905F904F903F900895DF9265
:1023A000EF92FF920F931F93CF93DF93FC01E058BE
:1023B000FF4FD080DD2009F45DC0EC01C05CDF4F31
:1023C000A881B981109709F455C0FC01EF57FF4F60
:1023D00000811181F801F180E080ED91FC9111976D
:1023E0000190F081E02D60EFCD0109958881998100
:1023F000DC01ED91FC910190F081E02D69E70995F8
:1024000088819981DC01ED91FC910190F081E02DB2
:102410006E2D099588819981DC01ED91FC910190E7
:10242000F081E02D6F2D09957801B2E0EB0EF11CE3
:102430000D0D111DE016F10661F020E030E0A7015E
:1024400061E070E0CE010E942911EFEFEE1AFE0A62
:10245000F1CF88819981DC01ED91FC910190F081AF
:10246000E02D67EFDF91CF911F910F91FF90EF90DB
:10247000DF900994DF91CF911F910F91FF90EF9022
:10248000DF900895009711F00C94CF1108951F92DA
:102490000F920FB60F9211242F933F934F935F9398
:1024A0006F937F938F939F93AF93BF93EF93FF931C
:1024B0008091B900887F803609F49CC068F5883225
:1024C00009F45BC090F4803109F454C038F48823D7
:1024D00009F4F6C0883009F44DC0F6C0883109F41B
:1024E0004CC0803209F45DC0EFC0803409F468C08C
:1024F00048F4803309F455C0883309F0E5C080936F
:10250000E002D8C0803509F44FC0883509F45DC0B9
:10251000883409F0D9C0D6C0883909F4C7C0A8F4F6
:10252000883709F467C038F4883609F463C0803707
:1025300009F460C0C9C0883809F4B8C0803909F40A
:102540005FC0803809F0C0C05BC0803B09F486C022
:1025500038F4803A09F466C0883A09F47FC0B4C000
:10256000803C09F4A7C0883C09F4A4C0883B09F466
:102570008AC0AAC08091BD0210C09091DF028091F4
:10258000DE02981770F5E091DF0281E08E0F8093F4
:10259000DF02F0E0E254FD4F80818093BB0085ECC8
:1025A00086C08093E0028EC0E091DF0281E08E0F52
:1025B0008093DF028091BB00F0E0E254FD4F808306
:1025C0009091DF028091DE026EC0E091DF0281E037
:1025D0008E0F8093DF028091BB00F0E0E254FD4F4C
:1025E00080838091E10281116DC081E08093BC0203
:1025F00084EA61C083E08093E2021092A705CFCF06
:102600008091A705803208F051C0E091A70581E0D4
:102610008E0F8093A7058091BB00F0E0E957FA4F39
:102620008083BDCF85EC8093BC001092E202809144
:10263000A705803230F4E091A705F0E0E957FA4FA2
:1026400010826091A70570E0E0916205F09163054A
:1026500087E895E009951092A70536C084E080933D
:10266000E2021092860510928505E0916005F091D6
:102670006105099580918505811105C081E08093F0
:10268000850510926505E091860581E08E0F8093A7
:102690008605F0E0EB59FA4F80818093BB00909162
:1026A000860580918505981708F479CF85E8809391
:1026B000BC000AC085EC8093BC001092E20204C00A
:1026C0001092E0020E94EB0FFF91EF91BF91AF914A
:1026D0009F918F917F916F915F914F913F912F913A
:1026E0000F900FBE0F901F901895DF92EF92FF9200
:1026F0000F931F93CF93DF93EC01D62E7A018901BC
:1027000088818C3008F068C061E08D2D0E94F80E41
:102710008881E82FF0E09F01220F331FE20FF31FA3
:10272000E854FB4F9D2D9F732081207CD22ED92A07
:10273000D08220E232E02E193F0937FF02C02D5F20
:102740003F4F3595279535952795298320E639E024
:10275000201B310B37FF02C02D5F3F4F359527956A
:10276000359527952A836CE00E94661A9CE0899F24
:10277000B001112440E050E09B01240F351FF90106
:10278000EE0FFF1F2E0F3F1FF901E854FB4F908102
:1027900096FD16C04F5F5F4F4C30510569F78111B0
:1027A0000FC01092800082E080938100109285001B
:1027B00010928400B19A80916F00826080936F00C4
:1027C000E881F0E0CF01880F991FE80FF91FE85466
:1027D000FB4F8081806480838881DF91CF911F913E
:1027E0000F91FF90EF90DF9008951F920F920FB618
:1027F0000F9211242F933F934F935F936F937F9387
:102800008F939F93AF93BF93EF93FF938091640552
:1028100087FF05C010928500109284001BC0209194
:102820006405022E000C330B8091DC0490E0281725
:10283000390784F480916405082E000C990BFC0183
:10284000EE0FFF1F8E0F9F1FFC01E854FB4F80818E
:1028500086FD15C0809164058F5F8093640520918B
:102860006405022E000C330B8091DC0490E02817E5
:102870003907C4F4809164058C3064F113C08091F1
:102880006405082E000C990BFC01EE0FFF1F8E0F44
:102890009F1FFC01E854FB4F808160E08F730E9412
:1028A000AB0ED8CF8091840090918500049680343F
:1028B0009C4918F480E49CE905C0809184009091C3
:1028C0008500049690938900809388008FEF809311
:1028D00064053BC02091840030918500809164059F
:1028E000082E000C990BFC01EE0FFF1F8E0F9F1F8F
:1028F000FC01E854FB4F81819281820F931F9093DA
:1029000089008093880080916405082E000C990B43
:10291000FC01EE0FFF1F8E0F9F1FFC01E854FB4FC1
:10292000808186FF12C080916405082E000C990BEF
:10293000FC01EE0FFF1F8E0F9F1FFC01E854FB4FA1
:10294000808161E08F730E94AB0EFF91EF91BF9188
:10295000AF919F918F917F916F915F914F913F9137
:102960002F910F900FBE0F901F9018958F929F92EE
:10297000AF92BF92CF92DF92EF92FF92209103012C
:10298000DC012A9FC0012B9F900D1124F0913D0581
:10299000E0913A0520913B0530913C054B01AA247A
:1029A000BB24C52ED62EE72EFF24280F391FD901B0
:1029B000AE0FB11DFF23D9F0FD01708320913905C1
:1029C000E0913B05F0913C05E80FF91FE20FF11D86
:1029D000808220913805E0913B05F0913C05E80F9D
:1029E000F91FE20FF11DC082209137050FC0FD01D4
:1029F000808220913905E0913B05F0913C05E80F7C
:102A0000F91FE20FF11DC08220913805E0913B05CE
:102A1000F0913C058E0F9F1FFC01E20FF11D4083DA
:102A200080E0FF90EF90DF90CF90BF90AF909F90AD
:102A30008F90089510923605109235051092340546
:102A4000E4E2F5E0ACE1B5E0119211921D9285E06F
:102A5000E433F807C9F70895789484B5826084BD9B
:102A600084B5816084BD85B5826085BD85B5816092
:102A700085BD80916E00816080936E001092810010
:102A800080918100826080938100809181008160CB
:102A9000809381008091800081608093800080918C
:102AA000B10084608093B1008091B0008160809318
:102AB000B00080917A00846080937A0080917A00DF
:102AC000826080937A0080917A00816080937A009E
:102AD00080917A00806880937A001092C10088E12A
:102AE0008093240480912504909126040E94101B59
:102AF000C0912404D0E0CE0101960E94781A9093F0
:102B0000260480932504FC01EC0FFD1F108212E0C7
:102B1000DC011C9325E011962C93AE014250510923
:102B200069EA71E002960E94C01B8FEF98E09093D3
:102B30002E0280932D028DEA96E090932C028093D2
:102B40002B0288E796E090932A028093290281E580
:102B500096E090932802809327028BE89BE0909365
:102B60002602809325028AEE98E0909324028093B7
:102B7000230283E990E09093300280932F0282EB4E
:102B800090E19093320280933102E0911703F0912B
:102B900018031083E0911703F09118031082E0915D
:102BA0001303F09114031082E0911503F0911603C2
:102BB00080E1808310921F03E0911B03F0911C03BE
:102BC00086E08083E0911903F0911A03808180618F
:102BD0008083E0911903F0911A03808188608083DB
:102BE000E0911903F0911A03808180688083E0915D
:102BF0001903F0911A0380818F7D80838091630493
:102C0000811140C061E08DE00E94F80EC0E062EDED
:102C100070E080E090E00E944B0F61E08DE00E9448
:102C2000AB0E68E270E080E090E00E944B0F60E045
:102C30008DE00E94AB0ECF5FC23049F76AEF70E0C3
:102C400080E090E00E944B0FC0E062ED70E080E019
:102C500090E00E944B0F61E08DE00E94AB0E68E2B5
:102C600070E080E090E00E944B0F60E08DE00E94F9
:102C7000AB0ECF5FC53049F76DE770E080E090E0C4
:102C80000E944B0F87E093E09093230480932204EB
:102C90009093E5038093E40384EE93E00E94D00DCB
:102CA00084EA93E00E94CF110E94B2100E941A158C
:102CB000EE24E394C2E0D0E001E010E025E0D22E63
:102CC00080913602882349F069B1809133026823EC
:102CD0006C7F40E080E00E94260A809137028823C2
:102CE00081F083B196B1682F6F73B0E49B9FC001F0
:102CF0001124862B60913402682340E081E00E9419
:102D0000260A80913802882359F066B16C73669563
:102D1000669580913502682340E082E00E94260A91
:102D20008091220490912304DC01ED91FC910084B8
:102D3000F185E02D0995892B09F4CEC180912204FB
:102D400090912304DC01ED91FC910284F385E02D48
:102D500009959C018F3FBFEF9B0711F3982F80913E
:102D6000EF03882309F492C0973F09F07EC01092C8
:102D7000EF03A091E703B091E8036C916137C1F1D3
:102D8000693709F05CC0E0911C04F0911D04309794
:102D900039F28091F0039091F1038330910538F47A
:102DA00020E030E040E050E060E070E01BC0BD019A
:102DB0006D5F7F4F03970E94920EBC016D5F7F4F46
:102DC00080E00E94630EE091E703F091E8039F0129
:102DD0002D5F3F4F428150E0618170E0E0911C0423
:102DE000F0911D048091FE039091FF03099598CF07
:102DF0008091180490911904892B09F491CFBD0199
:102E00006F5F7F4F8091F0039091F10301970E94D3
:102E1000920EBC016F5F7F4F80E00E94630E609155
:102E2000E7037091E8036F5F7F4FE0911804F09122
:102E300019048091040490910504099571CFE091E3
:102E40001A04F0911B04309709F46ACF9D012F5F9B
:102E50003F4F4091F0035091F1034150510980914F
:102E600006049091070409955BCF6091F00370917F
:102E7000F103822F0E94630E8091F0039091F10381
:102E800001969093F1038093F0034ACF6091ED0394
:102E90007091EE036115710509F4AFC027FDADC057
:102EA000615071097093EE036093ED03822F0E94CD
:102EB000630E8091ED039091EE03892B09F030CFE2
:102EC0008091EB03882309F42BCF803D09F47FC068
:102ED00030F4803939F1803C09F466C08BC0843FFE
:102EE000E1F1853F09F44DC0803E09F083C0E091D7
:102EF0000A04F0910B04309709F47CC0A091E70319
:102F0000B091E8038C9111964C9150E020E8829F9B
:102F1000400D511D11246091EC038091F2039091BA
:102F2000F30367C0E0910C04F0910D04309709F4AD
:102F300061C0A091E703B091E8038C9111964C9188
:102F400050E090E8899F400D511D11246091EC03E1
:102F50008091F4039091F5034CC0E0911204F0913C
:102F60001304309709F446C0A091E703B091E80339
:102F70004C9150E011966C918091FA039091FB0373
:102F800038C0E0911404F0911504309799F1A091A4
:102F9000E703B091E8034C9150E011966C91809159
:102FA000FC039091FD0325C0E0910E04F0910F0405
:102FB000309701F1A091E703B091E8034C9150E004
:102FC0006091EC038091F6039091F70312C0E091B9
:102FD0001004F0911104309769F0A091E703B091CB
:102FE000E8034C9150E06091EC038091F8039091DC
:102FF000F90309951092EB0393CE903F30F4822FA2
:103000008F708093EC03922F907F903F79F158F46A
:10301000903C29F118F49039E9F082CE903DF9F016
:10302000903EC1F07DCE993F09F449C028F48CE070
:10303000890F823078F074CE9F3F09F071CE1092E4
:10304000EE031092ED031092EB031092EC0380E07C
:1030500090E013C0D093EE03C093ED0304C010932F
:10306000EE030093ED039093EB035ACEE092EF034F
:103070001092F1031092F00353CE2091E9033091A6
:10308000EA038217930748F4E091E703F091E8031D
:10309000E80FF91F10820196F0CF1092EF03109203
:1030A000F1031092F003E0912004F0912104309795
:1030B00009F436CE80910804909109040BC0E09188
:1030C0001E04F0911F04309709F42ACE8091000469
:1030D00090910104099524CE8FB7F894409168022D
:1030E0005091690260916A0270916B028FBF80906B
:1030F000630290906402A0906502B09066022091F5
:10310000010130910201C901A0E0B0E0481959095C
:103110006A097B0984179507A607B70708F052C00C
:10312000880D991DAA1DBB1D8093630290936402B4
:10313000A0936502B093660287E2A82E84E0B82EC1
:1031400092EFF92EA5E0AF15B8F0F501808182303D
:1031500099F480916102909162020F2C02C09595C2
:1031600087950A94E2F780FF07C08F2D0E94340FE5
:10317000BC018F2D0E94130DF394FFEFAF1ABF0A0D
:1031800026E0F212DFCF8091000187FD1BC0F12CF9
:103190002F2D30E080910001082E000C990B821732
:1031A000930784F0D29EF001D39EF00D1124E75CCA
:1031B000FD4F618172812481438180810E94680A70
:1031C000F394E6CF0E94910F7BCD10920A031092E8
:1031D000090348EE53E060E070E040930B03509326
:1031E0000C0360930D0370930E038EE091E09093B7
:1031F00008038093070385EC90E090931403809379
:10320000130384EC90E0909316038093150380ECF5
:1032100090E0909318038093170381EC90E09093D3
:103220001A038093190382EC90E090931C0380931F
:103230001B0386EC90E090931E0380931D03109275
:10324000200310922103109222031092230384EA98
:1032500093E01092E5031092E4039093E8038093C7
:10326000E70320E430E03093EA032093E90310926F
:10327000EB031092EC031092EE031092ED03109208
:10328000EF031092F1031092F0031092F3031092E7
:10329000F2031092F5031092F4031092F7031092C8
:1032A000F6031092F9031092F8031092FB031092A8
:1032B000FA031092FD031092FC0310920304109283
:1032C0000204109205041092040410920704109254
:1032D0000604109209041092080410921704109228
:1032E00016041092E6031092240410922604109201
:1032F00025041092630421EE3FE030930B042093E9
:103300000A0427ED3FE030930D0420930C0429EBD1
:103310003FE030930F0420930E042FEA3FE03093F8
:103320001104209310042DEC3FE0309313042093FC
:10333000120423EC3FE030931504209314042EEA8A
:103340003FE0309319042093180423EA3FE03093C0
:103350001B0420931A0422E432E130931D042093CD
:103360001C049093FF038093FE032BEA30E130931B
:103370001F0420931E0490930104809300048BE9A2
:103380009FE0909321048093200410926704109290
:103390006604409368045093690460936A047093D0
:1033A0006B0480E291E09093650480936404E0E70D
:1033B000F4E01182108213821282399624E0E83BF5
:1033C000F207B9F78091DC04ADEDB4E09FEF48EB74
:1033D0005BE08C3078F48C93282F30E0F901EE0F0D
:1033E000FF1F2E0F3F1FF901E854FB4F528341830B
:1033F0008F5F01C09C93139625E0A130B20749F777
:103400008093DC040895052E97FB1EF400940E941F
:103410001A1A57FD07D00E94351A07FC03D04EF444
:103420000C941A1A50954095309521953F4F4F4F67
:103430005F4F089590958095709561957F4F8F4F60
:103440009F4F08950E94571AA59F900DB49F900D0D
:10345000A49F800D911D11240895B7FF0C94221A8A
:103460000E94221A821B930B0895A1E21A2EAA1B16
:10347000BB1BFD010DC0AA1FBB1FEE1FFF1FA21724
:10348000B307E407F50720F0A21BB30BE40BF50B21
:10349000661F771F881F991F1A9469F760957095AA
:1034A000809590959B01AC01BD01CF010895A29F2D
:1034B000B001B39FC001A39F700D811D1124911D08
:1034C000B29F700D811D1124911D0895991B79E003
:1034D00004C0991F961708F0961B881F7A95C9F7A4
:1034E00080950895EE0FFF1F0590F491E02D09944B
:1034F0000F931F93CF93DF938230910510F482E0F6
:1035000090E0E091AC05F091AD0520E030E0A0E066
:10351000B0E0309719F14081518102811381481741
:103520005907C8F08417950769F4109731F012967F
:103530000C93129713961C9327C00093AC0510931D
:10354000AD0522C02115310519F04217530718F4B3
:103550009A01BD01EF01DF01F801DBCF2115310533
:10356000F9F0281B390B2430310580F48A819B81C6
:103570006115710521F0FB019383828304C0909350
:10358000AD058093AC05FE01329644C0FE01E20F0A
:10359000F31F8193919322503109398328833AC0D4
:1035A0002091AA053091AB05232B41F4209106010F
:1035B000309107013093AB052093AA0520910401B7
:1035C000309105012115310541F42DB73EB74091E9
:1035D000080150910901241B350BE091AA05F091D7
:1035E000AB05E217F307A0F42E1B3F0B2817390792
:1035F00078F0AC014E5F5F4F2417350748F04E0F4F
:103600005F1F5093AB054093AA058193919302C02D
:10361000E0E0F0E0CF01DF91CF911F910F9108958D
:10362000CF93DF93009709F481C0FC013297138296
:103630001282A091AC05B091AD05109781F4208164
:103640003181820F931F2091AA053091AB05281775
:10365000390751F5F093AB05E093AA0567C0ED017A
:1036600020E030E0CE17DF0740F44A815B819E0105
:1036700041155105F1F0EA01F5CFD383C2834081B2
:103680005181840F951FC817D90759F488819981F2
:10369000840F951F0296918380838A819B819383F7
:1036A00082832115310529F4F093AD05E093AC0533
:1036B0003DC0E901FB83EA8349915991C40FD51FAD
:1036C000EC17FD0761F480819181840F951F0296AC
:1036D000E90199838883828193819B838A83E0E0D7
:1036E000F0E012968D919C911397009719F0FD01CF
:1036F000DC01F7CF8D919C9111979D012E5F3F4F7B
:10370000820F931F2091AA053091AB052817390726
:1037100069F4309729F41092AD051092AC0502C0FF
:1037200013821282B093AB05A093AA05DF91CF91CB
:10373000089581E090E0F8940C94CF1BFB01DC012C
:1037400002C001900D9241505040D8F7089568177B
:10375000790768F4FB01DC01E40FF51FA40FB51F26
:1037600002C002900E9241505040D8F708950C9438
:103770009E1BDC0101C06D9341505040E0F708955D
:10378000FB01DC014150504048F001900D920020B7
:10379000C9F701C01D9241505040E0F70895F894D8
:0237A000FFCF59
:1037A200FF1300030000AE05800000000000B40714
:1037B2004D0777070108850F86079A07000000006A
:1037C20078104B10A8101F1043102F10201031300A
:1037D2002D6269742061646472657373696E672017
:1037E2006E6F7420737570706F7274656400746F9D
:1037F2006F206D616E792071756572696573002F36
:1038020055736572732F6367727567613230302F3B
:10381200446576656C6F706D656E742F6E6F64654E
:103822002D706978656C2F6669726D776172652F8C
:103832006275696C642F6E6F64655F706978656C20
:103842005F6669726D6174612F6E6F64655F706926
:1038520078656C5F6669726D6174612E696E6F0066
:103862004932433A20546F6F206D616E792062793C
:1038720074657320726563656976656400493243D5
:103882003A20546F6F2066657720627974657320E1
:103892007265636569766564004D6178207365724F
:1038A200766F7320617474616368656400556E6B32
:0E38B2006E6F776E2070696E206D6F6465001A
:00000001FF
