:1000000007C1000034C1000032C1000030C100004F
:100010002EC100002CC100002AC1000028C1000030
:1000200026C1000024C1000022C1000020C1000040
:100030001EC100001CC100001AC1000018C1000050
:1000400016C1000014C1000012C1000010C1000060
:100050000EC100000CC100000AC100003CC6000037
:1000600006C1000004C1000002C1000000C1000080
:10007000FEC00000FCC00000FAC00000F8C0000094
:10008000F6C00000F4C00000F2C00000F0C00000A4
:10009000EEC00000ECC00000EAC0000066C6000030
:1000A000E6C00000E4C00000E2C00000E0C00000C4
:1000B000DEC00000DCC00000DAC00000D8C00000D4
:1000C000D6C00000D4C00000D2C00000D0C00000E4
:1000D000CEC00000CCC00000CAC00000C8C00000F4
:1000E000C6C000006501680157015B015F019F0107
:1000F0006C01700176017A017E01840188018C0116
:100100009F01920196019A0100002100240027001E
:100110002A002D0030003300010100000401070116
:100120000A0100002200250028002B002E003100CB
:10013000340002010000050108010B010505050559
:10014000070508080808020202020A0A080804044F
:10015000040401010101010101010303030303037D
:100160000303040707070C0C0C0C0C0C0C0C02020C
:10017000020206060606060606060B0B0B0B0B0B09
:100180000B0B010210202008081020401020408096
:10019000020102010804020101020408102040804B
:1001A00080402010080402018004020180402010D9
:1001B0000804020108040201010204081020408022
:1001C000010204081020408000000A0B02090C0DF7
:1001D0000E080703040100000000000000000000FA
:1001E000000000000000000000000000000000000F
:1001F00000000000121110000000000000000000CC
:100200000000000000000000000000000000E60701
:1002100011241FBECFEFD1E2DEBFCDBF00E00CBF87
:1002200012E0A0E0B2E0E0E3F4E100E00BBF02C0C6
:1002300007900D92AA31B107D9F723E0AAE1B2E005
:1002400001C01D92A433B207E1F711E0C8E0D1E08C
:1002500000E005C021970109802FFE0199D7C73022
:10026000D10780E00807B1F7D3D60C94160AC8CEA0
:1002700090E0FC01E853FE4F4491FC01EE57FE4F25
:100280002491FC01E45CFE4F9491992309F465C02C
:10029000442309F454C050E0FA013197E231F105EA
:1002A00008F04DC08827EE58FF4F8F4F71C78091DF
:1002B00080008F7707C0809180008F7D03C0809180
:1002C0008000877F809380003AC084B58F7702C01A
:1002D00084B58F7D84BD33C08091B0008F7703C01B
:1002E0008091B0008F7D8093B00029C080919000F4
:1002F0008F7707C0809190008F7D03C08091900020
:10030000877F809390001BC08091A0008F7707C0EB
:100310008091A0008F7D03C08091A000877F809393
:10032000A0000DC0809120018F7707C0809120012F
:100330008F7D03C080912001877F80932001E92F6A
:10034000F0E0EE0FFF1FEE5DFE4FA591B4918FB769
:10035000F894EC91E22BEC938FBF08953FB7F8949B
:100360008091D8029091D902A091DA02B091DB027B
:1003700026B5A89B05C02F3F19F00196A11DB11D00
:100380003FBFBA2FA92F982F8827820F911DA11D3B
:10039000B11DBC01CD0142E0660F771F881F991F78
:1003A0004A95D1F708950895CF93DF93AC01E0917A
:1003B000D102F091D2023097F1F09091D002809169
:1003C000CF029817C0F090E0292F30E026173707AA
:1003D00054F4D901A15CBD4FEA01C20FD31F28819B
:1003E0002C939F5FF1CF1092D0026093CF02CB018C
:1003F000DF91CF911994DF91CF910895CF92DF9241
:10040000EF92FF920F931F93CF93DF936C017A01CA
:100410008B01C0E0D0E0CE15DF0581F0D8016D91F1
:100420008D01D601ED91FC910190F081E02DC60186
:100430001995892B11F02196EECF7E01C701DF912E
:10044000CF911F910F91FF90EF90DF90CF90089583
:1004500085ED8093BC008091BC0084FDFCCF1092A0
:10046000CC02089540917F02262F30E0240F311DE9
:1004700021323105DCF42091CC022430C9F4FC0196
:1004800080E090E0861758F430917F022191DC01E2
:10049000A15ABD4FA30FB11D2C930196F3CF8091AC
:1004A0007F02680F60937F0280E0089581E00895E5
:1004B00082E008950895E091D0028091CF02E8177C
:1004C00030F4F0E0E15CFD4F808190E008958FEF23
:1004D0009FEF08959091D0028091CF02981750F429
:1004E000E92FF0E0E15CFD4F208130E09F5F9093C9
:1004F000D00202C02FEF3FEFC90108958091CF02D3
:1005000090E02091D002821B91090895CF93DF9350
:10051000CB01EA01642FA6DFCE01DF91CF910895D0
:10052000CF93DF931F92CDB7DEB7698361E0CE0131
:10053000019698DF81E090E00F90DF91CF910895D0
:10054000089580E090E008958F929F92AF92BF92BD
:10055000CF92DF92EF92FF9220910002FC012E9F3A
:10056000C0012F9F900D1124F0913E0220913C027A
:1005700030913D02E0913B02B0913A024B01AA2436
:10058000BB24A0913902C52ED62EE72EFF24820F60
:10059000931F9C012E0F311DFF2381F0F901708301
:1005A000FC01EB0FF11D8082FC01EA0FF11DC082FE
:1005B00020913802FC01E20FF11D09C0F90180828F
:1005C000FC01EB0FF11DC082FC01EA0FF11D40831D
:1005D00080E0FF90EF90DF90CF90BF90AF909F9022
:1005E0008F900895DC0170E0FB01EE57FE4FE4911F
:1005F0001896EC931897645C7E4FFB018491E82F6A
:10060000F0E0EE0FFF1FEE5DFE4F85919491159681
:100610009C938E931497FB016491E62FF0E0EE0F0C
:10062000FF1FE85FFE4F8591949117969C938E93E0
:10063000169708950F931F93CF93809337021092CC
:1006400036021092350210923402E4E2F2E0ACE19C
:10065000B2E0119211921D9292E0E433F907C9F7CA
:10066000882359F008EE12E0C0E06C2FC801BADF11
:10067000CF5F075F1F4FC830C1F7CF911F910F9118
:100680000895AFD64F925F926F927F928F929F9212
:10069000AF92BF92CF92DF92EF92FF920F931F9390
:1006A000CF93DF93CDB7DEB760970FB6F894DEBF78
:1006B0000FBECDBF6C0110E0E12EF12CEC14FD0457
:1006C00084F48CED92E0103148F404DFE1E0F0E0D6
:1006D000EC0FFD1FEE0DFF1D808301C0FBDE1F5FD1
:1006E000EBCF9981892F8F70833009F4E9C030F402
:1006F000813009F440C1823041F0D6C2843009F41F
:1007000080C0853009F4FDC1CFC280911B028111E8
:10071000CBC280911A028111C7C281E080931B0273
:10072000F12CA9E0EA2E80913602F81608F066C096
:100730008F2D90E0BC01645E7D4FDB012C91222364
:1007400009F458C0C090000280903C0290903D0295
:10075000E89ED001E99EB00D1124A851BD4F169618
:100760002D913C911797F901908118968C911897CB
:10077000892B808314960D911C9115971896BC9027
:100780001897D12C8D919C911197C89E9001C99E6C
:10079000300DD89E300D112412968D919C91139797
:1007A000C89EA001C99E500DD89E500D1124F40181
:1007B000E40FF51FD8018C919B2D90959823B82AB2
:1007C0004FB7F8942E0F3F1FE217F30789F05191AE
:1007D000D80188E0BC9200C057FF9C93550F00C021
:1007E00000C000C008F49C9300C08A9599F7ECCF34
:1007F0004FBF7894DB011C92F39495CF10921B02AB
:1008000053C280911A0281114FC28C8190E0A0E006
:10081000B0E0AC01BD013EE0440F551F661F771FDD
:100820003A95D1F79D81892F90E0A0E0B0E0E5E115
:10083000880F991FAA1FBB1FEA95D1F7840F951F38
:10084000A61FB71F2A81820F911DA11DB11DCB804C
:10085000D12CE12CF12CF7E0CC0CDD1CEE1CFF1CA4
:10086000FA95D1F7C80ED91EEA1EFB1EC114D10499
:10087000E104F10419F000E010E013C0209100023F
:100880008091340290913502289FA001299F500D3C
:10089000112460E070E080913C0290913D02BFD550
:1008A000CDC180913402909135020817190708F0E4
:1008B000C5C1B701A601C80147DE0F5F1F4FF1CFC9
:1008C00080911A028111F0C18B810A8110E0B0E899
:1008D0008B9F000D111D11248091340290913502DF
:1008E0000817190798F58E8190E0A0E0B0E0AC0100
:1008F000BD01EEE0440F551F661F771FEA95D1F743
:100900009F81892F90E0A0E0B0E0F5E1880F991F6A
:10091000AA1FBB1FFA95D1F7840F951FA61FB71FFB
:100920002C81820F911DA11DB11D4D8150E060E011
:1009300070E027E0440F551F661F771F2A95D1F7F7
:10094000480F591F6A1F7B1FC801FEDD4091360208
:10095000A4E2B2E080E090E0841708F0A5C1FC01B9
:100960002D913D91019602171307B0F7E45EFD4FFC
:1009700081E0808399C1913009F096C1E2E0EC15E5
:1009800008F092C18091370255DE8BEAC89EF12CA7
:100990001124F69494E2892E92E0992E28EEA22E4C
:1009A00022E0B22ECE0101966C01712CEE24E3946C
:1009B00032E0632E44E0542E53E0452E80913702FE
:1009C000811106C0D60111966C916F71C5010ADEC6
:1009D000F601218130E085E0359527958A95E1F78C
:1009E00021303105D9F03CF4232B29F510923A023D
:1009F000E0923B0217C022303105B9F023303105B7
:100A0000D1F4E0923E025092000210923B02E0923A
:100A10003A0260923902409238020DC010923B02B5
:100A2000E0923A026092390206C010923902E092D6
:100A30003B0260923A02D60113968C91139712965C
:100A40000C9110E0B0E88B9F000D111D1124F501F1
:100A500011830083772029F0F401329780819181FE
:100A600002C080E090E09801280F391FD4012D9337
:100A70003D934D01F50193838283809134029091DF
:100A80003502080F191F109335020093340280912C
:100A900036028F5F809336027394F9E0AF0EB11C7B
:100AA00023E0C20ED11CF71089CF80913C029091B7
:100AB0003D02009729F00CD41092350210923402B6
:100AC0000115110509F4F0C080910002809F7001AA
:100AD000819FF00C1124C70163D390933D02809352
:100AE0003C02009749F0A70160E070E098D41093B1
:100AF000350200933402D8C01092350210923402AD
:100B0000D3C08A81982F9F7109F498C0A82FA07232
:100B10009A2EC09000029C9D002D112421E020936C
:100B20001A0210E0E92EF12CD12CB82FB0748B2EC4
:100B300086FF27C0C80134D35C01009721F0A801CB
:100B400060E070E06CD4992039F08091340290918B
:100B500035028E199F0902C080E090E0C89E900186
:100B6000C99E300DD89E300D112460913C027091C9
:100B70003D02620F731FA801C50137D491107CC0DC
:100B80001AC0AA23C1F080913C0290913D022091AD
:100B90003402309135022E193F092C9DA0012D9D64
:100BA000500D3C9D500D1124BC01800F911F26D487
:100BB00020E030E030C060903402709035026E1852
:100BC0007F0880913C0290913D02C69CA001C79C89
:100BD000500DD69C500D1124BC01600F711F0ED416
:100BE000882099F0C69CC001C79C900DD69C900DA2
:100BF000112420913C0230913D02A801B501820FE1
:100C0000931FF3D3C50164D317C0209134023091F0
:100C100035022E193F09C29EC001C39E900DD29E7F
:100C2000900D112420913C0230913D02A80160E01A
:100C300070E0820F931FF3D310921A024091360294
:100C400050E061E070E08CE192E060960FB6F894BD
:100C5000DEBF0FBECDBFDF91CF911F910F91FF90EF
:100C6000EF90DF90CF90BF90AF909F908F907F904C
:100C70006F905F904F90D3C380913C0290913D0262
:100C800020913402309135022E193F092C9DA0018C
:100C90002D9D500D3C9D500D1124BC01800F911FC6
:100CA000ADD3612C712C9ECF60960FB6F894DEBF49
:100CB0000FBECDBFDF91CF911F910F91FF90EF90AD
:100CC000DF90CF90BF90AF909F908F907F906F906C
:100CD0005F904F9008951F920F920FB60F921124BC
:100CE0002F933F938F939F93AF93BF938091D402A1
:100CF0009091D502A091D602B091D7023091D30243
:100D000023E0230F2D3720F40196A11DB11D05C04E
:100D100026E8230F0296A11DB11D2093D3028093D4
:100D2000D4029093D502A093D602B093D7028091BB
:100D3000D8029091D902A091DA02B091DB0201961B
:100D4000A11DB11D8093D8029093D902A093DA021D
:100D5000B093DB02BF91AF919F918F913F912F9103
:100D60000F900FBE0F901F9018951F920F920FB605
:100D70000F9211240BB60F922F933F934F935F93D3
:100D80006F937F938F939F93AF93BF93EF93FF9353
:100D90008091B900887F803609F49CC068F588325C
:100DA00009F45BC090F4803109F454C038F488230E
:100DB00009F4F6C0883009F44DC0F5C0883109F453
:100DC0004CC0803209F45DC0EEC0803409F468C0C4
:100DD00048F4803309F455C0883309F0E4C08093A7
:100DE000A202D8C0803509F44FC0883509F45DC02F
:100DF000883409F0D8C0D6C0883909F4C7C0A8F42F
:100E0000883709F467C038F4883609F463C080373E
:100E100009F460C0C8C0883809F4B8C0803909F442
:100E20005FC0803809F0BFC05BC0803B09F486C05A
:100E300038F4803A09F466C0883A09F47FC0B3C038
:100E4000803C09F4A7C0883C09F4A4C0883B09F49D
:100E50008AC0A9C08091C50210C09091C40280913F
:100E6000C302981770F5E091C40281E08E0F809361
:100E7000C402F0E0ED55FD4F80818093BB0085EC0E
:100E800086C08093A2028EC0E091C40281E08E0FE2
:100E90008093C4028091BB00F0E0ED55FD4F80834C
:100EA0009091C4028091C3026EC0E091C40281E0BF
:100EB0008E0F8093C4028091BB00F0E0ED55FD4F92
:100EC00080838091CB0281116DC081E08093CA0242
:100ED00084EA61C083E08093CC021092A102CFCF5C
:100EE0008091A102803208F051C0E091A10281E01E
:100EF0008E0F8093A1028091BB00F0E0EF57FD4F71
:100F00008083BDCF85EC8093BC001092CC02809191
:100F1000A102803230F4E091A102F0E0EF57FD4FE2
:100F200010826091A10270E0E091C602F091C702C8
:100F300081E892E019951092A10235C084E0809377
:100F4000CC021092800210927F02E091C802F091D0
:100F5000C902199580917F02811105C081E08093BB
:100F60007F0210925F02E091800281E08E0F8093F9
:100F70008002F0E0E15AFD4F80818093BB009091A8
:100F8000800280917F02981708F479CF85E88093DA
:100F9000BC0009C085EC8093BC001092CC0203C059
:100FA0001092A20255DAFF91EF91BF91AF919F91FC
:100FB0008F917F916F915F914F913F912F910F9002
:100FC0000BBE0F900FBE0F901F9018951092DF026E
:100FD0001092DE0288EE93E0A0E0B0E08093E002A1
:100FE0009093E102A093E202B093E3028BE092E0DF
:100FF0009093DD028093DC02E8EEF2E01182108231
:1010000013821282399683E0E033F807B9F7089526
:10101000789484B5826084BD84B5816084BD85B5D3
:10102000826085BD85B5816085BD80916E008160DF
:1010300080936E0010928100809181008260809385
:101040008100809181008160809381008091800087
:101050008160809380008091B10084608093B100B2
:101060008091B00081608093B00080919100826097
:101070008093910080919100816080939100809194
:1010800090008160809390008091A10082608093A5
:10109000A1008091A10081608093A1008091A000B7
:1010A00081608093A0008091210182608093210162
:1010B00080912101816080932101809120018160D4
:1010C0008093200180917A00846080937A008091DF
:1010D0007A00826080937A0080917A0081608093A8
:1010E0007A0080917A00806880937A001092C10023
:1010F0001092D0021092CF021092CE021092CD0226
:101100001092CC0281E08093CB021092CA0284E15B
:10111000AFD885E1ADD88091B9008E7F8093B900BA
:101120008091B9008D7F8093B90088E48093B800E6
:1011300085E48093BC0083ED91E09093C902809395
:10114000C80284ED91E09093C7028093C60284E8C0
:101150008093BA0082E493E09093D2028093D1020C
:1011600081E068DAC0E0D0E0F9D86B017C01F6D804
:10117000DC01CB018C199D09AE09BF09883E934063
:10118000A105B105A0F3209779F30E940000ECCFF0
:10119000EE0FFF1F881F8BBF0790F691E02D19946B
:1011A0000F931F93CF93DF938230910510F482E069
:1011B00090E0E0913203F091330320E030E0A0E0D2
:1011C000B0E0309719F140815181028113814817B5
:1011D0005907C8F08417950769F4109731F01296F3
:1011E0000C93129713961C9327C00093320310930D
:1011F000330322C02115310519F04217530718F4A3
:101200009A01BD01EF01DF01F801DBCF21153105A6
:10121000F9F0281B390B2430310580F48A819B8139
:101220006115710521F0FB019383828304C09093C3
:10123000330380933203FE01329644C0FE01E20F75
:10124000F31F8193919322503109398328833AC047
:101250002091300330913103232B41F4209103027C
:101260003091040230933103209330032091010226
:10127000309102022115310541F42DB73EB740915E
:10128000050250910602241B350BE0913003F091CA
:101290003103E217F307A0F42E1B3F0B2817390781
:1012A00078F0AC014E5F5F4F2417350748F04E0FC2
:1012B0005F1F50933103409330038193919302C099
:1012C000E0E0F0E0CF01DF91CF911F910F91089501
:1012D000CF93DF93009709F481C0FC01329713820A
:1012E0001282A0913203B0913303109781F42081D0
:1012F0003181820F931F20913003309131032817E1
:10130000390751F5F0933103E093300367C0ED01E5
:1013100020E030E0CE17DF0740F44A815B819E0178
:1013200041155105F1F0EA01F5CFD383C283408125
:101330005181840F951FC817D90759F48881998165
:10134000840F951F0296918380838A819B8193836A
:1013500082832115310529F4F0933303E09332039E
:101360003DC0E901FB83EA8349915991C40FD51F20
:10137000EC17FD0761F480819181840F951F02961F
:10138000E90199838883828193819B838A83E0E04A
:10139000F0E012968D919C911397009719F0FD0142
:1013A000DC01F7CF8D919C9111979D012E5F3F4FEE
:1013B000820F931F20913003309131032817390792
:1013C00069F4309729F4109233031092320302C06B
:1013D00013821282B0933103A0933003DF91CF9137
:1013E000089581E090E0F89421C0FB01DC0102C087
:1013F00001900D9241505040D8F708956817790731
:1014000068F4FB01DC01E40FF51FA40FB51F02C057
:1014100002900E9241505040D8F70895E6CFDC017B
:1014200001C06D9341505040E0F70895F894FFCF0C
:10143000030000340380000000000090028602A137
:0A144000025A027E026A025B0200FB
:00000001FF
