:100000000C9405010C942D010C942D010C942D01E0
:100010000C942D010C942D010C942D010C942D01A8
:100020000C942D010C94DE060C94D6030C94480419
:100030000C942D010C942D010C942D010C942D0188
:100040000C942D010C94A5190C942D010C942D01E8
:100050000C942D010C942D010C942D010C94011B7A
:100060000C942D010C94AC060C9486060C942D0176
:100070000C942D010C942D010C942D010C942D0148
:100080000C942D010C942D010C942D010C942D0138
:100090000C94F7170C942D010C942D010C942D0148
:1000A0000C942D010C942D010C942D0114091909A7
:1000B0001E09280932097C097C097C093C0946098A
:1000C00050095A0967097C096F09AD0BD40B9D0BC8
:1000D000E80B0A0C3E0C320C3E0C3E0C3E0C650C40
:1000E000BD0B1D1320130F131313191341134113C9
:1000F0004113241328132C133213361341133C13CA
:10010000080B0002020201000904000001020200C3
:100110000005240010010524010101042402060544
:1001200024060001070581031000400904010002B4
:100130000A00000007050202400000070583024094
:1001400000000403090412010002EF0201404123F0
:10015000368000010102030141726475696E6F20EF
:100160004C4C430041726475696E6F204C656F6E34
:100170006172646F00070605040100080A0B0C0D8C
:100180000900000000240027002A002D0030000094
:10019000000000250028002B002E00310000000088
:1001A000002300260029002C002F0004040404046E
:1001B000030405020202020403020202020606060A
:1001C00006060604040202020404040802011040A8
:1001D00080401020408040800802040180402010B0
:1001E0000201108010204040200000000200090F92
:1001F0000000030401000C000000000000000000EB
:1002000000000000000000008F2011241FBECFEF6F
:10021000DAE0DEBFCDBF12E0A0E0B1E0E6E2F7E455
:1002200002C005900D92A434B107D9F726E0A4E4EA
:10023000B2E001C01D92A536B207E1F711E0C5E0BA
:10024000D1E004C02197FE010E943422C430D107BE
:10025000C9F70E944B1B0C9491230C940000409111
:1002600090025091910220918E0230918F0242179C
:100270005307B4F49091E8009570E1F39091E80091
:1002800092FD19C08093F1008091900290919102AB
:1002900001968F739927892B19F48EEF8093E800CC
:1002A0008091900290919102019690939102809397
:1002B000900281E0089580E00895DF92EF92FF922E
:1002C0000F931F93CF93DF93D82E8A017B01E40E07
:1002D000F51EEB01CE15DF0571F0D7FE03C0FE0160
:1002E000849101C088810E942F0121968111F2CF53
:1002F0008FEF9FEF01C0C801DF91CF911F910F9148
:10030000FF90EF90DF900895615030F02091F10060
:10031000FC0120830196F8CF289884E68093E502BB
:100320000895CF92DF92EF92FF920F931F93CF9396
:10033000DF936C017A018B01C0E0D0E0CE15DF05C0
:1003400081F0D8016D918D01D601ED91FC91019064
:10035000F081E02DC6010995892B11F02196EECF91
:100360007E01C701DF91CF911F910F91FF90EF9018
:10037000DF90CF900895FC01538D448D252F30E000
:10038000842F90E0821B930B541710F0CF960895A2
:1003900001970895FC01918D828D981761F0828DEF
:1003A000DF01A80FB11D5D968C91928D9F5F9F73A9
:1003B000928F90E008958FEF9FEF0895FC01918D4B
:1003C000828D981731F0828DE80FF11D858D90E0B8
:1003D00008958FEF9FEF0895FC01918D228D892F55
:1003E00090E0805C9F4F821B91098F73992708953D
:1003F00082E393E00E94EC0121E0892B09F420E0E4
:10040000822F0895FC01848DDF01A80FB11DA35A2E
:10041000BF4F2C91848D90E001968F739927848F24
:10042000A689B7892C93A089B1898C9182748C9309
:10043000938D848D981306C00288F389E02D808106
:100440008F7D80830895EF92FF920F931F93CF9338
:10045000DF93EC0181E0888F9B8D8C8D981305C014
:10046000E889F989808185FD26C0F62E0B8D10E084
:100470000F5F1F4F0F731127E02E8C8DE8120CC0F9
:100480000FB607FCFACFE889F989808185FFF5CF9F
:10049000CE010E940202F1CF8B8DFE01E80FF11D0B
:1004A000E35AFF4FF0829FB7F8940B8FEA89FB89DC
:1004B0008081806209C09FB7F894EE89FF896083CC
:1004C000E889F9898081827480839FBF81E090E010
:1004D000DF91CF911F910F91FF90EF900895CF93EF
:1004E000DF93EC01888D8823C9F0EA89FB8980813C
:1004F00085FD05C0A889B9898C9186FD0FC00FB60E
:1005000007FCF5CF808185FFF2CFA889B9898C914E
:1005100085FFEDCFCE010E940202E7CFDF91CF91A0
:10052000089580E090E0892B29F00E94F801811164
:100530000C9400000895CF93DF931F92CDB7DEB7E0
:100540006983DC01ED91FC910280F381E02D41E0B3
:1005500050E0BE016F5F7F4F09950F90DF91CF9103
:10056000089583E08093E9008091F200882319F0D8
:100570008AE38093E8000895FC018485958597FDC2
:100580000BC09FB7F89482E08093E9008091F2005D
:100590009FBF90E0019608959FB7F89482E0809302
:1005A000E9008091F2009FBF90E008950E945B23D4
:1005B0000F931F93CF93DF931F92CDB7DEB782E0E7
:1005C000898342E450E060E071E080E80E945D01D0
:1005D0000E941915DC0112960D911C9113970115BB
:1005E000110589F0D801ED91FC910280F381E02D95
:1005F000BE016F5F7F4FC801099597FD04C0F801E8
:1006000000851185ECCF89810F90DF91CF911F91EB
:100610000F9108958F929F92AF92BF92CF92DF92E7
:10062000EF92FF920F931F93CF93DF936C017B01A7
:100630008A0180910701882309F45CC08091E60259
:10064000882309F457C08091440280FF05C080913F
:10065000E00082608093E000E801B12C8AEFA82ED0
:1006600093E0892E2AE3922E209711F4BB20D9F132
:100670000E94081581110AC0AA94AA20D9F161E04C
:1006800070E080E090E00E94EC15EECF282F30E083
:10069000C217D3070CF48C2F9FB7F8948092E9000F
:1006A0002091E80025FF1DC0282F30E0C21BD30B8E
:1006B000F701815020F041914093F100FACFE20E12
:1006C000F31EBB2019F09092E8000AC08091E80068
:1006D00085FD07C09092E800BB24B394209709F0F1
:1006E000B12C9FBFC1CF5D9884E680939302101612
:1006F000110644F081E090E0F6019383828380E06C
:1007000090E001C0C801DF91CF911F910F91FF9040
:10071000EF90DF90CF90BF90AF909F908F90089513
:100720000E94081590E008950F931F93CF93DF93D5
:100730001F92CDB7DEB78C01FC018485958597FFAC
:100740000EC0CE0101960E94DA14019719F4898136
:1007500090E002C08FEF9FEFF80195878487F80142
:10076000848595850F90DF91CF911F910F9108950A
:10077000CF93DF931F92CDB7DEB7FC0184859585BB
:1007800097FD05C02FEF3FEF358724870BC0CE01C3
:1007900001960E94DA14019719F4898190E002C051
:1007A0008FEF9FEF0F90DF91CF9108951F920F92DF
:1007B0000FB60F9211248F939F938091E100909137
:1007C000E100937F9093E10083FF0FC01092E90056
:1007D00091E09093EB001092EC0092E39093ED0087
:1007E0001092E60298E09093F00082FF20C093E020
:1007F0009093E9009091F200992319F09AE3909375
:10080000E80090919302992339F0909193029150CE
:1008100090939302992389F19091E502992339F0FD
:100820009091E50291509093E502992341F184FF64
:1008300010C08091E2008E7E81608093E200809102
:10084000E1008F7E8093E100809144028E7E806182
:1008500011C080FF16C08091E2008E7E806180937F
:10086000E2008091E1008E7E8093E100809144025D
:100870008E7E81608093440204C05D9ACDCF289A19
:10088000D6CF9F918F910F900FBE0F901F9018950C
:100890001F920F920FB60F921124CF92DF92EF9218
:1008A000FF920F931F932F933F934F935F936F93F9
:1008B0007F938F939F93AF93BF93EF93FF93CF93C8
:1008C000DF93CDB7DEB76C97DEBFCDBF1092E900E6
:1008D0008091E80083FFFBC168E0CE0145960E944D
:1008E000840182EF8093E8008D8987FF05C0909195
:1008F000E80090FFFCCF03C09EEF9093E800982F94
:10090000907609F0C6C09E894F89588D2F89F88C42
:1009100091110CC0803829F4809145028093F10038
:1009200002C01092F1001092F10045C1913051F4D3
:10093000811141C14130510509F03DC1809145020D
:100940008D7F0BC0933061F4811135C14130510569
:1009500009F031C1809145028260809345022BC12C
:10096000953049F48091E80080FFFCCF822F8068A9
:100970008093E30020C1963009F05EC00B8D1C8D82
:1009800022E01092E9001092910210929002F2126D
:1009900032C010928F0210928E020E94D80299E00B
:1009A000BE016F5F7F4FDB01E92F1D92EA95E9F7EA
:1009B0009983FA8291E09E8390EA98879AEF9987CB
:1009C0002091900230919102275F3F4F3C832B830F
:1009D0008D831092E9001092910210929002109370
:1009E0008F0200938E0249E050E080E00E945D019A
:1009F0000E94D802E0C010938F0200938E020E94E2
:100A00001915DC0112960D911C9113970115110512
:100A100009F4BBC0D801ED91FC910480F581E02D73
:100A2000BE016B5E7F4FC8010995009709F0C7C0F2
:100A3000F80100851185EACF973009F445C1983057
:100A400021F481E08093F100B6C0993009F0B3C081
:100A5000837009F039C1E7E1F1E081E031E096E32C
:100A60002081211109C08EE78093EA001092EA00EC
:100A70008F898093E6029FC08093E9003093EB005A
:100A800021912093EC009093ED008F5F873041F728
:100A9000EACF8B8D9C8D1092E900109291021092FA
:100AA000900290938F0280938E02898D811153C0A2
:100AB0008E899D89913A49F4813209F005C147E058
:100AC00050E060E071E080E0BBC0913209F0FCC012
:100AD000833269F48F89988DA0E0B0E080930B0198
:100AE00090930C01A0930D01B0930E0164C080326D
:100AF00069F48091E80082FFFCCF67E080E091E03C
:100B00000E9484018BEF8093E80055C0823209F087
:100B100052C08F8980930701EEEFFFE78591949192
:100B20008B3F9C4D19F0E0E0F8E002C0EEEFFAE0F8
:100B30008091000190910101A0910201B091030107
:100B4000803B9440A105B10509F09EC0809107014A
:100B500080FF79C099C00E941915FC0102811381A0
:100B60000115110509F4B0C0D801ED91FC91019077
:100B7000F081E02DBE016B5E7F4FC80109958111A8
:100B80001AC0F80100851185EBCFF1E0FF1609F4DA
:100B90004EC0F3E0FF1298C08F89882309F44AC041
:100BA000823089F440E860E184E691E00E945A20B6
:100BB000882309F489C08EEF8093E80088C0181656
:100BC0001906CCF381C0813029F440E86BE088E558
:100BD00091E0ECCF833009F077C00E941915DC0159
:100BE0001296ED90FC9013978E010F5F1F4F6801D6
:100BF000E114F10479F0D701ED91FC910680F781C1
:100C0000E02DB801C7010995080F111DF701E08417
:100C1000F184EECFD8011C92F60101900020E9F793
:100C20003197BF016C197D0940E0C601BFCF66E472
:100C300071E002C062E471E0FB01449150E080E8A1
:100C40000E945D01B8CFEE3F2AE0F20751F08081AB
:100C500091818737A7E79A0721F09093FF0A809345
:100C6000FE0A87E797E791838083809160008093F5
:100C700092029BE088E10FB6F894A89580936000FB
:100C80000FBE9093600097CF8081918187379747FF
:100C900009F091CFA89580916000886180936000F1
:100CA0008091920280936000EE3FBAE0FB0739F03A
:100CB0008091FE0A9091FF0A918380837CCF1092ED
:100CC000FF0A1092FE0A77CF81E28093EB006C96C8
:100CD0000FB6F894DEBF0FBECDBFDF91CF91FF916D
:100CE000EF91BF91AF919F918F917F916F915F91A4
:100CF0004F913F912F911F910F91FF90EF90DF90B7
:100D0000CF900F900FBE0F901F9018951F920F92CB
:100D10000FB60F9211242F933F934F935F936F93CE
:100D20007F938F939F93AF93BF93EF93FF9382E350
:100D300093E00E940202FF91EF91BF91AF919F91CA
:100D40008F917F916F915F914F913F912F910F9074
:100D50000FBE0F901F9018951F920F920FB60F9213
:100D600011242F938F939F93EF93FF93E09142036E
:100D7000F09143038081E0914803F091490382FDA3
:100D800012C0908180914B038F5F8F7320914C0331
:100D9000821751F0E0914B03F0E0EE5CFC4F958F31
:100DA00080934B0301C08081FF91EF919F918F91C0
:100DB0002F910F900FBE0F901F9018951F920F92BA
:100DC0000FB60F9211240F900FBE0F901F90189521
:100DD0003F924F925F926F927F928F929F92AF92CB
:100DE000BF92CF92DF92EF92FF920F931F93CF9318
:100DF000DF935C016901DA013C90232B19F4CC24C8
:100E0000CA94DC2C7A012A01460E571EC0E0D0E0BD
:100E100000E010E087E0682E712CE414F50409F47A
:100E200043C00C151D0508F067C04701F50180811E
:100E30009181D7016D917D010C2E01C0660F0A943E
:100E4000EAF763296F77DC01ED91FC910190F08165
:100E5000E02D09950F5F1F4FF401608170E0C30121
:100E60008C1B9D0B02C0759567958A95E2F7362E0F
:100E70002196C730D10588F2C016D10699F0D50168
:100E80008D919C91632D6F77DC01ED91FC91019028
:100E9000F081E02D09950F5F1F4F331C3324331C65
:100EA0002797E7CF8601B9CF209731F10C151D05A3
:100EB00018F5F5018081918161E070E001C0660F55
:100EC000CA95EAF761506321DC01ED91FC91019034
:100ED000F081E02DDF91CF911F910F91FF90EF9066
:100EE000DF90CF90BF90AF909F908F907F906F904A
:100EF0005F904F903F900994DF91CF911F910F9198
:100F0000FF90EF90DF90CF90BF90AF909F908F9029
:100F10007F906F905F904F903F9008958F929F9237
:100F2000AF92BF92CF92DF92EF92FF920F931F93F7
:100F3000CF93DF93843008F096C0982F990F990FC4
:100F4000990F58E0C52EC90E9EE19C1510F44EE194
:100F5000C42E8B01C82FCC0FCC0FCC0FDC2ED0E0D1
:100F6000992493945B01BB24DC1410F54D2D50E0C3
:100F7000FA01EE55FB4F20812230B8F4892D90E024
:100F80008A219B2188248394009709F4812C7A017B
:100F9000EE0CFF1C213009F056C0D929F701E054AE
:100FA000FB4F882D90E091838083990CD394DCCF04
:100FB000D0FF05C0602F61708C2F0E945615D1FFA5
:100FC00006C0602F627081E08C0F0E945615D2FF20
:100FD00006C0602F647082E08C0F0E945615D3FF0C
:100FE00006C0602F687083E08C0F0E945615D4FFF6
:100FF00006C0602F607184E08C0F0E945615D5FFEB
:1010000006C0602F607285E08C0F0E945615D6FFD7
:1010100006C0602F607486E08C0F0E945615D7FFC3
:1010200022C0602F607887E08C0FDF91CF911F91F5
:101030000F91FF90EF90DF90CF90BF90AF909F9077
:101040008F900C945615892B09F4A8CFF701E05422
:10105000FB4F80819181019709F4A0CF62E08D2D33
:101060000E9485159BCFDF91CF911F910F91FF902B
:10107000EF90DF90CF90BF90AF909F908F900895AA
:101080008F929F92AF92BF92CF92DF92EF92FF9298
:101090000F931F93CF93DF93EB018E3108F038C18C
:1010A000082F10E0F801EE55FB4F9081933009F4C2
:1010B0008CC0943009F02CC1F801E855FA4FE0805B
:1010C000F12C6701CC0CDD1C603282E078070CF05B
:1010D00042C077FD05C0653B710524F4DB0104C007
:1010E000A0E001C0A4EBB0E0F601EE0DFF1DEA5850
:1010F000FA4F818128E830E04901881A910887FD7C
:101100009394880C991C880C991C092C000CAA0833
:10111000BB08828128E532E0281B310987FD339521
:10112000220F331F220F331FA901330F660B770BDA
:101130009A01AB01281939094A095B090E94EF217C
:1011400024EB30E040E050E00E94C521820E931E67
:10115000A41EB51E01C04B01F601EE0DFF1DEA589D
:10116000FA4F20812C3008F0CCC0318188E890E023
:10117000831B910937FD9395880F991F880F991F3D
:101180008816990684F0828148E552E0481B51098F
:1011900087FD5395440F551F440F551FC401481533
:1011A00059050CF4CA010297880F991F4FB7F8949C
:1011B00030E0F901EE0FFF1F2E0F3F1FF901EF5A2C
:1011C000FA4F928381834FBF9CC0F82E83E00817AB
:1011D00059F08BEF800F823038F087EF800F83302B
:1011E00018F08DE008138DC061E08F2D0E948515E9
:1011F000209711F460E004C0CF3FD10529F461E0ED
:101200008F2D0E9456157DC0F801E751FE4FE491E5
:101210008E2F90E0FC013197EF30F10508F06CC0A3
:10122000EA5AFF4F0C94342284B5806884BDC7BD50
:1012300068C084B5806284BDC8BD63C080918000F1
:10124000806880938000D0938900C093880059C043
:1012500080918000806280938000D0938B00C09347
:101260008A004FC080918000886080938000D09376
:101270008D00C0938C0045C0809190008068809361
:101280009000D0939900C09398003BC0809190004B
:10129000806280939000D0939B00C0939A0031C0ED
:1012A00080919000886080939000D0939D00C093BF
:1012B0009C0027C08091C00080688093C00080910E
:1012C000C0008F7B8093C000C093CF001AC0809174
:1012D000C00080628093C000C093D00012C0809193
:1012E000C20088608093C2008091C2008B7F80938F
:1012F000C200C093D20005C0C038D1050CF07FCF2A
:1013000079CF000F111FF801E054FB4FD183C08348
:10131000DF91CF911F910F91FF90EF90DF90CF90D1
:10132000BF90AF909F908F9008958E3180F4E82FFA
:10133000F0E0DF01AE55BB4F9C91913041F4EE0FD0
:10134000FF1FE054FB4F608371830C945615089582
:10135000FF920F931F93CF93DF9300D0CDB7DEB7EB
:10136000082F10E0F801EA5AFD4F9081F62EF9227D
:101370000A531A4F411104C0F8019081F91611F176
:101380002F2D30E03A832983A0915F04B09160044F
:101390001097B1F0682F6F706069ED91FC91119713
:1013A0000190F081E02DCD01099522E030E0AE0101
:1013B0004F5F5F4F62E070E08FE594E00E94E806C7
:1013C000F801F0820F900F90DF91CF911F910F9154
:1013D000FF900895EF92FF920F931F93CF93DF93A7
:1013E000D82F8B01C42FF22E6F3F8FEF7807F9F0C3
:1013F00081E080930E03D093300310920F0310927C
:1014000031038DEF94E00E9403178F2D0E94361454
:101410008091E0029091E1028230910550F0880FB6
:10142000991F880F991F05970197F1F702C000E0F7
:1014300010E080910D038111FCCF9C2FC13208F088
:1014400090E281E080930D0380930C032FEF2093B3
:101450000B0310920A03290F209309038093E802DB
:101460008091E8022D2F220F822B8093E802809139
:10147000E702813061F41092E7028091E8028093E4
:10148000BB008091BC0083FDF8CF85EC01C085EEE8
:101490008093BC0080910D038130E1F380910A03B9
:1014A000891710F490910A03E9EEF2E0AEEEB5E090
:1014B00080E0891721F021912D938F5FFACF109250
:1014C0000F0680930E06EC2EF12C90E0E816F9063C
:1014D0001CF484EB91E005C08E159F0524F481ED8A
:1014E00091E00E94F313D093A0020093A10200EABE
:1014F00012E0C801805A92408E159F057CF40F5F60
:101500001F4F90910E0680910F06981739F08DEFBE
:1015100094E00E94BA16F8018183EBCFCE5F6C2F66
:1015200070E040EA52E087E7DF91CF911F910F9181
:10153000FF90EF900C94A613A82FB0E0A855BA4FD7
:101540009C91292F30E0F901EE0FFF1F2E0F3F1F56
:10155000F901EA58FA4FE081F0E09F01220F331FB2
:10156000E20FF31FEF5AFA4F80818F7B80838091C7
:10157000A605981306C0992379F091509093A6057B
:101580000BC0882349F0E091A705EF5FE093A70522
:10159000F0E0ED56FD4F90838FEF8C930895DB01C3
:1015A0009091A6059C30A8F53091A705682F70E0B2
:1015B000332369F0E32FF0E0ED56FD4F8081FB010E
:1015C000E855FA4F808331503093A70507C0FB01DF
:1015D000E855FA4F90839F5F9093A605FB01E8556D
:1015E000FA4F808190E09C01220F331F820F931FDE
:1015F0001A161B0634F4141615061CF49A01AD01D4
:1016000004C020E639E040E252E08A589A4F0C9438
:1016100025198DEE91E00C94F313AF92BF92CF9207
:10162000DF92EF92FF920F931F93CF93DF93C82E19
:10163000D12C8601015E1B4FF801ED57FF4F9081C1
:101640009F3709F442C17B01C82F963069F480911D
:10165000CA05882349F06630710509F432C1109239
:10166000CA058FEF80930801CE3100F584E0E816BB
:10167000F104E1F0F601E855FA4F80818C30B0F4C6
:1016800090E0FC01EE0FFF1F8E0F9F1FFC01EA5838
:10169000FA4F808190E0FC01EE0FFF1F8E0F9F1F1D
:1016A000FC01EF5AFA4F808186FDF6C0DEEEDC0FBA
:1016B000DC3060F461E070E082E0E816F10411F0E3
:1016C00060E070E08D2F0E94D01202C0CE3118F57C
:1016D000EC2FE695E695E6952C2F2770F0E0EA5A78
:1016E000FD4FE114F10421F08BE0E816F10449F418
:1016F00081E090E001C0880F2A95EAF79081892B5C
:1017000009C081E090E001C0880F2A95EAF7809532
:101710009081892380835601AA0CBB1CF501E054FB
:10172000FB4F118210828CE0E816F10408F0A6C08D
:10173000F701EB59FF4F0C943422DC3008F0C5C0A0
:1017400060E08C2F0E948515F801ED57FF4F8081D6
:101750008F3709F4BAC082E08FC0CE3108F0B5C02F
:1017600060E08C2F0E948515F801ED57FF4F8081B6
:101770008F3709F4AAC01082A8C0CE3108F0A5C0E6
:1017800062E08C2F0E948515F801ED57FF4F808194
:101790008F3711F08BE08083F501E054FB4F81E03F
:1017A00090E09183808391C0CE3108F08EC060E0DC
:1017B0008C2F0E94561561E08C2F0E948515F80130
:1017C000ED57FF4F80818F3709F47FC081E054C00F
:1017D000C33059F08BEF8C0F823038F087EF8C0FCD
:1017E000833018F0CD3009F070C061E08C2F0E947A
:1017F000851561E08C2F0E94851560E08C2F0E947A
:101800005615F801ED57FF4F80818F3709F45DC001
:1018100083E032C0CE3108F058C0F801ED57FF4FD9
:1018200080818F3711F084E08083F601E855FA4F0C
:1018300080818F3FA9F190E0FC01EE0FFF1F8E0F1A
:101840009F1FFC01EA58FA4F808190E0FC01EE0FE7
:10185000FF1F8E0F9F1FFC01EF5AFA4F808186FDFC
:1018600034C01EC0C250C23080F5F801ED57FF4FA2
:1018700080818F3751F186E0808327C081E092E03C
:10188000DF91CF911F910F91FF90EF90DF90CF905C
:10189000BF90AF900C94F3138C2F0E949C0A06CF3C
:1018A0004FEF5FEF6FEF7FEF8C2FDF91CF911F91A5
:1018B0000F91FF90EF90DF90CF90BF90AF900C947E
:1018C000CF0ACE3108F4D6CEF1CEDF91CF911F9161
:1018D0000F91FF90EF90DF90CF90BF90AF90089561
:1018E000DC0170E0FB01E653FE4FE4911896EC93A7
:1018F000189765557E4FFB018491E82FF0E0EE0FBD
:10190000FF1FE157FE4F8591949115969C938E93FE
:101910001497FB016491E62FF0E0EE0FFF1FEF57E5
:10192000FE4F8591949117969C938E9316970895E8
:101930005F926F927F928F929F92AF92BF92CF925F
:10194000DF92EF92FF920F931F93CF93DF93EA0101
:101950008F3609F4C6C1162F803778F4893609F41A
:1019600093C220F4813509F4A1C28DC58B3609F4E8
:10197000E4C18D3609F447C286C5863761F020F48C
:10198000803709F44DC17FC5883709F4F4C08A3720
:1019900009F493C178C52981922F987125FF03C05E
:1019A00082E192E063C0888131E026FB222720F9A2
:1019B0002327983069F160F4911165C530930E03C7
:1019C0008093300310920F031092310302E007C09E
:1019D000903109F445C0983109F480C054C501170D
:1019E00078F4FE01E00FF11D618167956627679528
:1019F0008081680F8DEF94E00E9403170E5FEFCF98
:101A000081E00E94361483E191E00197F1F73BC534
:101A10004B816A81163069F470E030E8439F600DB5
:101A2000711D11244D814795442747959C81490F8D
:101A300006C0479544274795460F6FEF7FEFDF912C
:101A4000CF911F910F91FF90EF90DF90CF90BF90BB
:101A5000AF909F908F907F906F905F900C94EA0969
:101A6000E0910801E7309CF082E392E0DF91CF91B2
:101A70001F910F91FF90EF90DF90CF90BF90AF90AC
:101A80009F908F907F906F905F900C94F3139B8149
:101A90003A81663071F4632F70E040E8949F600DE6
:101AA000711D11249D819795992797954C81940FCD
:101AB00006C0979599279795930F6FEF7FEFEF5F8C
:101AC000E093080135E0E302F0011124E25AFD4FF2
:101AD00080837283618393832483D5C4209108011A
:101AE00012163CF490E0622F022E000C770B35E0CA
:101AF0000FC08FEF80930801C6C4349FF001359F5B
:101B0000F00D1124E25AFD4F4081841739F09F5F98
:101B1000492F50E06417750784F790E085E022C0F4
:101B20009830F8F4FA0131968E9FD0018F9FB00D56
:101B30001124A25ABD4F3C91849FF001859FF00D66
:101B40001124E25AFD4F308311964D915C9112970A
:101B50005283418313963C911397338314963C919F
:101B600034839F5F492F50E064177507CCF62150EE
:101B70002093080188C42981888190E040E8249F4F
:101B8000800D911D1124009721F09093E102809324
:101B9000E0028091CA05811176C4C0E08EEF8C0FFF
:101BA000823028F466E070E08C2F0E940D0BCF5F2E
:101BB000CE31A1F781E08093CA0510920F061092F2
:101BC0000E0610920F031092310310920D038093B2
:101BD0000C031092E70261E082E00E94561561E07A
:101BE00083E00E9456158091B9008E7F8093B900E2
:101BF0008091B9008D7F8093B90088E48093B8000C
:101C000085E48093BC0088EA96E190931106809366
:101C1000100689EA96E1909313068093120633C466
:101C2000653008F430C418811E3108F02CC40981D5
:101C3000EA80FB80CC81E12FF0E0E855FA4F80810B
:101C40008C30B0F490E0FC01EE0FFF1F8E0F9F1F51
:101C5000FC01EA58FA4F808190E0FC01EE0FFF1F73
:101C60008E0F9F1FFC01EF5AFA4F808186FDEEC355
:101C70004F2D50E080E8C89F400D511D1124602F6A
:101C800070E090E8E99E600D711D1124812F0E9483
:101C9000CF0A64E070E0812FDF91CF911F910F9107
:101CA000FF90EF90DF90CF90BF90AF909F908F907C
:101CB0007F906F905F900C940D0B623008F4E3C33B
:101CC0002981888190E0E0E82E9F800D911D1124EC
:101CD000009711F481E090E090930A01809309014C
:101CE000D2C3623008F4CFC3898190E0623091F0B2
:101CF0002A81F0E82F9F90011124822B932B6330CF
:101D000049F02B8130E030E4239F302D222711242D
:101D1000822B932BBC018881DF91CF911F910F9172
:101D2000FF90EF90DF90CF90BF90AF909F908F90FB
:101D30007F906F905F900C94400880EF0E94291470
:101D40008CE60E942914C0E080E00E94291481E002
:101D50000E9429148BE00E94291481E00E9429141A
:101D600081E00E94291481E00E94291481E50E94EB
:101D7000291481E00E9429148EEE8C0F8C3038F4E7
:101D800082E00E9429148AE00E94291409C0C3300D
:101D900039F483E00E94291488E00E9429140AC0C3
:101DA0008BEF8C0F8230A8F387EF8C0F833088F392
:101DB000CD3079F384E00E9429148EE00E9429142A
:101DC0008EEF8C0F823030F486E00E94291481E07F
:101DD0000E9429148FE70E942914CF5FCE3109F0A9
:101DE000B3CF87EFDF91CF911F910F91FF90EF90CD
:101DF000DF90CF90BF90AF909F908F907F906F902B
:101E00005F900C942914662309F43DC3C88180EFC8
:101E10000E9429148EE60E9429148C2F0E942914F6
:101E2000CE31F8F6D0E0FE01EE55FB4F80810E94E6
:101E30002914CC0FDD1F8E0100541B4FF801808147
:101E40008F770E942914F801808191819C0120786C
:101E5000232B39F0880F892F881F990B8F770E94C9
:101E60002914C054DB4F888199819C012227307C42
:101E7000232B09F4B6CF990F880B990F982F881F41
:101E80008F770E942914ADCF80EF0E9429148AE633
:101E90000E942914CEEECC3010F08FE701C08C2FB9
:101EA0000E942914CF5FCC30B1F79BCF662309F491
:101EB000EAC29881892F8F70833009F4DCC030F436
:101EC000813009F434C1823041F0DDC2843009F43C
:101ED00072C0853009F4FEC1D6C28091E40281113E
:101EE000D2C28091E3028111CEC281E08093E402EC
:101EF00040E0D9E0FD2E8091E605481708F058C073
:101F0000842F90E08C0104531A4FF8012081222382
:101F100009F44AC020910F01E091EB05F091EC0526
:101F2000F89EE001F99ED00D1124C75FDA4FAE8113
:101F3000BF819C918885892B8C93AC81BD8158850C
:101F400030E088819981289FB001299F700D389FCA
:101F5000700D11240A80DB81C02D2C9FC0012D9FA4
:101F6000900D3C9F900D1124E80FF91F8C91952F37
:101F700090959823852B2FB7F8946E0F7F1F6E17BF
:101F80007F0781F0319158E08C9300C037FF9C931C
:101F9000330F00C000C000C008F49C9300C05A95E5
:101FA00099F7EDCF2FBF7894F80110824F5FA3CF40
:101FB0001092E40268C28091E302811164C28B81B5
:101FC00090E0A0E0B0E0AC01BD01EEE0440F551F91
:101FD000661F771FEA95D1F79C81892F90E0A0E0DA
:101FE000B0E0F5E1880F991FAA1FBB1FFA95D1F742
:101FF000840F951FA61FB71F2981820F911DA11D58
:10200000B11DCA80D12CE12CF12CC7E0CC0CDD1C19
:10201000EE1CFF1CCA95D1F7C80ED91EEA1EFB1E86
:10202000C114D104E104F10419F0C0E0D0E014C0FF
:1020300020910F018091E4059091E505289FA00172
:10204000299F500D112460E070E08091EB05909184
:10205000EC050E947B23E2C18091E4059091E505A7
:10206000C817D90708F0DAC1B701A601CE010E944E
:10207000661A2196F1CF8091E302811104C28A8110
:10208000098110E0F0E88F9F000D111D112480914F
:10209000E4059091E50508171907A0F58D8190E0FA
:1020A000A0E0B0E0AC01BD01FEE0440F551F661F8B
:1020B000771FFA95D1F79E81892F90E0A0E0B0E0DC
:1020C00025E1880F991FAA1FBB1F2A95D1F7840FFE
:1020D000951FA61FB71F2B81820F911DA11DB11D3A
:1020E0004C8150E060E070E037E0440F551F661F00
:1020F000771F3A95D1F7480F591F6A1F7B1FC801F8
:102100000E94661A4091E605A4EDB5E080E090E0FB
:10211000841708F0B8C1FC012D913D91019602177A
:102120001307B0F7E453FA4F81E08083ACC19130DC
:1021300009F0A9C1633008F4A6C17090E2020E94C0
:10214000CA1A711017C06BEA169FB12C1124B694ED
:1021500044EDC42E45E0D42E59E0E52E55E0F52E91
:10216000912CAA24A39462E0862E74E0672EE3E00B
:102170005E2E57C039E0E32E35E0F32E00E0602FED
:10218000C7010E94700C0F5F39E0E30EF11C0830AC
:10219000B1F7D9CF898190E025E0959587952A956B
:1021A000E1F78130910509F457C00CF042C0892B4A
:1021B00031F41092E905A092EA058092E8058B813E
:1021C0000A8110E040E8849F000D111D1124F701E1
:1021D00011830083992009F44BC0F6013297808166
:1021E00091819801280F391FF601219331936F01D6
:1021F000F701938382838091E4059091E505080FB0
:10220000191F1093E5050093E4058091E6058F5FA3
:102210008093E6059394F9E0EF0EF11C2396B91430
:1022200051F17110B7CF69816F71C7010E94700CB5
:10223000B1CF82309105A9F0039709F0C0CFA092E9
:10224000ED0560920F011092EA05A092E9058092D7
:10225000E8055092E705B3CF1092EA05A092E90590
:10226000ACCF1092E805A092EA058092E905A7CFCD
:1022700080E090E0B6CF8091EB059091EC0500975F
:1022800031F00E94D2221092E5051092E40501156A
:10229000110509F4F8C080910F01809FE001819F32
:1022A000D00D1124CE010E943A229093EC05809328
:1022B000EB05009751F0AE0160E070E00E947B23D7
:1022C0001093E5050093E405DEC01092E505109239
:1022D000E405D9C08981C82FCF7109F49FC0382F78
:1022E0003072A32EC0900F01CC9D002D112491E0DF
:1022F0009093E30210E0D0E0D12C482F4074B42E2C
:1023000086FF2AC0C8010E943A227C01009729F06A
:10231000A80160E070E00E947B23AA2039F0809140
:10232000E4059091E5058C1B9D0B02C080E090E0D8
:10233000C89E9001C99E300DD89E300D1124609129
:10234000EB057091EC05620F731FA801C7010E9495
:102350006023A1107FC01BC03323C9F08091EB051F
:102360009091EC052091E4053091E5052C1B3D0B87
:102370002C9DA0012D9D500D3C9D500D1124BC01A4
:10238000800F911F0E94692320E030E033C08091CC
:10239000EB059091EC052091E4053091E5052C1BAF
:1023A0003D0B2C9DA0012D9D500D3C9D500D1124E9
:1023B000BC01600F711F0E9469232091E4053091D8
:1023C000E5052C1B3D0BBB20A9F040910F01429F5E
:1023D000C001439F900D11242091EB053091EC0535
:1023E000A801B701820F931F0E946023C7010E94BA
:1023F000D22212C040910F01429FC001439F900D15
:1024000011242091EB053091EC05A80160E070E00B
:10241000820F931F0E947B231092E3024091E605F6
:1024200050E061E070E08CEC95E0DF91CF911F917E
:102430000F91FF90EF90DF90CF90BF90AF909F9063
:102440008F907F906F905F900C947B23812F0E94E0
:102450009C0A0ECC8091EB059091EC052091E4054F
:102460003091E5052C1B3D0B2C9DA0012D9D500DA1
:102470003C9D500D1124BC01800F911F0E946923C7
:1024800020E030E0A2CFDF91CF911F910F91FF901C
:10249000EF90DF90CF90BF90AF909F908F907F9004
:1024A0006F905F9008950F931F93CF93DF938430C5
:1024B00008F071C0282F30E0F901E65AFD4F608323
:1024C000672B09F468C0082FF901EA5AFD4F108103
:1024D000D22FDD0FDD0FDD0F10FF4DC08D2F0E94BD
:1024E0002D15892B09F447C0C1E011FF07C081E019
:1024F0008D0F0E942D15892B09F03FC012FF06C0D9
:1025000082E08D0F0E942D15892BC9F513FF06C09F
:1025100083E08D0F0E942D15892B99F514FF06C0BD
:1025200084E08D0F0E942D15892B69F515FF06C0DB
:1025300085E08D0F0E942D15892B39F5D83191F04A
:1025400016FF06C086E08D0F0E942D15892BF9F429
:10255000D73141F017FF06C087E08D0F0E942D157F
:10256000892BB9F441E06C2F802FDF91CF911F911F
:102570000F910C94A809C0E0B8CFC260BFCFC4606F
:10258000C5CFC860CBCFC061D1CFC062D7CFC06448
:10259000DFCFC068E7CFDF91CF911F910F910895F2
:1025A000CF938C3080F5409186025091870221E0D4
:1025B00030E0672B81F4B90102C0660F771F8A955E
:1025C000E2F7CB0180959095842395239093870221
:1025D0008093860218C0082E02C0220F331F0A946F
:1025E000E2F7242B352B30938702209386029091BB
:1025F000CB05911108C0C82F0E94C115BC018C2FBA
:10260000CF910C944213CF91089590E0FC01319743
:10261000EF30F105B0F5EF58FF4F0C943422809164
:1026200080008F7703C0809180008F7D8093800031
:10263000089580918000877FF9CF84B58F7702C09D
:1026400084B58F7D84BD0895809190008F7707C0F9
:10265000809190008F7D03C080919000877F809350
:10266000900008958091C0008F7703C08091C000D2
:102670008F7D8093C00008958091C200877F8093F2
:10268000C20008951F93CF93DF9300D0CDB7DEB77C
:10269000182F7A83698380915F049091600400977A
:1026A00009F44EC0DC01ED91FC911031A8F46115E4
:1026B000704490F4612F606E0190F081E02D0995D7
:1026C00022E030E0AE014F5F5F4F62E070E08FE5E7
:1026D00094E00E94E80634C00190F081E02D60EFA4
:1026E000099580915F0490916004DC01ED91FC916B
:1026F0000190F081E02D6FE6099580915F04909143
:102700006004DC01ED91FC910190F081E02D612FDE
:10271000099522E030E0AE014F5F5F4F62E070E06C
:102720008FE594E00E94E80680915F049091600438
:10273000DC01ED91FC910190F081E02D67EF0995AE
:102740000F900F90DF91CF911F910895EF92FF921C
:102750000F931F93CF93DF93C82F80915F049091C5
:1027600060040097C9F17A018B01DC01ED91FC91C5
:102770000190F081E02D60EF099580915F049091C8
:102780006004DC01ED91FC910190F081E02D6C2F53
:102790000995E7010E0D1F1DC017D10759F020E064
:1027A00030E0AE0161E070E08FE594E00E94E80661
:1027B0002196F2CF80915F0490916004DC01ED914D
:1027C000FC910190F081E02D67EFDF91CF911F9197
:1027D0000F91FF90EF900994DF91CF911F910F918E
:1027E000FF90EF900895FC0101900020E9F73197E8
:1027F000BF01681B790BAC0181E70C94A613CF9342
:10280000DF93FC01A081B181109701F1EC01ED9102
:10281000FC9111970190F081E02D69EFCD010995B0
:1028200088819981DC01ED91FC910190F081E02D8E
:1028300062E0099588819981DC01ED91FC9101901C
:10284000F081E02D65E0DF91CF910994DF91CF9188
:102850000895A0919D04B0919E04ED91FC91119773
:102860000190F081E02D682FCD010994282F30913F
:102870003103313208F04AC080910D038111FCCF41
:102880009091300342E040930D0320930C032FEF0F
:1028900020930B0310920A0330930903E0E1F3E065
:1028A000A9EEB2E020E0321721F041914D932F5F65
:1028B000FACF1092E8022091E802990F922B9093A0
:1028C000E8029091E702913061F41092E702909152
:1028D000E8029093BB009091BC0093FDF8CF95EC7B
:1028E00001C095EE9093BC0090910D039230E1F3FE
:1028F00090910B039F3F79F080910B03803241F060
:1029000080910B03803331F084E005C081E003C087
:1029100082E001C083E010920F0310923103109205
:102920000E0308951F93CF93DF93182FEB0180912F
:1029300064049091650468177907A8F0E091910408
:10294000F091920481E03097C1F08093610480910E
:102950007D0490917E0409958091640490916504B2
:10296000C817D90748F48091620490916304C80F96
:10297000D91F188380E001C081E0DF91CF911F91C2
:102980000895AC01FB0180E090E09C01220F331F11
:102990002417350770F4DB012C91208311963C91AC
:1029A000379533273795232B219301966E5F7F4F01
:1029B000ECCF08952091E602211103C08FEF9FEF25
:1029C00008955FB7F89422E02093E9002091F20087
:1029D00030E01216130614F421E030E0422FFC011F
:1029E00084E6415038F028988093E5029091F100F8
:1029F0009193F7CF2115310521F08091F2008823C2
:102A000019F05FBFC90108958BE68093E800F9CF04
:102A10002FB7F89483E08093E9009091E800892F24
:102A2000807295FF04C09091F20080E4891B2FBF53
:102A3000089580919E0581110DC082E080939A05D2
:102A400084E080939B0510929D0510929C0581E087
:102A500080939E058AE995E00895CF93DF93282F10
:102A600030E0F901E751FE4F8491F901E653FE4F42
:102A7000D491F901E555FE4FC491CC2391F0811119
:102A80000E940513EC2FF0E0EE0FFF1FE356FE4F00
:102A9000A591B491EC91ED2381E090E021F480E0E8
:102AA00002C080E090E0DF91CF9108951F93CF9313
:102AB000DF93282F30E0F901E751FE4F8491F901AF
:102AC000E653FE4FD491F901E555FE4FC491CC2356
:102AD000C1F0162F81110E940513EC2FF0E0EE0FCC
:102AE000FF1FE157FE4FA591B4919FB7F8941111C4
:102AF00004C08C91D095D82302C0EC91DE2BDC93DE
:102B00009FBFDF91CF911F910895CF93DF9390E006
:102B1000FC01E653FE4F2491FC01E555FE4F8491E4
:102B2000882361F190E0880F991FFC01EF57FE4F59
:102B3000C591D491FC01E157FE4FA591B49161116B
:102B400009C09FB7F8948881209582238883EC91EF
:102B50002E230BC0623061F49FB7F8948881322F26
:102B6000309583238883EC912E2B2C939FBF06C036
:102B70008FB7F894E8812E2B28838FBFDF91CF91F8
:102B80000895823108F08251E82FF0E0EB58FE4FB3
:102B9000E49180917B00E3FB222720F930E095E06F
:102BA000220F331F9A95E1F78F7D282B20937B000E
:102BB000E770E064E0937C0080917A008064809309
:102BC0007A0080917A0086FDFCCF80917800209178
:102BD000790090E0922B08958F929F92AF92BF92CE
:102BE000CF92DF92EF92FF926B017C010E94DC1A80
:102BF0004B015C01C114D104E104F104F1F00E9425
:102C0000DC1ADC01CB0188199909AA09BB09883EA5
:102C10009340A105B10570F321E0C21AD108E10883
:102C2000F10888EE880E83E0981EA11CB11CC11427
:102C3000D104E104F10419F7DDCFFF90EF90DF90AC
:102C4000CF90BF90AF909F908F900895E0915402E5
:102C5000F0915502309709F009940895862F642F5A
:102C6000E0915202F0915302309711F0A9010994BA
:102C700008950895862FE0914A02F0914B02309713
:102C800011F0BA0109940895862FE0914C02F09159
:102C90004D02309711F0BA0109940895862FE09102
:102CA0004602F0914702309711F0BA010994089555
:102CB000862FE0914802F0914902309711F0BA0155
:102CC00009940895862FE0914E02F0914F023097BB
:102CD00011F0BA0109940895862FE0915002F09105
:102CE0005102309711F0BA010994089585ED80934F
:102CF000BC008091BC0084FDFCCF10920D030895B0
:102D000040913506262F30E0240F311D2132310548
:102D1000DCF420910D032430C9F4FC0180E090E044
:102D2000861758F4309135062191DC01AB5EB94F1E
:102D3000A30FB11D2C930196F3CF80913506680F38
:102D40006093350680E0089581E0089582E008955B
:102D5000089508950895E0910F0680910E06E817F2
:102D600030F4F0E0E251FA4F808190E008958FEF67
:102D70009FEF089590910F0680910E06981750F4DA
:102D8000E92FF0E0E251FA4F208130E09F5F90930D
:102D90000F0602C02FEF3FEFC901089580910E0684
:102DA00090E020910F06821B91090895CF92DF9247
:102DB000EF92FF920F931F93CF93DF937C01CB0190
:102DC0008A0120910E03222389F0EB016B01C40ECE
:102DD000D51ECC15DD0569F06991D701ED91FC9107
:102DE0000190F081E02DC7010995F3CF642F0E9477
:102DF0008016C801DF91CF911F910F91FF90EF9046
:102E0000DF90CF900895CF93DF931F92CDB7DEB7B9
:102E1000698320910E032223D1F0209131032032C7
:102E200040F021E030E0FC013383228380E090E039
:102E300015C080910F03E82FF0E0E05FFC4F99810F
:102E400090838F5F80930F038093310305C061E00F
:102E5000CE0101960E94801681E090E00F90DF91F4
:102E6000CF910895089580E090E00895009721F0B3
:102E7000805C9F4F0C94FF1308950F931F93CF9383
:102E8000DF9381E08093CB058091CA05882329F0E8
:102E90001092CA058FEF80930801EAE5F2E0C6E5DB
:102EA000D2E0A6ECB5E0119219921D9282E0EE35C7
:102EB000F807C9F708EA15E0C0E0DFEF8EEE8C0FE7
:102EC0008C3018F462E070E002C061E070E08C2F9A
:102ED0000E940D0BF801D1938F01CF5FCE3171F7B6
:102EE00010928702109286021092A7051092A605F2
:102EF0001092CB05DF91CF911F910F910895DF9232
:102F0000EF92FF920F931F93CF93DF93FC01E05852
:102F1000FF4FD080DD2009F45DC0EC01C05CDF4FC5
:102F2000A881B981109709F455C0FC01EF57FF4FF4
:102F300000811181F801F180E080ED91FC91119701
:102F40000190F081E02D60EFCD0109958881998194
:102F5000DC01ED91FC910190F081E02D69E709958C
:102F600088819981DC01ED91FC910190F081E02D47
:102F70006E2D099588819981DC01ED91FC9101907C
:102F8000F081E02D6F2D09957801B2E0EB0EF11C78
:102F90000D0D111DE016F10661F020E030E0A701F3
:102FA00061E070E0CE010E94E806EFEFEE1AFE0A43
:102FB000F1CF88819981DC01ED91FC910190F08144
:102FC000E02D67EFDF91CF911F910F91FF90EF9070
:102FD000DF900994DF91CF911F910F91FF90EF90B7
:102FE000DF900895009711F00C947F1708951F92B9
:102FF0000F920FB60F9211242F933F934F935F932D
:103000006F937F938F939F93AF93BF93EF93FF93B0
:103010008091B900887F803609F49CC068F58832B9
:1030200009F45BC090F4803109F454C038F488236B
:1030300009F4F6C0883009F44DC0F6C0883109F4AF
:103040004CC0803209F45DC0EFC0803409F468C020
:1030500048F4803309F455C0883309F0E5C0809303
:103060000B03D8C0803509F44FC0883509F45DC022
:10307000883409F0D9C0D6C0883909F4C7C0A8F48B
:10308000883709F467C038F4883609F463C080379C
:1030900009F460C0C9C0883809F4B8C0803909F49F
:1030A0005FC0803809F0C0C05BC0803B09F486C0B7
:1030B00038F4803A09F466C0883A09F47FC0B4C095
:1030C000803C09F4A7C0883C09F4A4C0883B09F4FB
:1030D0008AC0AAC08091E80210C090910A03809132
:1030E0000903981770F5E0910A0381E08E0F809331
:1030F0000A03F0E0E751FD4F80818093BB0085EC2F
:1031000086C080930B038EC0E0910A0381E08E0F8E
:1031100080930A038091BB00F0E0E751FD4F80836C
:1031200090910A03809109036EC0E0910A0381E047
:103130008E0F80930A038091BB00F0E0E751FD4FB2
:10314000808380910C0381116DC081E08093E70240
:1031500084EA61C083E080930D0310925706CFCFBD
:1031600080915706803208F051C0E091570681E007
:103170008E0F809357068091BB00F0E0E95CF94F19
:103180008083BDCF85EC8093BC0010920D038091AD
:103190005706803230F4E0915706F0E0E95CF94FD1
:1031A00010826091570670E0E0911206F0911306CC
:1031B00087E396E009951092570636C084E0809325
:1031C0000D031092360610923506E0911006F0912C
:1031D0001106099580913506811105C081E0809323
:1031E000350610921506E091360681E08E0F809329
:1031F0003606F0E0EB5EF94F80818093BB00909142
:10320000360680913506981708F479CF85E88093C3
:10321000BC000AC085EC8093BC0010920D0304C072
:1032200010920B030E947616FF91EF91BF91AF9120
:103230009F918F917F916F915F914F913F912F91CE
:103240000F900FBE0F901F901895DF92EF92FF9294
:103250000F931F93CF93DF93EC01D62E7A01890150
:1032600088818C3008F068C061E08D2D0E94851542
:103270008881E82FF0E09F01220F331FE20FF31F38
:10328000EF5AFA4F9D2D9F732081207CD22ED92A90
:10329000D08220E232E02E193F0937FF02C02D5FB5
:1032A0003F4F3595279535952795298320E639E0B9
:1032B000201B310B37FF02C02D5F3F4F35952795FF
:1032C000359527952A836CE00E9428229CE0899FEF
:1032D000B001112440E050E09B01240F351FF9019B
:1032E000EE0FFF1F2E0F3F1FF901EF5AFA4F90818B
:1032F00096FD16C04F5F5F4F4C30510569F7811145
:103300000FC01092800082E08093810010928500AF
:1033100010928400B19A80916F00826080936F0058
:10332000E881F0E0CF01880F991FE80FF91FEF5AED
:10333000FA4F8081806480838881DF91CF911F91D3
:103340000F91FF90EF90DF9008951F920F920FB6AC
:103350000F9211242F933F934F935F936F937F931B
:103360008F939F93AF93BF93EF93FF938091140636
:1033700087FF05C010928500109284001BC0209129
:103380001406022E000C330B8091750590E028176F
:10339000390784F480911406082E000C990BFC0167
:1033A000EE0FFF1F8E0F9F1FFC01EF5AFA4F808117
:1033B00086FD15C0809114068F5F809314062091BE
:1033C0001406022E000C330B8091750590E028172F
:1033D0003907C4F4809114068C3064F113C08091D5
:1033E0001406082E000C990BFC01EE0FFF1F8E0F28
:1033F0009F1FFC01EF5AFA4F808160E08F730E949B
:103400005615D8CF80918400909185000496803421
:103410009C4918F480E49CE905C080918400909157
:103420008500049690938900809388008FEF8093A5
:1034300014063BC0209184003091850080911406D1
:10344000082E000C990BFC01EE0FFF1F8E0F9F1F23
:10345000FC01EF5AFA4F81819281820F931F909362
:1034600089008093880080911406082E000C990B27
:10347000FC01EE0FFF1F8E0F9F1FFC01EF5AFA4F4A
:10348000808186FF12C080911406082E000C990BD3
:10349000FC01EE0FFF1F8E0F9F1FFC01EF5AFA4F2A
:1034A000808161E08F730E945615FF91EF91BF916B
:1034B000AF919F918F917F916F915F914F913F91CC
:1034C0002F910F900FBE0F901F9018958F929F9283
:1034D000AF92BF92CF92DF92EF92FF9220910F01B5
:1034E000DC012A9FC0012B9F900D1124F091ED0566
:1034F000E091EA052091EB053091EC054B01AA24FF
:10350000BB24C52ED62EE72EFF24280F391FD90144
:10351000AE0FB11DFF23D9F0FD0170832091E905A5
:10352000E091EB05F091EC05E80FF91FE20FF11DBA
:1035300080822091E805E091EB05F091EC05E80F21
:10354000F91FE20FF11DC0822091E7050FC0FD01B8
:1035500080822091E905E091EB05F091EC05E80F00
:10356000F91FE20FF11DC0822091E805E091EB0503
:10357000F091EC058E0F9F1FFC01E20FF11D4083BF
:1035800080E0FF90EF90DF90CF90BF90AF909F9042
:103590008F9008951092E6051092E5051092E405CB
:1035A000E4EDF5E0ACECB5E0119211921D9285E0EE
:1035B000E43EF807C9F708953FB7F89480915D0697
:1035C00090915E06A0915F06B091600626B5A89B1B
:1035D00005C02F3F19F00196A11DB11D3FBFBA2FA5
:1035E000A92F982F8827820F911DA11DB11DBC0105
:1035F000CD0142E0660F771F881F991F4A95D1F7CA
:1036000008951F920F920FB60F9211242F933F939C
:103610008F939F93AF93BF938091580690915906D3
:10362000A0915A06B0915B0630915C0623E0230F0F
:103630002D3720F40196A11DB11D05C026E8230FEA
:103640000296A11DB11D20935C06809358069093AD
:103650005906A0935A06B0935B0680915D0690913F
:103660005E06A0915F06B09160060196A11DB11D96
:1036700080935D0690935E06A0935F06B09360060C
:10368000BF91AF919F918F913F912F910F900FBE5E
:103690000F901F901895789484B5826084BD84B58E
:1036A000816084BD85B5826085BD85B5816085BD3D
:1036B00080916E00816080936E00109281008091F5
:1036C000810082608093810080918100816080937D
:1036D00081008091800081608093800080919100C2
:1036E000826080939100809191008160809391002D
:1036F000809190008160809390008091C1008460EF
:103700008093C1008091C10082608093C10080914C
:10371000C10081608093C1008091C300816080936B
:10372000C3008091C00082608093C0008091C2007D
:1037300081608093C20080917A00846080937A00D7
:1037400080917A00826080937A0080917A00816013
:1037500080937A0080917A00806880937A0010923A
:10376000E60210924502109244028091D7008160D7
:103770008093D70080EA8093D80089B5806189BDA5
:1037800089B5826089BD09B400FEFDCF61E070E0BB
:1037900080E090E00E94EC158091D8008F7C8061E1
:1037A0008093D8008091E000807F8093E00080913A
:1037B000E1008E7E8093E1008DE08093E200559AD7
:1037C000209A88E180939F048091A0049091A104A5
:1037D0000E94D222C0919F04D0E0CE0101960E94A7
:1037E0003A229093A1048093A004FC01EC0FFD1FEA
:1037F000108222E0DC012C9325E011962C93AE017F
:10380000425051096DE971E002960E94822380E4E2
:1038100098E090935102809350028EE897E0909345
:103820004F0280934E0280ED92E190934D0280937F
:103830004C0283E592E190934B0280934A028DE023
:103840009BE0909349028093480285E999E0909328
:1038500047028093460288E99CE09093530280934C
:1038600052028DE397E190935502809354028FEFBB
:103870009FEF9093DC038093DB038091FC04811124
:1038800040C061E08DE00E948515C0E062ED70E00F
:1038900080E090E00E94EC1561E08DE00E945615FA
:1038A00068E270E080E090E00E94EC1560E08DE05E
:1038B0000E945615CF5FC23049F76AEF70E080E092
:1038C00090E00E94EC15C0E062ED70E080E090E0D6
:1038D0000E94EC1561E08DE00E94561568E270E0F0
:1038E00080E090E00E94EC1560E08DE00E945615AB
:1038F000CF5FC53049F76DE770E080E090E00E944F
:10390000EC158FEC93E090939E0480939D0490932C
:10391000600480935F048FE594E00E94FF138FE1C1
:1039200094E00E947F17C09107016AE070E080E098
:1039300090E00E94EC15CC23B1F30E943D170E9449
:10394000CA1AD5E0DD24D39402E010E0EE24E3941B
:10395000F12C80915A02882309F448C0C090560285
:10396000C0FE6CC380E00E942D15892B09F466C34C
:10397000C1E0C1FE06C081E00E942D15892B09F02F
:103980005FC3C2FE06C082E00E942D15892B09F09C
:1039900059C3C3FE06C083E00E942D15892B09F090
:1039A00053C3C4FE06C084E00E942D15892B09F084
:1039B0004DC3C5FE06C085E00E942D15892B09F078
:1039C00047C3C6FE06C086E00E942D15892B09F06C
:1039D00041C3C7FE06C087E00E942D15892B09F060
:1039E0003BC340E06C2F80E00E94A80980915B02FD
:1039F000882309F448C0C0905702C0FE2FC388E056
:103A00000E942D15892B09F429C3C1E0C1FE06C00F
:103A100089E00E942D15892B09F022C3C2FE06C041
:103A20008AE00E942D15892B09F01CC3C3FE06C035
:103A30008BE00E942D15892B09F016C3C4FE06C029
:103A40008CE00E942D15892B09F010C3C5FE06C01D
:103A50008DE00E942D15892B09F00AC3C6FE06C011
:103A60008EE00E942D15892B09F004C3C7FE06C005
:103A70008FE00E942D15892B09F0FEC240E06C2FCB
:103A800081E00E94A80980915C02882309F448C063
:103A9000C0905802C0FEF2C280E10E942D15892B11
:103AA00009F4ECC2C1E0C1FE06C081E10E942D15FF
:103AB000892B09F0E5C2C2FE06C082E10E942D15E5
:103AC000892B09F0DFC2C3FE06C083E10E942D15D9
:103AD000892B09F0D9C2C4FE06C084E10E942D15CD
:103AE000892B09F0D3C2C5FE06C085E10E942D15C1
:103AF000892B09F0CDC2C6FE06C086E10E942D15B5
:103B0000892B09F0C7C2C7FE06C087E10E942D15A8
:103B1000892B09F0C1C240E06C2F82E00E94A80905
:103B200080915D028823C1F1C0905902C0FEB6C2E7
:103B300088E10E942D15892B09F4B0C2C1E0C1FEB5
:103B400006C089E10E942D15892B09F0A9C2C2FE89
:103B500006C08AE10E942D15892B09F0A3C2C3FE7D
:103B600006C08BE10E942D15892B09F09DC2C4FE71
:103B700006C08CE10E942D15892B09F097C2C5FE65
:103B800006C08DE10E942D15892B09F091C240E0FD
:103B90006C2F83E00E94A80980919D0490919E045F
:103BA000DC01ED91FC910084F185E02D0995892BD4
:103BB00009F4CEC180919D0490919E04DC01ED91A9
:103BC000FC910284F385E02D09959C018F3FBFEFA6
:103BD0009B0711F3982F80916A04882309F492C0FF
:103BE000973F09F07EC010926A04A0916204B091E0
:103BF00063046C916137C1F1693709F05CC0E091F1
:103C00009704F0919804309739F280916B04909169
:103C10006C048330910538F420E030E040E050E05F
:103C200060E070E01BC0BD016D5F7F4F03970E9495
:103C3000C114BC016D5F7F4F80E00E949214E0913F
:103C40006204F09163049F012D5F3F4F428150E079
:103C5000618170E0E0919704F0919804809179047B
:103C600090917A04099598CF80919304909194044F
:103C7000892B09F491CFBD016F5F7F4F80916B0459
:103C800090916C0401970E94C114BC016F5F7F4F3B
:103C900080E00E94921460916204709163046F5FEF
:103CA0007F4FE0919304F091940480917F04909170
:103CB0008004099571CFE0919504F09196043097B6
:103CC00009F46ACF9D012F5F3F4F40916B045091E3
:103CD0006C044150510980918104909182040995AE
:103CE0005BCF60916B0470916C04822F0E949214E0
:103CF00080916B0490916C04019690936C04809376
:103D00006B044ACF60916804709169046115710574
:103D100009F4AFC027FDADC061507109709369040B
:103D200060936804822F0E9492148091680490919D
:103D30006904892B09F030CF80916604882309F447
:103D40002BCF803D09F47FC030F4803939F1803CBD
:103D500009F466C08BC0843FE1F1853F09F44DC092
:103D6000803E09F083C0E0918504F091860430978D
:103D700009F47CC0A0916204B09163048C91119607
:103D80004C9150E090E8899F400D511D11246091A5
:103D9000670480916D0490916E0467C0E091870480
:103DA000F0918804309709F461C0A0916204B09149
:103DB00063048C9111964C9150E0A0E88A9F400DCD
:103DC000511D11246091670480916F0490917004DB
:103DD0004CC0E0918D04F0918E04309709F446C0F8
:103DE000A0916204B09163044C9150E011966C91E3
:103DF000809175049091760438C0E0918F04F09121
:103E00009004309799F1A0916204B09163044C91B1
:103E100050E011966C91809177049091780425C0C0
:103E2000E0918904F0918A04309701F1A091620435
:103E3000B09163044C9150E06091670480917104EB
:103E40009091720412C0E0918B04F0918C04309731
:103E500069F0A0916204B09163044C9150E06091CC
:103E6000670480917304909174040995109266041C
:103E700093CE903F30F4822F8F7080936704922FFF
:103E8000907F903F79F158F4903C29F118F49039E3
:103E9000E9F082CE903DF9F0903EC1F07DCE993FA1
:103EA00009F449C028F48CE0890F823078F074CE90
:103EB0009F3F09F071CE109269041092680410922D
:103EC00066041092670480E090E013C010936904C8
:103ED0000093680404C0F0926904E092680490932F
:103EE00066045ACED0926A0410926C0410926B044D
:103EF00053CE20916404309165048217930748F4EF
:103F0000E0916204F0916304E80FF91F10820196BA
:103F1000F0CF10926A0410926C0410926B04E0913E
:103F20009B04F0919C04309709F436CE8091830471
:103F3000909184040BC0E0919904F0919A04309719
:103F400009F42ACE80917B0490917C04099524CEBB
:103F50008FB7F894409158065091590660915A06CF
:103F600070915B068FBF8090880290908902A0902C
:103F70008A02B0908B022091090130910A01C90197
:103F8000A0E0B0E0481959096A097B098417950730
:103F9000A607B70708F04FC0880D991DAA1DBB1DC5
:103FA0008093880290938902A0938A02B0938B0237
:103FB00082EAA82E84E0B82ECEEECC30B8F4F5011B
:103FC0008081823099F480918602909187020C2E34
:103FD00002C0959587950A94E2F780FF07C08C2F61
:103FE0000E94C115BC018C2F0E944213CF5FFFEFCE
:103FF000AF1ABF0ACC3009F78091080187FD1BC0BA
:10400000C0E02C2F30E080910801082E000C990BA5
:104010008217930784F0D29FF001D39FF00D1124F3
:10402000E25AFD4F618172812481438180810E9427
:10403000EA09CF5FE6CF0E9491028BCCC0E099CC19
:10404000C2609FCCC460A5CCC860ABCCC061B1CC11
:10405000C062B7CCC064BDCCC068C3CCC0E0D6CC15
:10406000C260DCCCC460E2CCC860E8CCC061EECCFD
:10407000C062F4CCC064FACCC06800CDC0E013CDFF
:10408000C26019CDC4601FCDC86025CDC0612BCDE5
:10409000C06231CDC06437CDC0683DCDC0E04FCDEA
:1040A000C26055CDC4605BCDC86061CDC06167CDD5
:1040B000C0626DCDDF92EF92FF920F931F93CF936B
:1040C000DF93D82EF92EE42E062F10E0C8010196BA
:1040D000880F0E942F0183E00E942F01CD2DDF2D3C
:1040E0000C0F1D1FC017D10789F0E7FE03C0FE01AA
:1040F000849101C088810E942F01F82E80E00E94E7
:104100002F018F2121968111EDCF01C081E0DF9138
:10411000CF911F910F91FF90EF90DF900895109233
:1041200035031092340388EE93E0A0E0B0E0809372
:10413000360390933703A0933803B093390321E2F9
:1041400031E030933303209332032DEC30E0309391
:104150003F0320933E032CEC30E030934103209347
:10416000400328EC30E0309343032093420329ECD2
:1041700030E030934503209344032AEC30E0309341
:104180004703209346032EEC30E0309349032093FD
:10419000480310924B0310924C0310924D0310925F
:1041A0004E031092D2031092D1038093D3039093C5
:1041B000D403A093D503B093D60323E331E0309327
:1041C000D0032093CF032FEF3FEF3093DC032093F6
:1041D000DB032FE134E01092600410925F0430930F
:1041E00063042093620440E450E0509365044093DC
:1041F000640410926604109267041092690410928D
:10420000680410926A0410926C0410926B0410926D
:104210006E0410926D041092700410926F0410924C
:10422000720410927104109274041092730410922C
:10423000760410927504109278041092770410920C
:104240007E0410927D041092800410927F041092DC
:1042500082041092810410928404109283041092BC
:104260009204109291041092610410929F04109293
:10427000A1041092A0041092FC044CE656E1509365
:1042800086044093850442E656E1509388044093A7
:10429000870444E456E150938A04409389044AE336
:1042A00056E150938C0440938B0448E556E15093BB
:1042B0008E0440938D044EE456E150939004409355
:1042C0008F0449E356E150939404409393044EE2E3
:1042D00056E1509396044093950442EF57E1509372
:1042E00098044093970430937A042093790446E32A
:1042F00057E150939A044093990430937C0420939F
:104300007B0426E236E130939C0420939B041092B8
:1043100000051092FF048093010590930205A0937D
:104320000305B093040585E491E09093FE04809327
:10433000FD04E9E0F5E011821082138212823996C1
:1043400025E0E135F207B9F780917505A6E7B5E0FC
:104350009FEF48EB5BE08C3078F48C93282F30E0B3
:10436000F901EE0FFF1F2E0F3F1FF901EF5AFA4F11
:10437000528341838F5F01C09C93139625E0AA3935
:10438000B20749F7809375050895052E97FB1EF433
:1043900000940E94DC2157FD07D00E94F72107FC02
:1043A00003D04EF40C94DC21509540953095219526
:1043B0003F4F4F4F5F4F0895909580957095619551
:1043C0007F4F8F4F9F4F08950E941922A59F900DF8
:1043D000B49F900DA49F800D911D11240895B7FFE7
:1043E0000C94E4210E94E421821B930B0895A1E226
:1043F0001A2EAA1BBB1BFD010DC0AA1FBB1FEE1F5F
:10440000FF1FA217B307E407F50720F0A21BB30BA9
:10441000E40BF50B661F771F881F991F1A9469F725
:1044200060957095809590959B01AC01BD01CF0181
:104430000895A29FB001B39FC001A39F700D811D7D
:104440001124911DB29F700D811D1124911D08959D
:10445000991B79E004C0991F961708F0961B881FD6
:104460007A95C9F780950895EE0FFF1F0590F49196
:10447000E02D09940F931F93CF93DF938230910522
:1044800010F482E090E0E0916306F091640620E091
:1044900030E0A0E0B0E0309719F140815181028115
:1044A000138148175907C8F08417950769F41097C6
:1044B00031F012960C93129713961C9327C0009319
:1044C00063061093640622C02115310519F04217C6
:1044D000530718F49A01BD01EF01DF01F801DBCFAA
:1044E00021153105F9F0281B390B2430310580F4F2
:1044F0008A819B816115710521F0FB019383828381
:1045000004C09093640680936306FE01329644C013
:10451000FE01E20FF31F81939193225031093983F9
:1045200028833AC02091610630916206232B41F422
:10453000209112013091130130936206209361069D
:1045400020911001309111012115310541F42DB751
:104550003EB74091140150911501241B350BE09199
:104560006106F0916206E217F307A0F42E1B3F0BE1
:104570002817390778F0AC014E5F5F4F24173507D5
:1045800048F04E0F5F1F509362064093610681937F
:10459000919302C0E0E0F0E0CF01DF91CF911F9155
:1045A0000F910895CF93DF93009709F481C0FC0128
:1045B000329713821282A0916306B091640610971D
:1045C00081F420813181820F931F20916106309107
:1045D00062062817390751F5F0936206E0936106E9
:1045E00067C0ED0120E030E0CE17DF0740F44A81DC
:1045F0005B819E0141155105F1F0EA01F5CFD383AE
:10460000C28340815181840F951FC817D90759F47F
:1046100088819981840F951F0296918380838A8176
:104620009B81938382832115310529F4F0936406DD
:10463000E09363063DC0E901FB83EA834991599108
:10464000C40FD51FEC17FD0761F480819181840FA1
:10465000951F0296E90199838883828193819B83C8
:104660008A83E0E0F0E012968D919C911397009779
:1046700019F0FD01DC01F7CF8D919C9111979D01FF
:104680002E5F3F4F820F931F20916106309162068B
:104690002817390769F4309729F4109264061092AC
:1046A000630602C013821282B0936206A093610671
:1046B000DF91CF91089581E090E0F8940C949123DC
:1046C000FB01DC0102C001900D9241505040D8F72F
:1046D00008956817790768F4FB01DC01E40FF51F02
:1046E000A40FB51F02C002900E9241505040D8F75F
:1046F00008950C946023DC0101C06D93415050403B
:10470000E0F70895FB01DC014150504048F0019072
:104710000D920020C9F701C01D9241505040E0F7B2
:064720000895F894FFCF9C
:1047260000E1000000000000FF1300FFFFFFFF0391
:1047360000006506800000C18081000000000000C6
:104746000023029101BB016F02EC01CA01DE0100E8
:104756000000009B020A039003B102BC02B8039456
:1047660003000000000317D6163317AA16CE16BA92
:1047760016AB162F55736572732F63677275676173
:104786003230302F446576656C6F706D656E742FB0
:104796006E6F64652D706978656C2F6669726D77CA
:1047A6006172652F6275696C642F6E6F64655F70E8
:1047B6006978656C5F6669726D6174612F6E6F648E
:1047C600655F706978656C5F6669726D6174612E8C
:1047D600696E6F004932433A20546F6F206D616EE7
:1047E600792062797465732072656365697665649C
:1047F600004932433A20546F6F206665772062790C
:10480600746573207265636569766564004D6178C9
:1048160020736572766F7320617474616368656472
:1048260000556E6B6E6F776E2070696E206D6F64CB
:10483600650031302D62697420616464726573733A
:10484600696E67206E6F7420737570706F72746511
:104856006400746F6F206D616E7920717565726981
:044866006573000076
:00000001FF
