:100000000C945D000C9485000C9485000C94850084
:100010000C9485000C9485000C9485000C9485004C
:100020000C9485000C9485000C9485000C9485003C
:100030000C9485000C9485000C9485000C9485002C
:100040000C94A2050C9485000C9485000C948500FA
:100050000C9485000C9485000C9485000C9485000C
:100060000C94EC050C94850000000000240027008F
:100070002A0000000000250028002B0004040404CE
:100080000404040402020202020203030303030342
:10009000010204081020408001020408102001021F
:1000A00004081020000000080002010000030407FB
:1000B00000000000000000001A0711241FBECFEF4F
:1000C000D8E0DEBFCDBF11E0A0E0B1E0E8E4F2E1AE
:1000D00002C005900D92AA31B107D9F722E0AAE13A
:1000E000B1E001C01D92A433B207E1F710E0CDE505
:1000F000D0E004C02197FE010E94D407CC35D1077F
:10010000C9F70E943C070C9422090C94000090E06F
:10011000FC01EC55FF4F2491FC01E057FF4F349157
:10012000FC01E458FF4FE491EE23B1F1222339F1B1
:10013000233091F038F42130A9F0223001F584B554
:100140008F7D12C0273091F02830A1F02430B9F40F
:10015000809180008F7D03C0809180008F77809395
:1001600080000DC084B58F7784BD09C08091B00038
:100170008F7703C08091B0008F7D8093B000F0E056
:10018000EE0FFF1FEE58FF4FA591B4918FB7F89473
:10019000EC91E32BEC938FBF08953FB7F8948091D7
:1001A000D8019091D901A091DA01B091DB0126B577
:1001B000A89B05C02F3F19F00196A11DB11D3FBF9F
:1001C000BA2FA92F982F8827820F911DA11DB11D2D
:1001D000BC01CD0142E0660F771F881F991F4A9529
:1001E000D1F708950895CF93DF93AC01E091D10149
:1001F000F091D2013097F1F09091D0018091CF0130
:100200009817C0F090E0292F30E02617370754F4F4
:10021000D901A15CBE4FEA01C20FD31F28812C93E4
:100220009F5FF1CF1092D0016093CF01CB01DF919E
:10023000CF910994DF91CF910895CF92DF92EF9201
:10024000FF920F931F93CF93DF936C017A018B0181
:10025000C0E0D0E0CE15DF0581F0D8016D918D01B1
:10026000D601ED91FC910190F081E02DC601099538
:10027000892B11F02196EECF7E01C701DF91CF913E
:100280001F910F91FF90EF90DF90CF90089585ED33
:100290008093BC008091BC0084FDFCCF1092CC0107
:1002A000089540917F01262F30E0240F311D213227
:1002B0003105DCF42091CC012430C9F4FC0180E04C
:1002C00090E0861758F430917F012191DC01A15A0A
:1002D000BE4FA30FB11D2C930196F3CF80917F01E8
:1002E000680F60937F0180E0089581E0089582E0C7
:1002F00008950895E091D0018091CF01E81730F47E
:10030000F0E0E15CFE4F808190E008958FEF9FEF79
:1003100008959091D0018091CF01981750F4E92F62
:10032000F0E0E15CFE4F208130E09F5F9093D001D0
:1003300002C02FEF3FEFC90108958091CF0190E0F7
:100340002091D001821B91090895CF93DF93CB01B7
:10035000EA01642F0E945101CE01DF91CF910895EF
:10036000CF93DF931F92CDB7DEB7698361E0CE01F3
:1003700001960E94510181E090E00F90DF91CF91B2
:100380000895089580E090E008958F929F92AF9233
:10039000BF92CF92DF92EF92FF9220910001FC0179
:1003A0002E9FC0012F9F900D1124F0913E012091AE
:1003B0003C0130913D01E0913B01B0913A014B018C
:1003C000AA24BB24A0913901C52ED62EE72EFF24E6
:1003D000820F931F9C012E0F311DFF2381F0F90125
:1003E0007083FC01EB0FF11D8082FC01EA0FF11D0F
:1003F000C08220913801FC01E20FF11D09C0F90112
:100400008082FC01EB0FF11DC082FC01EA0FF11D9F
:10041000408380E0FF90EF90DF90CF90BF90AF904F
:100420009F908F900895DC0170E0FB01E057FF4F33
:10043000E4911896EC93189764587F4FFB018491D0
:10044000E82FF0E0EE0FFF1FEE58FF4F85919491DB
:1004500015969C938E931497FB016491E62FF0E020
:10046000EE0FFF1FE859FF4F8591949117969C93CB
:100470008E93169708950F931F93CF938093370110
:10048000109236011092350110923401E4E2F1E04D
:10049000ACE1B1E0119211921D9291E0E433F907C1
:1004A000C9F7882361F008EE11E0C0E06C2FC801A5
:1004B0000E941302CF5F075F1F4FC830B9F7CF917B
:1004C0001F910F9108950E94FB084F925F926F92C7
:1004D0007F928F929F92AF92BF92CF92DF92EF92D4
:1004E000FF920F931F93CF93DF93CDB7DEB7609743
:1004F0000FB6F894DEBF0FBECDBF6C0110E0E12E49
:10050000F12CEC14FD0494F48CED91E0103150F4D6
:100510000E948901E1E0F0E0EC0FFD1FEE0DFF1DF0
:10052000808302C00E9489011F5FE9CF9981892FD2
:100530008F70833009F4EBC030F4813009F443C18B
:10054000823041F0E8C2843009F480C0853009F47B
:1005500005C2E1C280911B018111DDC280911A01A7
:100560008111D9C281E080931B01F12CA9E0EA2E10
:1005700080913601F81608F066C08F2D90E0BC011E
:10058000645E7E4FDB012C91222309F458C0C09099
:10059000000180903C0190903D01E89ED001E99ED1
:1005A000B00D1124A851BE4F16962D913C9117976E
:1005B000F901908118968C911897892B8083149655
:1005C0000D911C9115971896BC901897D12C8D9170
:1005D0009C911197C89E9001C99E300DD89E300DF8
:1005E000112412968D919C911397C89EA001C99ECB
:1005F000500DD89E500D1124F401E40FF51FD801C1
:100600008C919B2D90959823B82A4FB7F8942E0F74
:100610003F1FE217F30789F05191D80188E0BC929F
:1006200000C057FF9C93550F00C000C000C008F4E5
:100630009C9300C08A9599F7ECCF4FBF7894DB016B
:100640001C92F39495CF10921B0165C280911A0100
:10065000811161C28C8190E0A0E0B0E0AC01BD01ED
:100660003EE0440F551F661F771F3A95D1F79D81D5
:10067000892F90E0A0E0B0E0E5E1880F991FAA1F64
:10068000BB1FEA95D1F7840F951FA61FB71F2A81BC
:10069000820F911DA11DB11DCB80D12CE12CF12C1D
:1006A000F7E0CC0CDD1CEE1CFF1CFA95D1F7C80E50
:1006B000D91EEA1EFB1EC114D104E104F10419F095
:1006C00000E010E014C0209100018091340190916D
:1006D0003501289FA001299F500D112460E070E092
:1006E00080913C0190913D010E941B09DCC18091E9
:1006F0003401909135010817190708F0D4C1B701EA
:10070000A601C8010E94C5010F5F1F4FF0CF809165
:100710001A01811100C28B810A8110E0B0E88B9F21
:10072000000D111D1124809134019091350108179D
:100730001907A0F58E8190E0A0E0B0E0AC01BD010A
:10074000EEE0440F551F661F771FEA95D1F79F8192
:10075000892F90E0A0E0B0E0F5E1880F991FAA1F73
:10076000BB1FFA95D1F7840F951FA61FB71F2C81C9
:10077000820F911DA11DB11D4D8150E060E070E020
:1007800027E0440F551F661F771F2A95D1F7480FA2
:10079000591F6A1F7B1FC8010E94C5014091360185
:1007A000A4E2B1E080E090E0841708F0B4C1FC015D
:1007B0002D913D91019602171307B0F7E45EFE4FAD
:1007C00081E08083A8C1913009F0A5C1E2E0EC1579
:1007D00008F0A1C1809137010E943B028BEAC89EBC
:1007E000F12C1124F69494E2892E91E0992E28EEB2
:1007F000A22E21E0B22ECE0101966C01712CEE24C6
:10080000E39432E0632E44E0542E53E0452E809171
:100810003701811107C0D60111966C916F71C50126
:100820000E941302F601218130E085E0359527957D
:100830008A95E1F721303105D9F03CF4232B29F5D5
:1008400010923A01E0923B0117C022303105B9F015
:1008500023303105D1F4E0923E0150920001109214
:100860003B01E0923A0160923901409238010DC09B
:1008700010923B01E0923A016092390106C0109259
:100880003901E0923B0160923A01D60113968C91B6
:10089000139712960C9110E0B0E88B9F000D111D7C
:1008A0001124F50111830083772029F0F401329798
:1008B0008081918102C080E090E09801280F391F6B
:1008C000D4012D933D934D01F50193838283809153
:1008D000340190913501080F191F109335010093D1
:1008E0003401809136018F5F809336017394F9E073
:1008F000AF0EB11C23E0C20ED11CF71088CF80913F
:100900003C0190913D01009731F00E9472081092D5
:100910003501109234010115110509F4FCC08091D4
:100920000001809F7001819FF00C1124C7010E947B
:10093000DA0790933D0180933C01009751F0A701A5
:1009400060E070E00E941B091093350100933401B0
:10095000E2C01092350110923401DDC08A81982FD7
:100960009F7109F4A0C0A82FA0729A2EC090000118
:100970009C9D002D112421E020931A0110E0E92E06
:10098000F12CD12CB82FB0748B2E86FF2AC0C80151
:100990000E94DA075C01009729F0A80160E070E08E
:1009A0000E941B09992039F0809134019091350102
:1009B0008E199F0902C080E090E0C89E9001C99EF8
:1009C000300DD89E300D112460913C0170913D0195
:1009D000620F731FA801C5010E940009911082C017
:1009E0001BC0AA23C9F080913C0190913D01209148
:1009F0003401309135012E193F092C9DA0012D9D08
:100A0000500D3C9D500D1124BC01800F911F0E9480
:100A1000090920E030E033C0609034017090350166
:100A20006E187F0880913C0190913D01C69CA00109
:100A3000C79C500DD69C500D1124BC01600F711F36
:100A40000E9409098820A9F0C69CC001C79C900D8E
:100A5000D69C900D112420913C0130913D01A801BC
:100A6000B501820F931F0E940009C5010E94720800
:100A700018C020913401309135012E193F09C29ED2
:100A8000C001C39E900DD29E900D112420913C0177
:100A900030913D01A80160E070E0820F931F0E9439
:100AA0001B0910921A014091360150E061E070E09C
:100AB0008CE191E060960FB6F894DEBF0FBECDBF1B
:100AC000DF91CF911F910F91FF90EF90DF90CF902A
:100AD000BF90AF909F908F907F906F905F904F905E
:100AE0000C941B0980913C0190913D0120913401AF
:100AF000309135012E193F092C9DA0012D9D500DDF
:100B00003C9D500D1124BC01800F911F0E940909CA
:100B1000612C712C99CF60960FB6F894DEBF0FBE92
:100B2000CDBFDF91CF911F910F91FF90EF90DF909C
:100B3000CF90BF90AF909F908F907F906F905F907D
:100B40004F9008951F920F920FB60F9211242F937A
:100B50003F938F939F93AF93BF938091D4019091D4
:100B6000D501A091D601B091D7013091D30123E0F6
:100B7000230F2D3720F40196A11DB11D05C026E8D5
:100B8000230F0296A11DB11D2093D3018093D401A0
:100B90009093D501A093D601B093D7018091D8014D
:100BA0009091D901A091DA01B091DB010196A11DCC
:100BB000B11D8093D8019093D901A093DA01B0932D
:100BC000DB01BF91AF919F918F913F912F910F903A
:100BD0000FBE0F901F9018951F920F920FB60F9295
:100BE00011242F933F934F935F936F937F938F9332
:100BF0009F93AF93BF93EF93FF938091B900887F4A
:100C0000803609F49CC068F5883209F45BC090F422
:100C1000803109F454C038F4882309F4F6C08830D0
:100C200009F44DC0F6C0883109F44CC0803209F493
:100C30005DC0EFC0803409F468C048F4803309F423
:100C400055C0883309F0E5C08093A201D8C0803533
:100C500009F44FC0883509F45DC0883409F0D9C063
:100C6000D6C0883909F4C7C0A8F4883709F467C02A
:100C700038F4883609F463C0803709F460C0C9C00D
:100C8000883809F4B8C0803909F45FC0803809F0A9
:100C9000C0C05BC0803B09F486C038F4803A09F4D8
:100CA00066C0883A09F47FC0B4C0803C09F4A7C08C
:100CB000883C09F4A4C0883B09F48AC0AAC080918A
:100CC000C50110C09091C4018091C301981770F5BF
:100CD000E091C40181E08E0F8093C401F0E0ED55F6
:100CE000FE4F80818093BB0085EC86C08093A2017B
:100CF0008EC0E091C40181E08E0F8093C401809189
:100D0000BB00F0E0ED55FE4F80839091C4018091CF
:100D1000C3016EC0E091C40181E08E0F8093C401D5
:100D20008091BB00F0E0ED55FE4F80838091CB01B8
:100D300081116DC081E08093CA0184EA61C083E0C3
:100D40008093CC011092A101CFCF8091A10180327C
:100D500008F051C0E091A10181E08E0F8093A101C4
:100D60008091BB00F0E0EF57FE4F8083BDCF85EC54
:100D70008093BC001092CC018091A101803230F4AC
:100D8000E091A101F0E0EF57FE4F10826091A101C8
:100D900070E0E091C601F091C70181E891E009950A
:100DA0001092A10136C084E08093CC0110928001A2
:100DB00010927F01E091C801F091C90109958091DD
:100DC0007F01811105C081E080937F0110925F0156
:100DD000E091800181E08E0F80938001F0E0E15A84
:100DE000FE4F80818093BB009091800180917F01B4
:100DF000981708F479CF85E88093BC000AC085EC89
:100E00008093BC001092CC0104C01092A2010E94F9
:100E10004701FF91EF91BF91AF919F918F917F918A
:100E20006F915F914F913F912F910F900FBE0F9057
:100E30001F9018951092DF011092DE0188EE93E06A
:100E4000A0E0B0E08093E0019093E101A093E20183
:100E5000B093E3018BE091E09093DD018093DC019E
:100E6000E8EEF1E01182108213821282399682E05C
:100E7000E033F807B9F70895789484B5826084BDAB
:100E800084B5816084BD85B5826085BD85B581608E
:100E900085BD80916E00816080936E00109281000C
:100EA00080918100826080938100809181008160C7
:100EB0008093810080918000816080938000809188
:100EC000B10084608093B1008091B0008160809314
:100ED000B00080917A00846080937A0080917A00DB
:100EE000826080937A0080917A00816080937A009A
:100EF00080917A00806880937A001092C1001092ED
:100F0000D0011092CF011092CE011092CD0110921B
:100F1000CC0181E08093CB011092CA0182E10E9452
:100F2000870083E10E9487008091B9008E7F8093C3
:100F3000B9008091B9008D7F8093B90088E48093D7
:100F4000B80085E48093BC0082EF90E09093C901E3
:100F50008093C80183EF90E09093C7018093C6010E
:100F600084E88093BA0085E692E09093D201809362
:100F7000D10181E00E943B02C0E0D0E00E94CD00A0
:100F80006B017C010E94CD00DC01CB018C199D0915
:100F9000AE09BF09883E9340A105B10598F320979B
:100FA00069F30E940000EACFEE0FFF1F0590F49155
:100FB000E02D09940F931F93CF93DF938230910517
:100FC00010F482E090E0E0913202F091330220E0F0
:100FD00030E0A0E0B0E0309719F14081518102810A
:100FE000138148175907C8F08417950769F41097BB
:100FF00031F012960C93129713961C9327C000930E
:1010000032021093330222C02115310519F0421724
:10101000530718F49A01BD01EF01DF01F801DBCF9E
:1010200021153105F9F0281B390B2430310580F4E6
:101030008A819B816115710521F0FB019383828375
:1010400004C09093330280933202FE01329644C072
:10105000FE01E20FF31F81939193225031093983EE
:1010600028833AC02091300230913102232B41F481
:10107000209103013091040130933102209330021A
:1010800020910101309102012115310541F42DB764
:101090003EB74091050150910601241B350BE091AC
:1010A0003002F0913102E217F307A0F42E1B3F0B40
:1010B0002817390778F0AC014E5F5F4F24173507CA
:1010C00048F04E0F5F1F50933102409330028193DE
:1010D000919302C0E0E0F0E0CF01DF91CF911F914A
:1010E0000F910895CF93DF93009709F481C0FC011D
:1010F000329713821282A0913202B091330210977C
:1011000081F420813181820F931F20913002309130
:1011100031022817390751F5F0933102E09330027C
:1011200067C0ED0120E030E0CE17DF0740F44A81D0
:101130005B819E0141155105F1F0EA01F5CFD383A2
:10114000C28340815181840F951FC817D90759F474
:1011500088819981840F951F0296918380838A816B
:101160009B81938382832115310529F4F093330207
:10117000E09332023DC0E901FB83EA834991599132
:10118000C40FD51FEC17FD0761F480819181840F96
:10119000951F0296E90199838883828193819B83BD
:1011A0008A83E0E0F0E012968D919C91139700976E
:1011B00019F0FD01DC01F7CF8D919C9111979D01F4
:1011C0002E5F3F4F820F931F2091300230913102EA
:1011D0002817390769F4309729F4109233021092D6
:1011E000320202C013821282B0933102A093300205
:1011F000DF91CF91089581E090E0F8940C9422095A
:10120000FB01DC0102C001900D9241505040D8F723
:1012100008956817790768F4FB01DC01E40FF51FF6
:10122000A40FB51F02C002900E9241505040D8F753
:1012300008950C940009DC0101C06D9341505040A9
:08124000E0F70895F894FFCFD8
:101248000300003402800000000000B001A501C2C4
:0A1258000179019D0189017A01006E
:00000001FF
