:100000000C94DC000C9404010C9404010C94040185
:100010000C9404010C9404010C9404010C9404014C
:100020000C9404010C9404010C94B4090C94260A59
:100030000C9404010C9404010C9404010C9404012C
:100040000C9404010C9404010C9404010C9404011C
:100050000C9404010C9404010C9404010C941606F5
:100060000C9404010C9404010C9404010C940401FC
:100070000C9404010C9404010C9404010C940401EC
:100080000C9404010C9404010C9404010C940401DC
:100090000C9460060C9404010C9404010C9404016B
:1000A0000C9404010C9404010C940401E508E80884
:1000B000D708DB08DF08090909090909EC08F00875
:1000C000F408FA08FE0809090409000000002400E9
:1000D00027002A002D003000080B00020202010058
:1000E000090400000102020000052400100105249B
:1000F000010101042402060524060001070581030D
:1001000010004009040100020A0000000705020275
:1001100040000007058302400000040309041201A7
:100120000002EF0201404123378000010102030178
:1001300041726475696E6F204C4C43004172647566
:10014000696E6F204D6963726F000000000025002A
:1001500028002B002E0031000404040404030405CD
:100160000202020204030202020206060606060654
:10017000040402020204040408020110408040103A
:1001800020408040800802040180402010020110BD
:100190008010204040200000000200090F000003F2
:1001A0000401000C0000000000000000000000003E
:1001B000000000000000730D11241FBECFEFDAE035
:1001C000DEBFCDBF11E0A0E0B1E0EAEFFDE102C08B
:1001D00005900D92AE33B107D9F722E0AEE3B1E05E
:1001E00001C01D92AE3BB207E1F710E0CCEDD0E0CC
:1001F00004C02197FE010E94AD0DCB3DD107C9F788
:100200000E94640C0C94FB0E0C9400000895CF9394
:10021000DF93AC01E091F501F091F6013097F1F038
:100220009091F4018091F3019817C0F090E0292F8C
:1002300030E02617370754F4D901AD59BE4FEA0113
:10024000C20FD31F28812C939F5FF1CF1092F4012E
:100250006093F301CB01DF91CF910994DF91CF91AE
:100260000895CF92DF92EF92FF920F931F93CF9357
:10027000DF936C017A018B01C0E0D0E0CE15DF0581
:1002800081F0D8016D918D01D601ED91FC91019025
:10029000F081E02DC6010995892B11F02196EECF52
:1002A0007E01C701DF91CF911F910F91FF90EF90D9
:1002B000DF90CF90089585ED8093BC008091BC00C5
:1002C00084FDFCCF1092F00108954091A301262FE8
:1002D00030E0240F311D21323105DCF42091F00192
:1002E0002430C9F4FC0180E090E0861758F4309186
:1002F000A3012191DC01AD57BE4FA30FB11D2C937B
:100300000196F3CF8091A301680F6093A30180E071
:10031000089581E0089582E008950895E091F40140
:100320008091F301E81730F4F0E0ED59FE4F808141
:1003300090E008958FEF9FEF08959091F4018091E0
:10034000F301981750F4E92FF0E0ED59FE4F2081AA
:1003500030E09F5F9093F40102C02FEF3FEFC9019F
:1003600008958091F30190E02091F401821B91099E
:100370000895CF93DF93CB01EA01642F0E946501BA
:10038000CE01DF91CF910895CF93DF931F92CDB728
:10039000DEB7698361E0CE0101960E94650181E0CC
:1003A00090E00F90DF91CF910895089580E090E064
:1003B00008958F929F92AF92BF92CF92DF92EF9269
:1003C000FF9220910001FC012E9FC0012F9F900DF4
:1003D0001124F09162012091600130916101E0915E
:1003E0005F01B0915E014B01AA24BB24A0915D0185
:1003F000C52ED62EE72EFF24820F931F9C012E0FB1
:10040000311DFF2381F0F9017083FC01EB0FF11D19
:100410008082FC01EA0FF11DC08220915C01FC0189
:10042000E20FF11D09C0F9018082FC01EB0FF11D03
:10043000C082FC01EA0FF11D408380E0FF90EF9045
:10044000DF90CF90BF90AF909F908F900895DC0188
:1004500070E0FB01E958FE4FE4911896EC93189771
:10046000685A7E4FFB018491E82FF0E0EE0FFF1FEA
:10047000E65BFE4F8591949115969C938E9314970D
:10048000FB016491E62FF0E0EE0FFF1FE653FF4FF4
:100490008591949117969C938E93169708950F9338
:1004A0001F93CF9380935B0110925A0110925901D0
:1004B00010925801E8E4F1E0A0E4B1E01192119249
:1004C0001D9291E0E835F907C9F7882361F004E14E
:1004D00012E0C0E06C2FC8010E942702CF5F075FC7
:1004E0001F4FC830B9F7CF911F910F9108950E9407
:1004F000D40E4F925F926F927F928F929F92AF92A3
:10050000BF92CF92DF92EF92FF920F931F93CF9300
:10051000DF93CDB7DEB760970FB6F894DEBF0FBE9E
:10052000CDBF6C0110E0E12EF12CEC14FD0494F42D
:1005300088E092E0103150F40E949D01E1E0F0E08B
:10054000EC0FFD1FEE0DFF1D808302C00E949D0178
:100550001F5FE9CF9981892F8F70833009F4EBC039
:1005600030F4813009F443C1823041F0E8C2843074
:1005700009F480C0853009F405C2E1C280913F01D1
:100580008111DDC280913E018111D9C281E0809349
:100590003F01F12CA9E0EA2E80915A01F81608F0EB
:1005A00066C08F2D90E0BC01605C7E4FDB012C911A
:1005B000222309F458C0C0900001809060019090FF
:1005C0006101E89ED001E99EB00D1124AC5EBD4FE3
:1005D00016962D913C911797F901908118968C9160
:1005E0001897892B808314960D911C911597189656
:1005F000BC901897D12C8D919C911197C89E900119
:10060000C99E300DD89E300D112412968D919C916B
:100610001397C89EA001C99E500DD89E500D11245D
:10062000F401E40FF51FD8018C919B2D9095982330
:10063000B82A4FB7F8942E0F3F1FE217F30789F03F
:100640005191D80188E0BC9200C057FF9C93550F90
:1006500000C000C000C008F49C9300C08A9599F7C0
:10066000ECCF4FBF7894DB011C92F39495CF10929E
:100670003F0165C280913E01811161C28C8190E091
:10068000A0E0B0E0AC01BD013EE0440F551F661F85
:10069000771F3A95D1F79D81892F90E0A0E0B0E0D7
:1006A000E5E1880F991FAA1FBB1FEA95D1F7840FB8
:1006B000951FA61FB71F2A81820F911DA11DB11D75
:1006C000CB80D12CE12CF12CF7E0CC0CDD1CEE1C06
:1006D000FF1CFA95D1F7C80ED91EEA1EFB1EC114E5
:1006E000D104E104F10419F000E010E014C02091FD
:1006F00000018091580190915901289FA001299FE4
:10070000500D112460E070E08091600190916101D2
:100710000E94F40EDCC18091580190915901081794
:10072000190708F0D4C1B701A601C8010E94D90178
:100730000F5F1F4FF0CF80913E01811100C28B816E
:100740000A8110E0B0E88B9F000D111D11248091EB
:1007500058019091590108171907A0F58E8190E072
:10076000A0E0B0E0AC01BD01EEE0440F551F661FF4
:10077000771FEA95D1F79F81892F90E0A0E0B0E044
:10078000F5E1880F991FAA1FBB1FFA95D1F7840FB7
:10079000951FA61FB71F2C81820F911DA11DB11D92
:1007A0004D8150E060E070E027E0440F551F661F68
:1007B000771F2A95D1F7480F591F6A1F7B1FC80161
:1007C0000E94D90140915A01A8E4B1E080E090E094
:1007D000841708F0B4C1FC012D913D9101960217D8
:1007E0001307B0F7E05CFE4F81E08083A8C1913031
:1007F00009F0A5C1E2E0EC1508F0A1C180915B0110
:100800000E944F028BEAC89EF12C1124F69498E4C2
:10081000892E91E0992E24E1A22E22E0B22ECE0163
:1008200001966C01712CEE24E39432E0632E44E0D7
:10083000542E53E0452E80915B01811107C0D601F3
:1008400011966C916F71C5010E942702F6012181FA
:1008500030E085E0359527958A95E1F7213031051F
:10086000D9F03CF4232B29F510925E01E0925F0150
:1008700017C022303105B9F023303105D1F4E092B0
:1008800062015092000110925F01E0925E0160925D
:100890005D0140925C010DC010925F01E0925E012B
:1008A00060925D0106C010925D01E0925F0160926E
:1008B0005E01D60113968C91139712960C9110E05D
:1008C000B0E88B9F000D111D1124F50111830083E9
:1008D000772029F0F40132978081918102C080E075
:1008E00090E09801280F391FD4012D933D934D01BD
:1008F000F501938382838091580190915901080FEB
:10090000191F109359010093580180915A018F5F6C
:1009100080935A017394F9E0AF0EB11C23E0C20E2C
:10092000D11CF71088CF80916001909161010097F0
:1009300031F00E944B0E109259011092580101158E
:10094000110509F4FCC080910001809F7001819F16
:10095000F00C1124C7010E94B30D909361018093A4
:100960006001009751F0A70160E070E00E94F40E72
:100970001093590100935801E2C01092590110924E
:100980005801DDC08A81982F9F7109F4A0C0A82F5B
:10099000A0729A2EC09000019C9D002D112421E090
:1009A00020933E0110E0E92EF12CD12CB82FB07429
:1009B0008B2E86FF2AC0C8010E94B30D5C010097F0
:1009C00029F0A80160E070E00E94F40E992039F04F
:1009D00080915801909159018E199F0902C080E0C1
:1009E00090E0C89E9001C99E300DD89E300D112414
:1009F0006091600170916101620F731FA801C501D0
:100A00000E94D90E911082C01BC0AA23C9F0809108
:100A100060019091610120915801309159012E1986
:100A20003F092C9DA0012D9D500D3C9D500D112482
:100A3000BC01800F911F0E94E20E20E030E033C025
:100A400060905801709059016E187F088091600184
:100A500090916101C69CA001C79C500DD69C500D81
:100A60001124BC01600F711F0E94E20E8820A9F0C2
:100A7000C69CC001C79C900DD69C900D112420915E
:100A8000600130916101A801B501820F931F0E949E
:100A9000D90EC5010E944B0E18C02091580130910B
:100AA00059012E193F09C29EC001C39E900DD29ECE
:100AB000900D11242091600130916101A80160E046
:100AC00070E0820F931F0E94F40E10923E0140913D
:100AD0005A0150E061E070E080E491E060960FB66A
:100AE000F894DEBF0FBECDBFDF91CF911F910F9164
:100AF000FF90EF90DF90CF90BF90AF909F908F903E
:100B00007F906F905F904F900C94F40E80916001F5
:100B10009091610120915801309159012E193F099E
:100B20002C9DA0012D9D500D3C9D500D1124BC010C
:100B3000800F911F0E94E20E612C712C99CF60965C
:100B40000FB6F894DEBF0FBECDBFDF91CF911F91DE
:100B50000F91FF90EF90DF90CF90BF90AF909F905C
:100B60008F907F906F905F904F9008954091020218
:100B70005091030220910002309101024217530765
:100B8000B4F49091E8009570E1F39091E80092FD43
:100B900019C08093F10080910202909103020196A6
:100BA0008F739927892B19F48EEF8093E800809139
:100BB0000202909103020196909303028093020235
:100BC00081E0089580E00895615030F02091F100B7
:100BD000FC0120830196F8CF289A84E680930602D0
:100BE00008953FB7F8948091FC019091FD01A09188
:100BF000FE01B091FF0126B5A89B05C02F3F19F05B
:100C00000196A11DB11D3FBFBA2FA92F982F88278C
:100C1000820F911DA11DB11DBC01CD0142E0660FE7
:100C2000771F881F991F4A95D1F708951F920F9239
:100C30000FB60F9211242F933F938F939F93AF93EF
:100C4000BF938091F8019091F901A091FA01B091C0
:100C5000FB013091F70123E0230F2D3720F401969B
:100C6000A11DB11D05C026E8230F0296A11DB11DCF
:100C70002093F7018093F8019093F901A093FA0172
:100C8000B093FB018091FC019091FD01A091FE01C8
:100C9000B091FF010196A11DB11D8093FC019093BD
:100CA000FD01A093FE01B093FF01BF91AF919F9111
:100CB0008F913F912F910F900FBE0F901F9018951D
:100CC0001F920F920FB60F9211242F933F934F93C1
:100CD0005F936F937F938F939F93AF93BF93EF93A4
:100CE000FF938091B900887F803609F49CC068F535
:100CF000883209F45BC090F4803109F454C038F4B0
:100D0000882309F4F6C0883009F44DC0F6C0883154
:100D100009F44CC0803209F45DC0EFC0803409F49E
:100D200068C048F4803309F455C0883309F0E5C041
:100D30008093C601D8C0803509F44FC0883509F4C6
:100D40005DC0883409F0D9C0D6C0883909F4C7C05D
:100D5000A8F4883709F467C038F4883609F463C00A
:100D6000803709F460C0C9C0883809F4B8C0803938
:100D700009F45FC0803809F0C0C05BC0803B09F453
:100D800086C038F4803A09F466C0883A09F47FC016
:100D9000B4C0803C09F4A7C0883C09F4A4C0883BD7
:100DA00009F48AC0AAC08091E90110C09091E801BD
:100DB0008091E701981770F5E091E80181E08E0FCE
:100DC0008093E801F0E0E953FE4F80818093BB00FF
:100DD00085EC86C08093C6018EC0E091E80181E079
:100DE0008E0F8093E8018091BB00F0E0E953FE4F45
:100DF00080839091E8018091E7016EC0E091E80165
:100E000081E08E0F8093E8018091BB00F0E0E95310
:100E1000FE4F80838091EF0181116DC081E080934E
:100E2000EE0184EA61C083E08093F0011092C50175
:100E3000CFCF8091C501803208F051C0E091C5014B
:100E400081E08E0F8093C5018091BB00F0E0EB55EF
:100E5000FE4F8083BDCF85EC8093BC001092F001E3
:100E60008091C501803230F4E091C501F0E0EB558E
:100E7000FE4F10826091C50170E0E091EA01F091AF
:100E8000EB0185EA91E009951092C50136C084E036
:100E90008093F0011092A4011092A301E091EC0163
:100EA000F091ED0109958091A301811105C081E0C8
:100EB0008093A30110928301E091A40181E08E0F41
:100EC0008093A401F0E0ED57FE4F80818093BB003A
:100ED0009091A4018091A301981708F479CF85E837
:100EE0008093BC000AC085EC8093BC001092F00196
:100EF00004C01092C6010E945B01FF91EF91BF9167
:100F0000AF919F918F917F916F915F914F913F91A1
:100F10002F910F900FBE0F901F90189520910702F0
:100F2000211103C08FEF9FEF08955FB7F89422E07F
:100F30002093E9002091F20030E01216130614F419
:100F400021E030E0422FFC0184E6415038F0289A3D
:100F5000809306029091F1009193F7CF211531050E
:100F600021F08091F200882319F05FBFC901089534
:100F70008BE68093E800F9CF2FB7F89483E0809355
:100F8000E9009091E800892F807295FF04C090914C
:100F9000F20080E4891B2FBF0895809162028111C5
:100FA0000DC082E080935E0284E080935F02109225
:100FB00061021092600281E0809362028EE592E00D
:100FC0000895CF93DF931F92CDB7DEB76983DC011D
:100FD000ED91FC910280F381E02D41E050E0BE01F3
:100FE0006F5F7F4F09950F90DF91CF91089583E058
:100FF0008093E9008091F200882319F08AE38093BE
:10100000E80008950E94BC0790E00895CF93DF9315
:101010001F92CDB7DEB7FC018485958597FD05C08D
:101020002FEF3FEF358724870BC0CE0101960E943A
:101030008E07019719F4898190E002C08FEF9FEF2E
:101040000F90DF91CF9108950F931F93CF93DF936C
:101050001F92CDB7DEB78C01FC018485958597FF83
:101060000EC0CE0101960E948E07019719F4898166
:1010700090E002C08FEF9FEFF80195878487F80119
:10108000848595850F90DF91CF911F910F910895E1
:10109000FC018485958597FD0BC09FB7F89482E08D
:1010A0008093E9008091F2009FBF90E0019608953F
:1010B0009FB7F89482E08093E9008091F2009FBF8F
:1010C00090E00895DF92EF92FF920F931F93CF93DA
:1010D000DF93D82E8A017B01E40EF51EEB01CE15BD
:1010E000DF0571F0D7FE03C0FE01849101C0888145
:1010F0000E94B60521968111F2CF8FEF9FEF01C0BC
:10110000C801DF91CF911F910F91FF90EF90DF9079
:1011100008950F931F93CF93DF931F92CDB7DEB740
:1011200082E0898342E450E068ED70E080E80E944C
:1011300062080E94CD07DC0112960D911C91139755
:101140000115110589F0D801ED91FC910280F38120
:10115000E02DBE016F5F7F4FC801099597FD04C068
:10116000F80100851185ECCF89810F90DF91CF9137
:101170001F910F91089590E0FC01EA56FE4F4491B3
:10118000FC01E958FE4F2491FC01E85AFE4F84917E
:10119000882309F44CC04423E1F150E0FA0131976F
:1011A000EF30F105B0F5EA5AFF4F0C94AD0D909178
:1011B00080009F7707C0909180009F7D03C0909131
:1011C0008000977F9093800024C094B59F7702C0E1
:1011D00094B59F7D94BD1DC0909190009F7707C0EE
:1011E000909190009F7D03C090919000977F909385
:1011F00090000FC09091C0009F7703C09091C000F5
:101200009F7D9093C00005C09091C200977F9093FE
:10121000C200E82FF0E0EE0FFF1FE65BFE4FA59146
:10122000B4918FB7F894EC91E22BEC938FBF0895B3
:10123000CF92DF92EF92FF920E94F1056B017C0149
:101240000E94F105DC01CB018C199D09AE09BF0993
:10125000883E9340A105B10598F3FF90EF90DF9091
:10126000CF9008958F929F92AF92BF92CF92DF92CC
:10127000EF92FF920F931F93CF93DF936C017B014B
:101280008A0180910C01882309F458C080910702DB
:10129000882309F453C08091050280FF05C0809126
:1012A000E00082608093E000E801B12C8AEFA82E74
:1012B00093E0892E2AE3922E209711F4BB20B9F1F6
:1012C0000E94BC07811106C0AA94AA20B9F10E940D
:1012D0001809F2CF282F30E0C217D3070CF48C2F57
:1012E0009FB7F8948092E9002091E80025FF1DC087
:1012F000282F30E0C21BD30BF701815020F0419121
:101300004093F100FACFE20EF31EBB2019F0909249
:10131000E8000AC08091E80085FD07C09092E800CF
:10132000BB24B394209709F0B12C9FBFC5CF5D9A21
:1013300084E680935D021016110644F081E090E08F
:10134000F6019383828380E090E001C0C801DF91C1
:10135000CF911F910F91FF90EF90DF90CF90BF90B2
:10136000AF909F908F9008951F920F920FB60F929B
:1013700011248F939F938091E1009091E100937FDE
:101380009093E10083FF0FC01092E90091E09093E9
:10139000EB001092EC0092E39093ED0010920702A4
:1013A00098E09093F00082FF20C093E09093E900D2
:1013B0009091F200992319F09AE39093E8009091AC
:1013C0005D02992339F090915D02915090935D02F6
:1013D000992389F190910602992339F090910602A0
:1013E000915090930602992341F184FF10C080919F
:1013F000E2008E7E81608093E2008091E1008F7E2A
:101400008093E100809105028E7E806111C080FF93
:1014100016C08091E2008E7E80618093E200809110
:10142000E1008E7E8093E100809105028E7E8160D6
:101430008093050204C05D98CDCF2898D6CF9F91A8
:101440008F910F900FBE0F901F9018951F920F92C3
:101450000FB60F921124CF92DF92EF92FF920F936B
:101460001F932F933F934F935F936F937F938F932C
:101470009F93AF93BF93EF93FF93CF93DF93CDB73A
:10148000DEB76C97DEBFCDBF1092E9008091E80017
:1014900083FFFBC168E0CE0145960E94E40582EF20
:1014A0008093E8008D8987FF05C09091E80090FF48
:1014B000FCCF03C09EEF9093E800982F907609F040
:1014C000C6C09E894F89588D2F89F88C91110CC008
:1014D000803829F4809104028093F10002C01092B8
:1014E000F1001092F10045C1913051F4811141C1D8
:1014F0004130510509F03DC1809104028D7F0BC040
:10150000933061F4811135C14130510509F031C189
:10151000809104028260809304022BC1953049F4CB
:101520008091E80080FFFCCF822F80688093E300E9
:1015300020C1963009F05EC00B8D1C8D22E0109208
:10154000E9001092030210920202F21232C01092CD
:101550000102109200020E94890899E0BE016F5FAB
:101560007F4FDB01E92F1D92EA95E9F79983FA8213
:1015700091E09E8390EA98879AEF998720910202E2
:1015800030910302275F3F4F3C832B838D83109262
:10159000E9001092030210920202109301020093DC
:1015A000000249E050E080E00E9462080E94890841
:1015B000E0C010930102009300020E94CD07DC01FD
:1015C00012960D911C9113970115110509F4BBC0DA
:1015D000D801ED91FC910480F581E02DBE016B5E98
:1015E0007F4FC8010995009709F0C7C0F801008531
:1015F0001185EACF973009F445C1983021F481E094
:101600008093F100B6C0993009F0B3C0837009F03F
:1016100039C1E4E1F1E081E031E096E3208121117C
:1016200009C08EE78093EA001092EA008F898093C8
:1016300007029FC08093E9003093EB002191209333
:10164000EC009093ED008F5F873041F7EACF8B8DF0
:101650009C8D1092E9001092030210920202909366
:10166000010280930002898D811153C08E899D896A
:10167000913A49F4813209F005C147E050E065E054
:1016800071E080E0BBC0913209F0FCC0833269F4A4
:101690008F89988DA0E0B0E08093010190930201C2
:1016A000A0930301B093040164C0803269F4809177
:1016B000E80082FFFCCF67E085E091E00E94E4054E
:1016C0008BEF8093E80055C0823209F052C08F89B9
:1016D00080930C01EEEFFFE7859194918B3F9C4D39
:1016E00019F0E0E0F8E002C0EEEFFAE080910501C9
:1016F00090910601A0910701B0910801803B9440B0
:10170000A105B10509F09EC080910C0180FF79C050
:1017100099C00E94CD07FC010281138101151105BA
:1017200009F4B0C0D801ED91FC910190F081E02D59
:10173000BE016B5E7F4FC801099581111AC0F80187
:1017400000851185EBCFF1E0FF1609F44EC0F3E000
:10175000FF1298C08F89882309F44AC0823089F427
:1017600040E86DE08CE391E00E943E0D882309F48F
:1017700089C08EEF8093E80088C018161906CCF354
:1017800081C0813029F440E86BE080E391E0ECCF48
:10179000833009F077C00E94CD07DC011296ED90EE
:1017A000FC9013978E010F5F1F4F6801E114F10445
:1017B00079F0D701ED91FC910680F781E02DB80119
:1017C000C7010995080F111DF701E084F184EECFE0
:1017D000D8011C92F60101900020E9F73197BF0172
:1017E0006C197D0940E0C601BFCF6EE171E002C017
:1017F0006AE171E0FB01449150E080E80E946208D8
:10180000B8CFEE3F2AE0F20751F08081918187370F
:10181000A7E79A0721F09093FF0A8093FE0A87E7D3
:1018200097E7918380838091600080935C029BE0C6
:1018300088E10FB6F894A895809360000FBE90934E
:10184000600097CF808191818737974709F091CFCA
:10185000A8958091600088618093600080915C020F
:1018600080936000EE3FBAE0FB0739F08091FE0AFA
:101870009091FF0A918380837CCF1092FF0A10928F
:10188000FE0A77CF81E28093EB006C960FB6F89456
:10189000DEBF0FBECDBFDF91CF91FF91EF91BF9122
:1018A000AF919F918F917F916F915F914F913F91F8
:1018B0002F911F910F91FF90EF90DF90CF900F909D
:1018C0000FBE0F901F901895789484B5826084BDE8
:1018D00084B5816084BD85B5826085BD85B5816034
:1018E00085BD80916E00816080936E0010928100B2
:1018F000809181008260809381008091810081606D
:10190000809381008091800081608093800080912D
:10191000910082608093910080919100816080931A
:101920009100809190008160809390008091C1002F
:1019300084608093C1008091C10082608093C10067
:101940008091C10081608093C1008091C30081605B
:101950008093C3008091C00082608093C00080911A
:10196000C20081608093C20080917A00846080937D
:101970007A0080917A00826080937A0080917A0068
:10198000816080937A0080917A00806880937A00E9
:101990001092070210920402109205028091D70063
:1019A00081608093D70080EA8093D80089B58061F8
:1019B00089BD89B5826089BD09B400FEFDCF0E9452
:1019C00018098091D8008F7C80618093D800809125
:1019D000E000807F8093E0008091E1008E7E809324
:1019E000E1008DE08093E200559A209A5D98289856
:1019F0001092F4011092F3011092F2011092F10191
:101A00001092F00181E08093EF011092EE0182E0EC
:101A10000E94BB0883E00E94BB088091B9008E7FC2
:101A20008093B9008091B9008D7F8093B90088E4DC
:101A30008093B80085E48093BC0086E091E09093A9
:101A4000ED018093EC0187E091E09093EB018093AE
:101A5000EA0184E88093BA0089E792E09093F60166
:101A60008093F50181E00E944F02C0E0D0E00E9427
:101A700018092097E1F30E940000F9CFDF92EF925E
:101A8000FF920F931F93CF93DF93D82EF92EE42E5E
:101A9000062F10E0C8010196880F0E94B60583E06A
:101AA0000E94B605CD2DDF2D0C0F1D1FC017D107CD
:101AB00089F0E7FE03C0FE01849101C088810E9485
:101AC000B605F82E80E00E94B6058F21219681117F
:101AD000EDCF01C081E0DF91CF911F910F91FF9079
:101AE000EF90DF90089510926D0210926C0288EED4
:101AF00093E0A0E0B0E080936E0290936F02A09319
:101B00007002B09371022EE131E030936B022093AA
:101B10006A022FEF3FEF3093770220937602109204
:101B20000B0210920A0280930C0290930D02A09374
:101B30000E02B0930F0280E391E09093090280932C
:101B40000802E4E1F2E011821082138212823996D7
:101B500082E0EC35F807B9F70895EE0FFF1F059006
:101B6000F491E02D09940F931F93CF93DF9382306C
:101B7000910510F482E090E0E091BC02F091BD028A
:101B800020E030E0A0E0B0E0309719F140815181D1
:101B90000281138148175907C8F08417950769F423
:101BA000109731F012960C93129713961C9327C03E
:101BB0000093BC021093BD0222C02115310519F01B
:101BC0004217530718F49A01BD01EF01DF01F80134
:101BD000DBCF21153105F9F0281B390B24303105F5
:101BE00080F48A819B816115710521F0FB0193834B
:101BF000828304C09093BD028093BC02FE013296A2
:101C000044C0FE01E20FF31F8193919322503109EA
:101C1000398328833AC02091BA023091BB02232B2A
:101C200041F420910F01309110013093BB022093B9
:101C3000BA0220910D0130910E012115310541F4B8
:101C40002DB73EB74091110150911201241B350B65
:101C5000E091BA02F091BB02E217F307A0F42E1B49
:101C60003F0B2817390778F0AC014E5F5F4F241700
:101C7000350748F04E0F5F1F5093BB024093BA02E6
:101C80008193919302C0E0E0F0E0CF01DF91CF912A
:101C90001F910F910895CF93DF93009709F481C0AE
:101CA000FC01329713821282A091BC02B091BD0256
:101CB000109781F420813181820F931F2091BA0205
:101CC0003091BB022817390751F5F093BB02E0931E
:101CD000BA0267C0ED0120E030E0CE17DF0740F424
:101CE0004A815B819E0141155105F1F0EA01F5CF72
:101CF000D383C28340815181840F951FC817D907B0
:101D000059F488819981840F951F0296918380836D
:101D10008A819B81938382832115310529F4F09375
:101D2000BD02E093BC023DC0E901FB83EA83499117
:101D30005991C40FD51FEC17FD0761F48081918183
:101D4000840F951F0296E90199838883828193818C
:101D50009B838A83E0E0F0E012968D919C9113972B
:101D6000009719F0FD01DC01F7CF8D919C9111973F
:101D70009D012E5F3F4F820F931F2091BA02309139
:101D8000BB022817390769F4309729F41092BD0275
:101D90001092BC0202C013821282B093BB02A093C5
:101DA000BA02DF91CF91089581E090E0F8940C940D
:101DB000FB0EFB01DC0102C001900D92415050402E
:101DC000D8F708956817790768F4FB01DC01E40F80
:101DD000F51FA40FB51F02C002900E924150504053
:101DE000D8F708950C94D90EDC0101C06D934150D1
:0A1DF0005040E0F70895F894FFCF8B
:101DFA0003FFFFFFFF00E10000000000000000BE3B
:101E0A0002800000C1808100000000000000E1079C
:101E1A0032090208F70748080608240800000000EB
:0E1E2A00C401B901D6018D01B1019D018E01E7
:00000001FF
